:020000040800F2
:100000000015002069020008710200087302000850
:10001000750200087702000879020008000000005D
:100020000000000000000000000000007B0200084B
:100030007D020008000000007F020008A5300008D3
:10004000830200088302000883020008830200087C
:10005000830200088302000883020008830200086C
:10006000830200088302000883020008830200085C
:10007000830200088302000883020008830200084C
:100080008302000883020008AD0300088302000811
:10009000830200088302000883020008830200082C
:1000A0000D34000883020008830200088302000860
:1000B000513400088302000883020008830200080C
:1000C00083020008830200088302000883020008FC
:1000D00083020008830200088302000883020008EC
:1000E00083020008830200088302000883020008DC
:1000F00083020008830200088302000883020008CC
:1001000083020008830200088302000883020008BB
:1001100083020008830200088302000883020008AB
:10012000830200088302000883020008830200089B
:10013000830200088302000883020008830200088B
:10014000830200088302000883020008830200087B
:10015000830200088302000883020008830200086B
:10016000830200088302000883020008830200085B
:10017000830200088302000883020008830200084B
:10018000830200088302000800F002F800F05CF827
:100190000AA090E8000C82448344AAF10107DA45E2
:1001A00001D100F051F8AFF2090EBAE80F0013F0D8
:1001B000010F18BFFB1A43F001031847543E00001B
:1001C000743E00000A444FF0000C10F8013B13F09D
:1001D000070408BF10F8014B1D1108BF10F8015BA0
:1001E000641E05D010F8016B641E01F8016BF9D193
:1001F00013F0080F1EBF10F8014BAD1C0C1B09D1EA
:100200006D1E58BF01F801CBFAD505E014F8016B5B
:1002100001F8016B6D1EF9D59142D6D370470000ED
:100220000023002400250026103A28BF78C1FBD8FF
:10023000520728BF30C148BF0B6070471FB503F09D
:10024000E1FA1FBD10B510BD00F031F81146FFF7FF
:10025000F5FF03F0BFFA00F04FF803B4FFF7F2FF29
:1002600003BC00F057F800000948804709480047E0
:10027000FEE7FEE7FEE7FEE7FEE7FEE7FEE7FEE756
:10028000FEE7FEE704480549054A064B70470000B3
:10029000C530000889010008000F0020001500206B
:1002A000001100200011002070477047704775460C
:1002B00000F02CF8AE4605006946534620F00700D2
:1002C000854618B020B5FFF7DDFFBDE820404FF0B0
:1002D00000064FF000074FF000084FF0000B21F030
:1002E0000701AC46ACE8C009ACE8C009ACE8C009FD
:1002F000ACE8C0098D46704710B50446AFF30080E6
:100300002046BDE81040FFF7A8BF00000048704736
:100310009C0E002001491820ABBEFEE7260002001B
:100320007047CA430260704700220A12D343036039
:10033000704721B1826842F00102826003E0826866
:1003400022F00102826070470021084A1168084AC1
:100350001140D0E900231A4383681A43C3681A4343
:100360001143044AC2F804137047000004230140FB
:10037000E030FCFF002001400A460021816821F4A2
:1003800070211143816070470A460021816821F481
:1003900040111143816070470246002013680B40F2
:1003A0000BB1012000E000207047000010B50421CF
:1003B0000548FFF7F1FF30B104210348FFF7B1FF13
:1003C000024802F037F910BD00200140080000206B
:1003D00010B50B460021D9B2012404FA01F11AB17B
:1003E00044680C43446002E044688C43446010BDA0
:1003F00030B50246002000235068104C20400D7993
:100400000C6844EA05242043506090680C4C20405E
:10041000D1E903542C438D682C434D7944EA4504BB
:1004200020439060D06A20F470000C7D641EE4B21A
:10043000234340EA0350D06230BD0000FFFEFFFCC2
:10044000FDF7FFC0F0B50446154600200022002647
:10045000092911DDE068A1F10A0707EB470C07271E
:1004600007FA0CF29043A1F10A0707EB470703FADA
:1004700007F21043E0600CE0206901EB410C072714
:1004800007FA0CF2904301EB410703FA07F210431D
:100490002061A06BC0F30156EF1C06F1010CA7EB25
:1004A0000C0707EB870C1F2707FA0CF29043EF1C91
:1004B00006F1010CA7EB0C0707EB870701FA07F21F
:1004C0001043A063F0BD21B1426842F48052426003
:1004D00003E0426822F480524260704710B50A4639
:1004E00000210023816B21F44011531E41EA035186
:1004F000816310BDF0B504460D4600200021092D92
:1005000011DDE068A5F10A0606EB4607072606FAA4
:1005100007F18843A5F10A0606EB460603FA06F141
:100520000843E0600CE0206905EB4507072606FA62
:1005300007F1884305EB450603FA06F108432061FD
:10054000072A0FDA606B561E06EB86071F2606FA8F
:1005500007F18843561E06EB860605FA06F10843A6
:10056000606322E00D2A0FDA206BD61F06EB8607A8
:100570001F2606FA07F18843D61F06EB860605FA02
:1005800006F10843206310E0E06AA2F10D0606EBD5
:1005900086071F2606FA07F18843A2F10D0606EB2F
:1005A000860605FA06F10843E062F0BD816841F075
:1005B000804181607047000038B10849096841F402
:1005C0000001074AC2F8041306E00449096821F44F
:1005D0000001034AC2F804137047000004230140DD
:1005E0000020014000B58BB00120FFF7E5FF00209F
:1005F0000990079008900A9007A8FFF7A5FE002031
:10060000019001208DF808008DF80900002003906A
:10061000059001208DF8180001A92348FFF7E8FE96
:100620000423012200212048FFF764FF04211E4813
:10063000FFF754FF01231A4608211B48FFF702FF6A
:100640000123022206211848FFF7FCFE01230322A2
:1006500011461548FFF7F6FE01230422092112482E
:10066000FFF7F0FE00211048FFF72DFF4FF40011B7
:100670000D48FFF789FE4FF480310B48FFF77CFEF1
:1006800040F207410848FFF74FFE012240F20741C0
:100690000548FFF79DFE01210348FFF74AFE024887
:1006A000FFF784FF0BB000BD0020014010B502F041
:1006B000CBFC0121084602F0F9FB0121022002F0E7
:1006C000F5FB0121042002F0F1FB0121082002F0DA
:1006D000EDFB0121102002F0E9FB0121202002F0B6
:1006E000E5FB0121402002F0E1FB0121802002F026
:1006F000DDFB0121080202F0D9FB0121084602F0CE
:10070000E5FB0121C80202F0E1FB0121084602F0ED
:10071000EDFB0121080202F0E9FB0121880302F050
:10072000E5FB10BD00B58FB000BF154800F023FBFE
:100730000028FAD100900190124802900020039006
:1007400001200490002005904FF480600690400046
:1007500007908000089000010A9040120990002044
:100760000B9001200C9000200D900E9069460448DB
:1007700000F00CFB0121024800F0F2FA0FB000BDBE
:1007800010640240000000201CB54FF48061B7489F
:1007900000F09FFB1020009000208DF80400012045
:1007A0008DF807006946B24800F01CFB4FF48060EA
:1007B000009001208DF804008DF8070000208DF8CE
:1007C00005006946A94800F00DFB012000908DF856
:1007D000040002208DF8070000208DF8050069460E
:1007E000A34800F0FFFA0220009001208DF80400D9
:1007F00002208DF8070000208DF8050069469C480E
:1008000000F0F0FA01219A4800F060FB02219848BC
:1008100000F05CFB0420009000208DF80400012013
:100820008DF807006946924800F0DCFA0820009035
:1008300000208DF8040001208DF8070069468C48DF
:1008400000F0D0FA1020009000208DF80400012064
:100850008DF807006946864800F0C4FA03208DF839
:1008600004000120009000208DF8070069468148AF
:1008700000F0B8FA03208DF804004020009000201A
:100880008DF8070069467C4800F0ACFA03208DF82B
:1008900004000820009000208DF807006946764883
:1008A00000F0A0FA03208DF8040002200090002040
:1008B0008DF8070069466F4800F094FA02208DF821
:1008C000040000208DF806004FF480700090002096
:1008D0008DF8070003208DF805006946664800F092
:1008E00081FA02208DF8040000208DF806004FF4F4
:1008F0000070009000208DF8070003208DF805009F
:1009000069465D4800F06EFA02208DF80400002070
:100910008DF806004FF48060009000208DF80700ED
:1009200003208DF805006946534800F05BFA022069
:100930008DF8040000208DF806004FF40050009060
:1009400000208DF8070003208DF80500694649480E
:1009500000F048FA02208DF8040000208DF806000F
:100960004FF48040009000208DF8070003208DF8A0
:10097000050069463F4800F035FA02208DF8040072
:1009800000208DF806004FF40040009000208DF804
:10099000070003208DF805006946364800F022FA6A
:1009A00000208DF8040001208DF80600000300905F
:1009B00000208DF8070003208DF8050069462D48BA
:1009C00000F010FA012208212B4800F053FA01220E
:1009D0000921294800F04EFA01220A21264800F098
:1009E00049FA01220D21234800F044FA01220E2188
:1009F000204800F03FFA01220F211E4800F03AFA89
:100A000001220C211B4800F035FA4FF48060009061
:100A100000208DF8040003208DF8050000208DF8DB
:100A200007006946154800F0DDF94FF400600090BA
:100A300000208DF8040003208DF8050000208DF8BB
:100A4000070069460D4800F0CDF94FF48050009042
:100A500000208DF8040003208DF8050000208DF89B
:100A600007006946054800F0BDF91CBD00140240AE
:100A7000001002400004024000000240001C02403E
:100A800010B50421014800F018FA10BD0010024012
:100A900010B50821014800F010FA10BD0010024006
:100AA00038B54FF0FF300521002807DA0A07140E89
:100AB000164A00F00F031B1FD45403E00A07130E5D
:100AC000134A135400BF4FF4A06002F04DF91220F6
:100AD0008DF8000003208DF8010000208DF8020041
:100AE00001208DF80300684602F002F918208DF805
:100AF000000000208DF801008DF8020001208DF823
:100B00000300684602F0F4F838BD000018ED00E07C
:100B100000E400E000B58DB00121374802F0C5FCCB
:100B20004FF40070ADF830002020ADF82A0000200E
:100B3000ADF8280001208DF8320041F281400B9081
:100B40000AA92D4802F004FE7020ADF8140001201F
:100B5000ADF816000420ADF8180000200790ADF89D
:100B60002000ADF82200ADF82400ADF8260005A95C
:100B7000214802F0C7FC05A91F4802F001FD05A9A4
:100B80001D4802F04FFD5420079005A91A4802F0B5
:100B900099FD7021184802F0D1FD4FF40060ADF8C6
:100BA00004004010ADF806000020ADF80800152044
:100BB000ADF80A004FF48050ADF80C004000ADF8DD
:100BC0000E000020ADF8100001A90B4802F057FC00
:100BD0008021094802F066FC01228021064802F0CB
:100BE00088FC0121044802F03EFC0121024802F089
:100BF00068FC0DB000BD0000000001400EB54FF4D0
:100C00000070ADF808000020ADF80200ADF800005B
:100C10008DF80A00401E019069464FF0804002F0B6
:100C200097FD0121880702F040FC0EBD70B5044617
:100C30000D46FFF725FF14494861FFF729FF1249C8
:100C4000C8612879C0F3400050B96069A8B9A069AB
:100C5000012812D1686820F00200801C68600CE056
:100C60002879C0F3400040B1E06930B9206A01281A
:100C700003D1686820F0020068606069A061E069E3
:100C800020622069E86270BDA00C002010B5024609
:100C90000846137803F0010313B90023536010BD15
:100CA0001378C3F3C0038BB3C1B11378C3F38003CC
:100CB0006BB1146A536823445360D2E90734634329
:100CC0005468A34247D800200023536043E0536890
:100CD000002B40D053685B1E53603CE01378C3F395
:100CE00040036BB1146A536823445360146A136958
:100CF00063435468A3422ED80120002353602AE0A6
:100D000053682BB353685B1E536024E0FFE789B13F
:100D10001378C3F3800353B153685B1C5360D469E9
:100D20005368A34217D300200023536013E000232D
:100D3000536010E01378C3F3400353B153685B1C56
:100D4000536014695368A34205D301200023536004
:100D500001E00023536000BFA1E70021416070471C
:100D600021B1026842F00102026003E0026822F051
:100D7000010202607047014600200A6802F0010289
:100D80000AB1012000E000207047000010B50022E9
:100D90000268134B1A40CC680B6823434C69234309
:100DA0008C692343CC6923430C6A23434C6A234355
:100DB0008C6A23434C6B23438C6B23431A4302609E
:100DC000426922F00702D1E90B3423431A434261FE
:100DD0000B6943604B6883608B68C36010BD000083
:100DE0003F801CF0F0B50A4600210023002400BF1C
:100DF0003DE0012505FA01F3156805EA03049C426C
:100E000034D105684F000326BE40B543056015790F
:100E10004E00B5400668354305601579012D02D0B6
:100E20001579022D16D185684F000326BE40B543C3
:100E3000856055794E00B5408668354385604568C4
:100E400001268E40B5434560456896798E40B6B21E
:100E500035434560C5684F000326BE40B543C560B5
:100E6000D5794E00B540C6683543C560491C102988
:100E7000BFD3F0BDF0B5002300244D07ED0E02FAFC
:100E800005F3CE1000F1200555F826504E07F70E59
:100E90000F26BE40B543CF1000F1200646F827507C
:100EA000CE1000F1200555F8265045EA0304CE1077
:100EB00000F1200545F82640F0BD024600201369E8
:100EC0000B400BB1012000E0002070470A04826152
:100ED00070478161704782680168A1EBA231C368E5
:100EE00003FB0121816081688913416070478A0397
:100EF0008260416070470000C16AC16390ED0F0AD3
:100F0000B8EEC00ADFED110AB4EEE00AF1EE10FA15
:100F10000BDB90ED0F0AB8EEC00ADFED0C0A30EEE5
:100F2000600ABDEEC00A80ED0F0AC16B00290BDA22
:100F300090ED0F0AB8EEC00ADFED040A30EE200A89
:100F4000BDEEC00A80ED0F0A704700000000804629
:100F500010B504460021204601F0FDFF4FF440513A
:100F600004F1180001F0F7FF002020636063A06324
:100F7000E06310BD10B50446204601F0C7FF04F140
:100F8000180001F0C3FF6069A063206B401C206360
:100F9000216C206B884203D3002020630120606312
:100FA00010BD816B4164D0E90F12891A42F2F442FC
:100FB000514389138164704710B5044600202066B0
:100FC00060660021204601F067FF002104F1300037
:100FD00001F062FF10BD70B504460D468C35A86C5B
:100FE000A062A86C4042E062206E206028686060C9
:100FF000204601F00BFF606AA860A96C4943626A51
:1010000002FB121001F0D2FAA065A06D4142E16529
:10101000606E20636968616304F1300001F0F6FEE0
:10102000606DE8608C3D70BD70B500220023002427
:10103000D1F8A450466FB54201DB026F07E0D1F84A
:10104000A450466F7642B54201DC056F6A42D1F882
:10105000A850466FB54201DB036F07E0D1F8A850F6
:10106000466F7642B54201DC056F6B42D1F8AC5059
:10107000466FB54201DB046F07E0D1F8AC50466F14
:101080007642B54201DC056F6C42056B35B1056BEC
:10109000B5F5804F02D0056B15440563456B35B13E
:1010A000456BB5F5804F02D0456B1D444563856B9C
:1010B00035B1856BB5F5804F02D0856B25448563CE
:1010C00070BDF0B50022002300248D6B466FB54241
:1010D00001DB026F06E08D6B466F7642B54201DCA4
:1010E000056F6A42CD6B466FB54201DB036F06E0C8
:1010F000CD6B466F7642B54201DC056F6B420D6CDD
:10110000466FB54201DB046F06E00D6C466F764218
:10111000B54201DC056F6C42056B35B1056BB5F569
:10112000804F02D0056BAD1A0563456B35B1456B39
:10113000B5F5804F02D0456BED1A4563856B35B12F
:10114000856BB5F5804F02D0856B2D1B8563D0E98B
:101150000C56C6EB4505866BAD1B41F255567543E3
:10116000AD13D1F8BC607543AD13CD64D0E90D5615
:10117000AD1B42F2F4467543AD13D1F8BC60754324
:10118000AD130D658D6B066B7543CE6B476B06FB20
:1011900007550E6C876B06FB0755AD134D60F0BD10
:1011A0000A6C0263CA6C92024B6D92FBF3F24263CB
:1011B000704710B5044600212046FFF798FE002135
:1011C00004F11000FFF793FE00202062606210BD62
:1011D00070B504460D46686C216A401A2060A86C00
:1011E000616A401A20612046FFF775FE04F1100085
:1011F000FFF771FE206B696C4843E96CA1EBA031ED
:101200006268606B5043A1EBA020A062206BA96CC8
:101210004843296DA1EBA0326169606B4843A2EBA2
:10122000A020E062686C2062A86C606270BD000063
:101230002DE9F04104460D4616464FF0000895EDA5
:101240002E0AB8EEC00AB5EEC00AF1EE10FA03D2CB
:10125000D5F8B800404201E0D5F8B8008046002734
:1012600095ED300AB8EEC00AB5EEC00AF1EE10FAFC
:1012700003D2D5F8C000404201E0D5F8C0000746CF
:10128000414604F1840002F006F8A16F4843801340
:10129000606655F8B81F04F1900001F0FCFFE16FA3
:1012A00048438013A06004F19C00296801F0F3FF1B
:1012B000D4F8801048438013E06055F8B8193A46D6
:1012C00004F1A80002F030F8A06494ED120AB8EE20
:1012D000C00ADFED180AB4EEE00AF1EE10FA0BDBFB
:1012E00094ED120AB8EEC00ADFED120A30EE600A81
:1012F000BDEEC00A84ED120AA06C00280BDA94ED52
:10130000120AB8EEC00ADFED0B0A30EE200ABDEE7D
:10131000C00A84ED120A04F1480001F0FBF8706D78
:10132000A066706CE066B06C2067306D6067BDE8E9
:10133000F08100000000804610B5044600212046E0
:1013400001F05CFD002104F12800FFF7D0FD002032
:10135000A0634FF48041E163002121646164A065D2
:10136000606FE0650020206610BD2DE9F04704465F
:101370000D4600260027B046B146686CE16B484335
:10138000AA6C216C02FB01008613686C216C484337
:10139000AA6CE16B02FB010080134742E06E7043D0
:1013A000616F01EBA036206F78438713E06B7043C9
:1013B000216C07FB1108206C7043E16B07FB0109EE
:1013C000E16DA8EB01018913606E4843E96C01EB04
:1013D000A030A26EE16D02FB0010E065D4E91810A8
:1013E000A9EB010189134843296D01EBA030A26EDE
:1013F000216E02FB00102066216F206EAA6C01FB9B
:1014000012008013E16B484380132060216FE06D70
:101410006A6C01FB12008013216C484380136060EA
:10142000204601F0ABFCE069A06204F12800FFF760
:1014300052FDA26AA16EA06D01FB0200A065A06D25
:10144000B0F1805F03DBA06DA0F18050A065A06DBE
:10145000002803DAA06D00F18050A065A06D801314
:10146000A06304F1380001F055F8BDE8F0870000F2
:101470002DE9F04104460E4615464FF0000896ED62
:101480002E0AB8EEC00AB5EEC00AF1EE10FA03D289
:10149000D6F8B800404201E0D6F8B80080460027F0
:1014A00096ED300AB8EEC00AB5EEC00AF1EE10FAB9
:1014B00003D2D6F8C000404201E0D6F8C00007468B
:1014C000414604F1940001F0E6FED4F88810484348
:1014D00080136067414604F1A00001F0DCFED4F8FF
:1014E0008C1048438013A060414604F1AC0001F029
:1014F000D2FED4F8901048438013E0603A4641464B
:1015000004F1B80001F010FFA06494ED120AB8EEE7
:10151000C00ADFED200AB4EEE00AF1EE10FA0BDBB0
:1015200094ED120AB8EEC00ADFED1A0A30EE600A36
:10153000BDEEC00A84ED120AA06C00280BDA94ED0F
:10154000120AB8EEC00ADFED130A30EE200ABDEE33
:10155000C00A84ED120A04F1480000F0DBFF686D58
:10156000A0674FF08071686C91FBF0F0E067286C29
:101570008002696C90FBF1F0C4F88000D5E911019C
:10158000401A8003696C90FBF1F0C4F88400BDE858
:10159000F08100000000804610B50446002120467E
:1015A00001F02CFC002104F12800FFF7A0FC002032
:1015B000A0634FF48041E163002121646164A06570
:1015C000E065206610BD70B504460D46206820F029
:1015D0000100401C2060D5F8D000E168884201D3AA
:1015E000012100E00021206861F341002060D5F86E
:1015F000D000A169884201D8012100E000212068C3
:1016000061F3820020602046616AFFF73FFB606261
:1016100070BD70B50B4600211C68556F6C43866C1D
:10162000C56A04FB05648464846CB4F1805F03DBE9
:10163000846CA4F180548464846C002C03DA846C80
:1016400004F180548464846CA4134464056B446C7A
:10165000611BB1F5005F02DDA1F5804104E011F5E9
:10166000005F01DA01F58041C56AC469A5421BDB50
:10167000002901DA4C4200E00C46856DAC420BDCDF
:10168000446B641C4463C56D446BAC4206D30024B8
:1016900044630124846301E000244463456D44698C
:1016A000AC4201DC0124846370BD10B50446002106
:1016B000204601F050FC002104F1180001F04BFC21
:1016C000E06C606000206063A063E063206460649D
:1016D000A06410BD70B504460D46E16AE069814220
:1016E00001DB606D6060204601F010FC04F1180021
:1016F00001F00CFC216D6069884202DC206DE06322
:1017000001E00020E063286861694843206470BDFF
:1017100030B500BF00BF50F88C3F44696343056992
:10172000446804FB153399130469036863434569EE
:10173000446804FB05339A13816146F6DA63534328
:101740004C4204EBA333DB13C36146F6DA63534325
:101750004C42A4EBA333DB1303628C3830BD826FA1
:10176000D0F884105143D0F88830C26F03FB0211C7
:101770008913C0F89C10826FD0F888105143D0F8BC
:101780008430C26F03FB121189139430C160C268A8
:1017900001685143D0E9012302FB13118913C16190
:1017A000826801685143C368426802FB03118913D0
:1017B00001629438704700210162016141618161D9
:1017C000C161704710B502460020146813692344B4
:1017D00013615468536923445361946893692344A3
:1017E0009361136A5B1C1362D46A136AA3422FD1FC
:1017F000146A1369B3FBF4F31361146A5369B3FBFE
:10180000F4F35361146A9369B3FBF4F393611369BE
:101810004B6153698B619369CB61546A1369A3422D
:1018200013DC946A1369A3420FDB546A5369A34221
:101830000BDC946A5369A34207DB546A9369A342A1
:1018400003DC946A9369A34201DA022000E00120DC
:1018500010BD00002DE9F04106460D461446002754
:10186000B06845F8B80F306A6860316D4943B36EAF
:1018700003FB031000F09AFEA860802189594943B8
:1018800098229359925903FB021000F08FFEE860F2
:10189000B02080592861A96A6868B83D4843871319
:1018A00067B155F8BC0F4FF0805191FBF0F0286103
:1018B000A868800390FBF7F06861BC3DB835E86A22
:1018C00078438013E8614FF48070B16B81514FF41D
:1018D0008C70A968815106F1FC0000F0E5FD06F569
:1018E0008A7000F0E1FD4FF48270805928624FF455
:1018F0008E7080596862A06920F00100401CA061D0
:1019000055F8B819606A814201D8012100E0002130
:10191000A06961F34100A061D5F8B810206B814245
:1019200001D3012100E00021A06961F38200A061E0
:1019300004F11800E16BFFF7A9F9E063E06B18B15F
:10194000D4F88800606002E0D4F88400606020462B
:1019500001F0DCFA60698003D4F8841090FBF1F0A8
:10196000A0654FF08051A06D91FBF0F0E065206E16
:101970002064606E6064743504F17800A96E01F033
:101980008AFCA16E48438013A064E06EE064206F7F
:101990002065E16D606F484380136065686C616D20
:1019A00048438013696F48430012286095ED000A90
:1019B000743DB8EEC00ADFED140AB4EEE00AF1EEB1
:1019C00010FA0BDB95ED1D0AB8EEC00ADFED0E0A2A
:1019D00030EE600ABDEEC00A85ED1D0A686F002872
:1019E0000BDA95ED1D0AB8EEC00ADFED070A30EEFE
:1019F000200ABDEEC00A85ED1D0A05F1740000F055
:101A000089FDBDE8F08100000000804600214166AC
:101A10004FF4804282660022C26602677047826E7F
:101A2000C16D5143836DC26E03FB02118913C0F86F
:101A30008410826E816D5143C36DC26E03FB12111F
:101A4000891344304164426C01685143036C42681D
:101A500002FB03118913816401684942026C5143FE
:101A6000436C426802FB03118913C1644438704718
:101A700000218162704700002DE9FE410A4600BF47
:101A800000BF00BF0023002400279C46CDF800C003
:101A9000CDF804C0CDF808C046F6DA68D2F8B4C074
:101AA0000CFB08FC4FEAAC31D2F8B0C00CEB4C0C8C
:101AB000ACEB010CD2F8CC800CFB08FC4FEAEC3507
:101AC000D2F8B0C0ACEB8C0CACEB010CD2F8CC80F3
:101AD0000CFB08FC4FEAEC36D2F8CCC00CFB01FC46
:101AE0004FEAAC319C46C0F82CC0002905DDD0F887
:101AF0002CC00CF1010CC0F82CC0002D05DDD0F875
:101B00002CC00CF1020CC0F82CC0002E05DDD0F862
:101B10002CC00CF1040CC0F82CC0D0F82CC0BCF1C7
:101B2000070F17D2DFE80CF0160713040D0A100098
:101B30002B460C460FE06B4274420CE00B463446D9
:101B400009E04B426C4206E033462C4603E0734208
:101B50004C4200E000BF00BFD0F828C0BCF1000F2D
:101B600022D01F19D0E918C80CEB680CBC4501DA6B
:101B7000C76D04E0D0F860C0BC4500DA076ED0F84D
:101B800060C0A44500DA046E009701944FF0000C89
:101B9000CDF808C0D0F824C0BCF1010F36D14FF009
:101BA000000CC0F828C031E01F19D0F860C0BC4557
:101BB00009DAD0F860C00CFB03FC9CFBF7F3D0F80B
:101BC00060C0ACEB0304D0F85CC0ACEB030CACEB36
:101BD000040C4FEA6C0CCDF808C0DDF808C0A44432
:101BE000CDF804C0DDF804C09C44CDF800C0D0F8A6
:101BF00024C0BCF1010F09D140F69A18DDF808C0E5
:101C0000C44503DA4FF0010CC0F828C0DFF8448067
:101C1000D0F82CC018F80CC05DF82CC0C0F830C04B
:101C2000DFF830C00CF1080CD0F82C801CF808C08C
:101C30005DF82CC0C0F834C0DFF818C00CF1100CEF
:101C4000D0F82C801CF808C05DF82CC0C0F838C053
:101C5000BDE8FE816C0C002010B504460020C4F8DD
:101C6000D800C4F8DC004FF48041204601F014F99C
:101C7000002104F1300001F00FF9002104F16000AF
:101C800001F00AF9002104F1900001F064F910BD9F
:101C90002DE9F04704460D4616460027D6E9110106
:101CA000A0EB0108B946D5F8B800002803DAD5F84A
:101CB000B800404201E0D5F8B80081462868D4F861
:101CC000D0104843B0F5804F04DA2868D4F8D0101B
:101CD000484301E04FF4804010F5804F0EDD286846
:101CE000D4F8D0104843B0F5804F04DA2868D4F80F
:101CF000D010484303E04FF4804000E0684894214E
:101D0000085104F1900001F001F9D4F80001D5F870
:101D1000CC104843D4F80411B1EBA03F02DAD4F858
:101D2000040105E0D4F80001D5F8CC104843801335
:101D30002060D5F8D8006060204601F067F8494679
:101D400004F1E00001F0A7FAD4F8F8104843811339
:101D5000A163494604F1EC0001F09DFAD4F8FC10AF
:101D600048438113E163A4200059616A884202DA82
:101D7000A420005900E0606A2063D5F8B8106163C0
:101D800004F1300001F042F8676DD4F8A80020F0AB
:101D90000100401CC4F8A800B4200059D5F8D010A8
:101DA000814201D3012100E00021D4F8A80061F3B1
:101DB0004100C4F8A800C0200059D5F8D0108142D5
:101DC00001D8012100E0002154F8A80F61F382003E
:101DD0002060616AA83C04F1A800FEF757FFC4F830
:101DE000CC00D4F8CC0050B14FF480402066D5F838
:101DF000D010616604F1600001F008F836E00021BF
:101E000004F1600001F048F8B8F1000F03D10020A0
:101E1000C4F8D4002AE008FB07F189134943C9003C
:101E2000326D02FB021000F0C1FB316D401A0CD57F
:101E300008FB07F189134943C900326D02FB021008
:101E400000F0B4FB316D081A0BE008FB07F18913B1
:101E50004943C900326D02FB021000F0A7FB316D4F
:101E6000401A000390FBF8F0C4F8D4008420005915
:101E700054F8D41F0844606007FB07F16268D43C43
:101E800002FB121000F092FB002F02DA4FF0FF313C
:101E900000E001214843C4F8DC00BDE8F087000001
:101EA00000C0FFFFC26A072A29D2DFE802F0280A31
:101EB000220416101C00CA6B52420B6CD21A8A63A1
:101EC0001EE08A6B52420B6CD21ACA6318E08A6B0E
:101ED00052420B6CD21ACA6312E08A6B5242CB6B2D
:101EE000D21A0A640CE08A6B5242CB6BD21A0A6493
:101EF00006E0CA6B52420B6CD21A8A6300E000BF44
:101F000000BF704710B50446206820F00100206033
:101F1000206820F004002060206820F00800206085
:101F2000206820F010002060206820F04000206031
:101F3000206820F080002060206820F480702060FD
:101F4000206820F400702060206820F48050206019
:101F5000206820F400502060206820F48040206039
:101F6000206820F400402060206820F48020206059
:101F7000206820F400202060206820F48010206079
:101F8000206820F400102060206820F48000206089
:101F9000206820F480302060206820F40030206029
:101FA00004F15000FEF7D9FE04F17400FEF7D5FEEF
:101FB00004F19800FEF7D1FE04F1BC00FEF7CDFE5F
:101FC00004F59470FEF7C9FE04F5A670FEF7C5FE91
:101FD00004F5B870FEF7C1FE04F5CA70FEF7BDFE49
:101FE00004F5DC70FEF7B9FE04F5EE70FEF7B5FE01
:101FF00004F50070FEF7B1FE04F50970FEF7ADFEC2
:1020000004F51270FEF7A9FE04F51B70FEF7A5FE9D
:1020100004F52470FEF7A1FE10BD10B504464FF480
:102020001E7000596168814201D3012100E0002146
:10203000D4F86C0261F34100C4F86C022068C0F36C
:10204000004104F51B70FEF721FE4FF42770005984
:10205000A168814201D3012100E00021D4F890025F
:1020600061F34100C4F890022068C0F3404104F5D8
:102070002470FEF70BFE10BDD0F8B412491CC0F856
:10208000B412016821F00101491C0160704770B56C
:1020900004460D46E06A20F00100401CE0626168E1
:1020A000A06B814201D3012100E00021E06A61F3CD
:1020B0004100E0626168606C814201D8012100E06A
:1020C0000021E06A61F38200E0622078C0F34011F1
:1020D00004F12C00FEF7DAFD206D65F300002065A9
:1020E0006168E06D814201D8012100E00021206D8E
:1020F00061F3410020652078C0F3801104F15000A5
:10210000FEF7C4FD606F65F3000060678020005932
:10211000A168814201D3012100E00021606F61F3D9
:10212000410060672078C0F3C01104F17400FEF72D
:10213000ADFDD4F8980065F30000C4F89800A42021
:102140000059A168814201D3012100E00021D4F8A7
:10215000980061F34100C4F898002088C0F3002182
:1021600004F19800FEF792FDD4F8BC0065F300007E
:10217000C4F8BC00C8200059A168814201D30121E4
:1021800000E00021D4F8BC0061F34100C4F8BC00B9
:102190002088C0F3402104F1BC00FEF777FDD4F89D
:1021A000E00020F00100401CC4F8E000EC200059E1
:1021B000E168814201D8012100E00021D4F8E0006B
:1021C00061F34100C4F8E000F8200059E168814261
:1021D00001D3012100E00021D4F8E00061F3820086
:1021E000C4F8E0002088C0F3802104F1E000FEF78D
:1021F0004DFDD4F8040120F00100401CC4F8040196
:102200004FF488700059E168814201D3012100E058
:102210000021D4F8040161F34100C4F804014FF433
:102220008E700059E168814201D8012100E000214F
:10223000D4F8040161F38200C4F804012088C0F3DB
:10224000C02104F58270FEF721FDD4F8280165F362
:102250000000C4F828014FF49A70005921698142A6
:1022600001D3012100E00021D4F8280161F34100ED
:10227000C4F828012088C0F3003104F59470FEF7FB
:1022800005FDD4F84C0165F30000C4F84C014FF48F
:10229000AC7000592169814201D8012100E0002180
:1022A000D4F84C0161F34100C4F84C012088C0F31C
:1022B000403104F5A670FEF7E9FCD4F8700165F32F
:1022C0000000C4F870016169606848434FF4BE7152
:1022D0000959884201D3012100E00021D4F870019E
:1022E00061F34100C4F870012088C0F3803104F527
:1022F000B870FEF7CBFCD4F8940165F30000C4F885
:1023000094014FF4D07000596169814201D30121D9
:1023100000E00021D4F8940161F34100C4F8940175
:102320002088C0F3C03104F5CA70FEF7AFFCD4F8C2
:102330006C0220F00100401CC4F86C02D4F890023A
:1023400020F00100401CC4F8900270BD70B5044636
:102350000D46D4F8B80165F30000C4F8B8014FF495
:10236000E2700059E169814207D84FF4E8700059E2
:10237000A169814201D3012100E00021D4F8B80114
:1023800061F34100C4F8B8012068C0F3804104F54E
:10239000DC70FEF77BFCD4F8DC0165F30000C4F8C8
:1023A000DC014FF4F4700059216A814207D84FF4E0
:1023B000FA700059A169814201D3012100E0002196
:1023C000D4F8DC0161F34100C4F8DC012068C0F3FB
:1023D000C04104F5EE70FEF759FCD4F8000265F335
:1023E0000000C4F800024FF403700059616A814292
:1023F00007D84FF406700059A169814201D3012129
:1024000000E00021D4F8000261F34100C4F80002AA
:102410002068C0F3005104F50070FEF737FCD4F8D3
:10242000240265F30000C4F824024FF40C70005934
:10243000A169814207D34FF40F700059216981428D
:1024400001D8012100E00021D4F8240261F3410009
:10245000C4F824022068C0F3405104F50970FEF767
:1024600015FCD4F8480265F30000C4F848024FF4A4
:1024700015700059A16A814207D84FF418700059AD
:102480002169814201D3012100E00021D4F84802F2
:1024900061F34100C4F848022068C0F3805104F59C
:1024A0001270FEF7F3FB70BD0168491C01604268C1
:1024B000C1681144C16002690168914206D3027D7E
:1024C000C1681141816000210160C1607047000056
:1024D000044BDB6B0360034B1B6C0B60014B5B6CB1
:1024E0001360704700200140002009494863886359
:1024F000C8630846008C4AF6AA21084004490884AB
:10250000034844300088C0F30E00A1F8440070472F
:102510000000014010B503689A10C2F3090102F4EB
:1025200040634BB1B3F5806F12D0B3F5006F1CD090
:10253000B3F5406F34D126E01B4B33F91130836083
:1025400040F2FF335B1A184C34F91330436028E033
:1025500040F2FF335B1A144C34F913308360234686
:1025600033F911305B4243601BE00F4B33F91130FC
:102570005B42836040F2FF335B1A0B4C34F913303B
:102580005B4243600DE040F2FF335B1A064C34F9C6
:1025900013305B428360234633F91130436000E01F
:1025A00000BF00BF10BD00000E38000810B5014686
:1025B000002901DC002010BD0022B1F1805F03DDA5
:1025C000012000EBA13210E0B1F5801F03DD0120F6
:1025D00000EBA12209E0B1F5805F03DD012000EBF3
:1025E000A11202E0012000EB6102002004E091FB57
:1025F000F2F3D4186210401C0528F8DB1046DAE725
:1026000010B50446207900F0010010B104202070BC
:1026100003E0FFF769FF0020207010BD10B50446ED
:10262000207900F0010018B1FFF75EFF0020207054
:1026300010BD000010B50446D4F8280708B10020EA
:1026400060602078284A52F8201020468847D4F845
:102650009816E1602548806C810061624FF49C709F
:102660000159E163D4F8C0116165D4F8C411E16681
:10267000D4F8C811C4F88410D4F8CC11C4F89C1054
:102680004FF4B2610959494340F294521359125917
:1026900003FB0210FFF78AFFC4F8B40004F108003E
:1026A000FFF702FF04F12000FFF7FEFE04F13800FF
:1026B000FFF7FAFE04F15000FFF7F6FE04F16800A0
:1026C000FFF7F2FE04F18000FFF7EEFE04F1980040
:1026D000FFF7EAFE04F1B000FFF7E6FE04F5E5605F
:1026E000FFF79BFC10BD0000840C0020002001407F
:1026F00010B50446207900F0010010B103202070CD
:1027000003E0FFF7F1FE0020207010BD3EB5044647
:10271000207900F0010068B300BF002000906A46F5
:1027200001A902A8FFF7D4FE0298C4F8AC020198F0
:10273000C4F8B0020098C4F8B40200BF04F59A715E
:1027400004F52B70FFF73EF820B1012803D00228D2
:102750000ED103E00DE0022020700AE0D4F8280733
:1027600020F00400001DC4F828070020207000E0BD
:1027700000BF03E0FFF7B8FE002020703EBD10B59B
:102780000446207900F0010010B10520207003E01C
:10279000FFF7AAFE0020207010BD10B50446207976
:1027A00000F0010060B304F52B70FFF704F804F5A6
:1027B0009A70FFF72BF904F53770FEF7C9FB04F5A3
:1027C0004870FEF772FF04F56070FFF745FA04F5F4
:1027D0009160FEF7F1FB04F59E60FFF749F904F5FF
:1027E000AD60FEF7E6FC04F5B460FEF7D5FE04F23A
:1027F0006C60FEF7A1FD022060700120207014E0E3
:102800000021C4F898164FF49C700151C4F8C0110F
:10281000C4F8C411C4F8C811C4F8CC114FF4B260A4
:102820000151001D0151FFF75FFE10BD3EB5054689
:102830000C46002000906A4601A902A8FFF748FE56
:102840000298A0600198E06000982061A16860692A
:10285000401A8000A063E168A069401A8000E0632C
:102860002169E069401A8000206421462846FFF76C
:1028700019FB21462846FEF724FC3EBD2DE9F04118
:1028800004460D4616462846FEF769FF29462046AF
:10289000FFF7F2F82846FEF73BFF29462046FEF7F1
:1028A000C3FBE76ED6F85CC007FB0CF7FB13D4F84C
:1028B00030C0CCF5804CE76E07FB0CF7F813D4F86A
:1028C00034C0CCF5804CE76E07FB0CF7F913D4F855
:1028D00038C0CCF5804CE76E07FB0CF7FA13044FB9
:1028E000FB627863B963FA6300BFBDE8F081000062
:1028F0000000014070B50446207900F00100002876
:102900007ED004F59A7104F59E60FFF78FFF04F501
:102910009A70FEF746FB04F59A7104F5AD60FEF778
:1029200057FC04F59A7104F26C60FEF71EFD6078A6
:1029300070B904F53770FEF7DFFA4FF446700159AD
:102940004FF4C470015104F5C470FFF7E3FD62E079
:102950006078012844D140F2A460015940F2B4608B
:10296000005901444FF45470015194EDD40AB8EE6B
:10297000C00ADFED3D0AB4EEE00AF1EE10FA0BDB1F
:1029800094EDD40AB8EEC00ADFED370A30EE600AE3
:10299000BDEEC00A84EDD40A4FF4547000590028EB
:1029A0000BDA94EDD40AB8EEC00ADFED2F0A30EE50
:1029B000200ABDEEC00A84EDD40A04F5087204F5BD
:1029C0009A7104F54870FEF724FE4FF459700159CE
:1029D0004FF4C470015104F5C470FFF79BFD1AE079
:1029E0006078022817D104F59A7004F26C61D1E97D
:1029F0000F358A6B496CC0E916354265016600E007
:102A00002CE004F26C61D1E913358A6C496DC0E9A0
:102A10001A354266016704F59A70FFF700F804F56D
:102A20009A7104F59160FEF7D6FA04F5087204F580
:102A30009A7104F59E60FFF721FF00BF0B48008CE0
:102A400045F2555108430949088408484430008834
:102A500040F40040A1F8440000BF03E0FFF744FD4C
:102A60000620207070BD000000008046000001407C
:102A700010B50446FFF738FD04F5E560FFF7FCFAF2
:102A800010BD10B5044604F5087204F59A7104F1FE
:102A90000800FEF7DFFE04F5087104F5AD60FEF7EF
:102AA0007FFB04F5087204F59A7104F5B460FEF733
:102AB000DFFC04F5087204F59A7104F26C60FEF70D
:102AC000B7FB04F59A7104F59E60FEF77CFD4FF4A8
:102AD0009D610959494340F2EC421359125903FBD5
:102AE0000210FFF763FD4FF4E861085140F24470B3
:102AF000D4F8D0100151001DD4F8E4100151001D8C
:102B0000D4F8F8100151001DD4F8B810015140F26A
:102B10002C70D4F8F01101514FF4E9600159001DF7
:102B20000059814203DD4FF4E960005902E040F2B0
:102B30004C70005940F244710959884203DA40F25E
:102B4000447000590DE04FF4E9600159001D00592F
:102B5000814203DD4FF4E960005902E040F24C701D
:102B600000594FF4E6610851002140F234700151E0
:102B7000001DD4F8EC110151001DD4F80C120151C4
:102B80002078032804DB2078062801DC012000E0FF
:102B90000020014604F5E560FFF779FA2078032864
:102BA00004DB2078062801DC012000E0002001463B
:102BB00004F5E560FFF7CAFB2078052854D160785A
:102BC00098B904F53770FEF7D5F94FF445700159FF
:102BD0004FF49D6001510021001D01514FF44470DC
:102BE0000059012841D160703FE06078012826D16A
:102BF00004F59A7104F54870FEF76CFD4FF45770B8
:102C000001594FF49D6001514FF45870015940F241
:102C1000EC4001514FF456700059012825D104F5BC
:102C20008260D4F84C1300F096F94FF458700159B3
:102C300004F56C7000F030F90220607015E06078E7
:102C4000022812D104F5087204F59A7104F5607037
:102C5000FFF71EF84FF49D60D4F858140151001D81
:102C6000D4F85C14015100E000BF10BD10B504465B
:102C700004F5E560FFF746F910BD0146D1F82807D5
:102C8000704701464FF47A62D1F8EC01504380134B
:102C9000704701224B1C03B9921EC0F834217047C3
:102CA00000EE101AB8EEC00AF1EE000A20EE200A7B
:102CB0009FED091AC0EE010A9FED080A20EE800A76
:102CC000DFED070A80EE201ABDEEC10A00F5607242
:102CD00082ED340A70470000000070420000804618
:102CE000555585430121416070470021416070477F
:102CF00070B5002100230F22C4781CB3174C246840
:102D000004F4E064C4F5E064C4F30721C1F10404F1
:102D1000E3B20A4144789C40E1B2847814402143F4
:102D20000C07210E0E4C05786155047804F01F0540
:102D30000124AC4005786D11AD0005F1E025C5F822
:102D4000004109E0047804F01F050124AC40054D62
:102D50000678761145F8264070BD00000CED00E0C5
:102D600000E400E080E100E002490143024A116012
:102D7000704700000000FA050CED00E0D0E90023E8
:102D8000D11AC368826903FB01228261036A8269E6
:102D9000B2EB833F01DA826901E0026A9203436A7F
:102DA000B2EB833F09DD036A8269B2EB833F01DA4C
:102DB000826904E0026A920301E0426A920382613E
:102DC00082699213426182684A43436903EBA232EB
:102DD000C261D0E907239A4201DAC26900E0026ABF
:102DE000436A9A4207DDD0E907239A4201DAC269B1
:102DF00002E0026A00E0426AC2617047002202609B
:102E0000426041618A038261C161704730B5D0E997
:102E100000341A1B0021C3685343056A446904FB4C
:102E20001533C4692344C361846AC369B3EB843F27
:102E300001DAC36901E0836A9B03C46AB3EB843F90
:102E400009DD846AC369B3EB843F01DAC36904E036
:102E5000836A9B0301E0C36A9B03C361C3699B133D
:102E6000836183685343846904EBA331836A8B4293
:102E700001DD0B4600E0836AC46AA34206DD836A73
:102E80008B4201DD0B4602E0836A00E0C36A4362C5
:102E9000436ACB1A036230BD002202604260816146
:102EA0008A03C261002202624162704729B1064A68
:102EB00012680243044B1A6004E0034A126882431A
:102EC000014B1A60704700003038024029B1064AB1
:102ED00012680243044B1A6004E0034A12688243FA
:102EE000014B1A60704700004038024029B1064A81
:102EF00012680243044B1A6004E0034A12688243DA
:102F0000014B1A6070470000443802404268910348
:102F100002698A420BDA836802691A448A4204DA37
:102F2000836802691A44026111E001610FE00269DD
:102F30008A420BDDD0E903321A448A4204DDD0E92B
:102F400003321A44026102E0016100E0016102699A
:102F50009213426170478A03026141617047000029
:102F60000CB50020019000903348006840F4803098
:102F70003149086000BF3048006800F4003000901C
:102F80000198401C0190009818B90198B0F5A04F25
:102F9000F1D12948006800F4003010B10120009000
:102FA00001E0002000900098012844D122484030E0
:102FB000006840F080502049403108601F48006898
:102FC00040F440401D4908601B48083000681A4919
:102FD000083108600846006808600846006840F448
:102FE000A05008601648091F0860081F006840F0DC
:102FF0008070091F086000BF0F48006800F0007073
:103000000028F9D040F205700E4908600A480830DF
:10301000006820F00300084908310860084600688D
:1030200040F00200086000BF03480830006800F06C
:103030000C000828F8D10CBD003802400070004098
:1030400008544007003C024030B51349481EB0F117
:10305000807F01D301201BE0481E4FF0E022506129
:1030600050170F22002807DA13071D0E0B4B00F034
:103070000F04241F1D5503E013071C0E084B1C549E
:1030800000BF00204FF0E022906107201061002077
:1030900008B100BFFEE730BD4090020018ED00E02F
:1030A00000E400E010B5054800F0DDF8034800F04A
:1030B0005DF80348FFF7E5FC10BD0000CC0C0020D4
:1030C0000800002010B51548006840F4700013494E
:1030D00008601348006840F00100114908600020B2
:1030E0000F49083108600E4800680E4908400C4935
:1030F00008600D48091D0860081F006820F4802042
:10310000091F0860002006490C310860FFF728FFFE
:103110004FF0006001498039086010BD88ED00E083
:1031200000380240FFFFF6FE1030002410B50446C0
:10313000207900F0010048B121460548FDF776FDF1
:1031400000BF00BF606820F00100606010BD00009B
:10315000A00C002070B50446002540F6FF75E56020
:1031600004F10C00FDF7B7FE70BD000010B5044679
:103170002046FFF7EFFF4FF47A61E06A484380137F
:1031800020633248FFF77DFD606301212F48FFF780
:1031900080FD2E48216BFFF783FD2C48FFF76DFD66
:1031A00020B1A06820F00100401CA060607830B120
:1031B000012819D0022823D0032839D12CE0E06B54
:1031C000401CE063D4E90E1088420CD34FF47A61BE
:1031D000E06A4843801320630020E063204600F04B
:1031E00037F80120607024E0A06810B103206070FF
:1031F00005E02079C0F3400008B10220607018E0BB
:10320000A06810B10320607005E02079C0F3400091
:1032100008B9012060700CE02079C0F3400030B99B
:103220000020A0600948FFF721FD0120607000E048
:1032300000BF00BF6078022803D10448FFF752FDA9
:1032400002E00248FFF751FD10BD00000800002019
:1032500070B50446002540F6FF75294604F10C00C0
:10326000FDF745FE70BD0178491C017001780A29FF
:1032700010D300210170017901F0010129B94168E1
:1032800021F00101491C416004E0816821F0020144
:10329000891C816070472DE9FC5F04460E46A068DA
:1032A00010B90020BDE8FC9FA068012802D1606829
:1032B0000068F7E720680068B04202DB60680068D9
:1032C000F0E7A068401E216851F82000B04205DCFC
:1032D000D4E90110401E51F82000E3E73246A1680E
:1032E000206800F06CF80546216851F82570681CCC
:1032F000216851F82090616851F82580616851F883
:1033000020000190B94501D14046CBE7F01B01995F
:10331000A1EB080100FB01FAA9EB070B9AFBFBF0FC
:10332000009000984044BDE72DE9F0478EB0044678
:103330000E4617463246E168206800F040F88246A3
:103340003A462169606800F03AF8054620680B901B
:10335000D4E90210684301EB80000C90E0680D9006
:1033600020680890691CD4E90220484302EB8000E1
:103370000990E0680A9031460BA8FFF78CFF804661
:10338000314608A8FFF787FF8146606850F825009E
:103390000690681C616851F820000790CDF81080F5
:1033A000CDF8149006A8019004A802900220039082
:1033B000394601A8FFF76FFF0EB0BDE8F08770B582
:1033C00003461868904201DB002070BD481E53F888
:1033D0002000904201DC881EF7E700244D1E10E01B
:1033E0006619700853F82060964201DD451E07E01B
:1033F000461C53F82660964201DA441C00E0E4E7DC
:1034000000BFAC42ECD90020DFE7000010B58021FE
:103410000D4800F044F800BF00200B494863886362
:10342000C8630846008C4AF6AA2108400649088469
:10343000054844300088C0F30E00A1F8440000BFE6
:103440000248FFF715FB10BD0000014008000020F6
:1034500010B50121880700F043F818B10121880751
:1034600000F01DF810BD21B1028842F080020280F8
:1034700004E002884FF67F731A40028070470A8882
:103480004B881A438B881A43CB881A430B891A43FB
:103490004B891A438B891A43A0F844207047CA43CA
:1034A00002827047CA430282704721B1028842F00B
:1034B0000102028004E002884FF6FE731A40028087
:1034C000704731B1B0F8442042F40042A0F84420E3
:1034D00005E0B0F84420C2F30E02A0F84420704783
:1034E00002460020138A0B400BB1012000E00020AF
:1034F00070471AB183890B43838102E083898B4330
:103500008381704770B5002400220023058C4FF69C
:10351000FE7635400584028C8388048B4FF68F75C8
:103520002C40B51E2C400D882C43751E2A408D89D9
:103530002A434D882A43104DA84202D00F4DA8427D
:1035400013D14FF6F7752A40CD892A434FF6FB7504
:103550002A408D882A434FF6FF652B404FF6FF55D2
:103560002B400D8A2B434D8A2B43838004838D6827
:103570004563028470BD000000000140000401406A
:1035800070B5002400220023058C4FF6EF763540FD
:103590000584028C8388048B48F6FF752C404FF617
:1035A000FF452C400D884FF6FF7606EA05252C4393
:1035B0004FF6DF752A408D8906EA05152A434D88A6
:1035C00006EA05152A43154DA84202D0144DA8421B
:1035D0001DD14FF67F752A40CD894FF6FF7606EA5A
:1035E00005152A434FF6BF752A408D8806EA051552
:1035F0002A434FF6FF352B404FF2FF752B400D8AC3
:1036000006EA85052B434D8A06EA85052B43838010
:1036100004838D688563028470BD00000000014052
:103620000004014070B5002400220023058C4FF6F1
:10363000FF6635400584028C8388848B4FF68F7536
:103640002C404FF6FC752C400D882C434FF6FF554F
:103650002A408D894FF6FF7606EA05252A434D88D4
:1036600006EA05252A43154DA84202D0144DA8426A
:103670001DD14FF2FF752A40CD894FF6FF7606EA3D
:1036800005252A434FF6FF352A408D8806EA052591
:103690002A434EF6FF752B404DF6FF752B400D8AE1
:1036A00006EA05152B434D8A06EA05152B43838050
:1036B00084838D68C563028470BD000000000140F2
:1036C0000004014070B5002200230024058C4EF652
:1036D000FF7635400584038C8488828B48F6FF751D
:1036E0002A404FF6FF452A400D884FF6FF7606EA3E
:1036F00005252A434DF6FF752B408D8906EA0535D1
:103700002B434D8806EA05352B430A4DA84202D0CB
:10371000094DA84208D14BF6FF752C400D8A4FF693
:10372000FF7606EA85152C43848082838D680564C4
:10373000038470BD000001400004014082884FF600
:103740008F731A40828082880A438280704700000B
:1037500000220288184B98420ED0184B98420BD08A
:10376000B0F1804F08D0164B984205D0154B9842C7
:1037700002D0154B984204D14FF68F731A404B88F4
:103780001A43124B984207D0114B984204D04FF67F
:10379000FF431A400B891A4302804B68C3620B88AF
:1037A0000385054B984202D0044B984201D18B7A95
:1037B000038601238382704700000140000401401A
:1037C0000004004000080040000C004000100040D1
:1037D0000014004072B6FCF769FFFCF7D5FFFCF758
:1037E000A1FFFCF7FFFEFDF795F9FDF707FAFDF7DE
:1037F00057F962B600BF0248FFF798FCFBE70000EC
:10380000CC0C00204FF04070E1EE100A7047000031
:10381000190032004B0064007D009600AF00C90023
:10382000E200FB0014012D0146015F0178019201C5
:10383000AB01C401DD01F6010F02280241025B0267
:1038400074028D02A602BF02D802F1020A0323030A
:103850003D0356036F038803A103BA03D303EC03AC
:1038600005041E04370451046A0483049C04B5044F
:10387000CE04E7040005190532054B0564057D05F6
:103880009605AF05C805E105FA0513062C064506A1
:103890005E0677069006A906C206DB06F4060D074B
:1038A00026073F07580771078A07A307BC07D507F4
:1038B000EE0707082008390852086B0884089C089E
:1038C000B508CE08E7080009190932094B0964094F
:1038D0007C099509AE09C709E009F909110A2A0A04
:1038E000430A5C0A750A8D0AA60ABF0AD80AF10AB9
:1038F000090B220B3B0B540B6C0B850B9E0BB60B71
:10390000CF0BE80B010C190C320C4B0C630C7C0C2C
:10391000950CAD0CC60CDE0CF70C100D280D410DEE
:10392000590D720D8B0DA30DBC0DD40DED0D050EB3
:103930001E0E360E4F0E670E800E980EB10EC90E7B
:10394000E20EFA0E120F2B0F430F5C0F740F8C0F49
:10395000A50FBD0FD60FEE0F06101F1037104F101A
:10396000681080109810B010C910E110F9101111F2
:103970002A1142115A1172118A11A211BB11D311CD
:10398000EB1103121B1233124B1263127B129412AF
:10399000AC12C412DC12F4120C1324133C13541393
:1039A0006C1383139B13B313CB13E313FB13131485
:1039B0002B1443145A1472148A14A214BA14D11476
:1039C000E9140115191530154815601577158F156F
:1039D000A715BE15D615EE1505161D1634164C1670
:1039E00064167B169316AA16C216D916F116081776
:1039F0001F1737174E1766177D179417AC17C31785
:103A0000DA17F2170918201838184F1866187D1899
:103A10009518AC18C318DA18F118081920193719B5
:103A20004E1965197C199319AA19C119D819EF19DA
:103A3000061A1D1A341A4B1A621A791A8F1AA61A04
:103A4000BD1AD41AEB1A021B181B2F1B461B5D1B39
:103A5000731B8A1BA11BB71BCE1BE51BFB1B121C78
:103A6000281C3F1C551C6C1C831C991CAF1CC61CBD
:103A7000DC1CF31C091D201D361D4C1D631D791D0A
:103A80008F1DA61DBC1DD21DE81DFE1D151E2B1E63
:103A9000411E571E6D1E831E991EB01EC61EDC1EC3
:103AA000F21E081F1E1F341F491F5F1F751F8B1F2B
:103AB000A11FB71FCD1FE21FF81F0E2024203920A1
:103AC0004F2065207B209020A620BB20D120E7201E
:103AD000FC20122127213D21522168217D219221A4
:103AE000A821BD21D221E821FD21122228223D2238
:103AF000522267227D229222A722BC22D122E622D4
:103B0000FB22102325233A234F23642379238E237A
:103B1000A323B823CD23E123F6230B24202434242C
:103B200049245E24732487249C24B024C524DA24E9
:103B3000EE24032517252C254025542569257D25B0
:103B40009225A625BA25CF25E325F7250B261F2686
:103B5000342648265C26702684269826AC26C02665
:103B6000D426E826FC261027242738274C275F2751
:103B7000732787279B27AF27C227D627EA27FD274A
:103B80001128242838284B285F287228862899284D
:103B9000AD28C028D428E728FA280E29212934295D
:103BA00047295A296E2981299429A729BA29CD297B
:103BB000E029F329062A192A2C2A3F2A522A652AA3
:103BC000772A8A2A9D2AB02AC22AD52AE82AFA2ADE
:103BD0000D2B202B322B452B572B6A2B7C2B8E2B1E
:103BE000A12BB32BC62BD82BEA2BFC2B0F2C212C73
:103BF000332C452C572C6A2C7C2C8E2CA02CB22CD0
:103C0000C42CD62CE82CF92C0B2D1D2D2F2D412D3D
:103C1000522D642D762D882D992DAB2DBC2DCE2DBA
:103C2000E02DF12D032E142E252E372E482E5A2E40
:103C30006B2E7C2E8D2E9F2EB02EC12ED22EE32EDB
:103C4000F42E052F162F282F382F492F5A2F6B2F80
:103C50007C2F8D2F9E2FAF2FBF2FD02FE12FF12F35
:103C600002301330233034304430553065307630F4
:103C700086309630A730B730C730D830E830F830CB
:103C800008311831283138314931593169317931A8
:103C900088319831A831B831C831D831E731F7319E
:103CA0000732163226323632453255326432743299
:103CB00083329332A232B132C132D032DF32EE32AD
:103CC000FE320D331C332B333A33493358336733C9
:103CD000763385339433A333B233C133CF33DE33FA
:103CE000ED33FB330A341934273436344434533437
:103CF000613470347E348C349B34A934B734C63488
:103D0000D434E234F034FE340C351A3528353635E7
:103D10004435523560356E357C3589359735A53556
:103D2000B335C035CE35DC35E935F73504361236D6
:103D30001F362C363A364736543662366F367C3666
:103D400089369636A436B136BE36CB36D836E53609
:103D5000F136FE360B371837253731373E374B37BC
:103D60005737643771377D378A379637A337AF3780
:103D7000BB37C837D437E037ED37F9370538113856
:103D80001D382938353841384D385938653871383B
:103D90007D3889389438A038AC38B738C338CF3834
:103DA000DA38E638F138FD38083913391F392A393D
:103DB000353941394C39573962396D397839833958
:103DC0008E399939A439AF39BA39C539D039DA3988
:103DD000E539F039FB39053A103A1A3A253A2F3AC3
:103DE0003A3A443A4F3A593A633A6D3A783A823A13
:103DF0008C3A963AA03AAA3AB43ABE3AC83AD23A7B
:103E0000DC3AE63AF03AFA3A033B0D3B173B203BEB
:103E10002A3B343B3D3B473B503B593B633B6C3B70
:103E2000753B7F3B883B913B9A3BA33BAD3BB63B0D
:103E3000BF3BC83BD13BDA3BE23BEB3BF43BFD3BBA
:103E4000063C0E3C173C203C283C313C393C423C73
:103E50004A3C533C5B3C633C6C3C743C7C3C843C47
:103E60008C3C953C9D3CA53CAD3CB53CBD3CC53C2B
:103E7000CC3CD43CDC3CE43CEC3CF33CFB3C023D25
:103E80000A3D123D193D213D283D2F3D373D3E3D28
:103E9000453D4D3D543D5B3D623D693D703D773D47
:103EA0007E3D853D8C3D933D9A3DA13DA73DAE3D78
:103EB000B53DBB3DC23DC93DCF3DD63DDC3DE23DBC
:103EC000E93DEF3DF53DFC3D023E083E0E3E143E11
:103ED0001B3E213E273E2D3E333E383E3E3E443E75
:103EE0004A3E503E553E5B3E613E663E6C3E713EF4
:103EF000773E7C3E823E873E8C3E923E973E9C3E85
:103F0000A13EA73EAC3EB13EB63EBB3EC03EC53E26
:103F1000CA3ECE3ED33ED83EDD3EE13EE63EEB3EDF
:103F2000EF3EF43EF83EFD3E013F063F0A3F0E3FA6
:103F3000133F173F1B3F1F3F233F273F2B3F2F3F81
:103F4000333F373F3B3F3F3F433F473F4A3F4E3F73
:103F5000523F553F593F5D3F603F643F673F6A3F77
:103F60006E3F713F743F783F7B3F7E3F813F843F90
:103F7000873F8A3F8D3F903F933F963F993F9C3FBD
:103F80009E3FA13FA43FA63FA93FAC3FAE3FB13FFC
:103F9000B33FB53FB83FBA3FBC3FBF3FC13FC33F50
:103FA000C53FC73FC93FCB3FCD3FCF3FD13FD33FB9
:103FB000D53FD73FD83FDA3FDC3FDE3FDF3FE13F31
:103FC000E23FE43FE53FE73FE83FE93FEB3FEC3FBF
:103FD000ED3FEE3FEF3FF03FF13FF23FF33FF43F65
:103FE000F53FF63FF73FF83FF93FF93FFA3FFB3F18
:103FF000FB3FFC3FFC3FFD3FFD3FFE3FFE3FFE3FE2
:10400000FF3FFF3FFF3FFF3FFF3FFF3FFF3F0000FE
:1040100030400008000000200C0D0000C401000822
:10402000804200080C0D0020F40700002002000868
:10403000012032100ABD041809361402170A0916A5
:104040001801D023AA2A33A340B201291024C0FFAB
:10405000FFE5A00F803E23330772648B99090C01A2
:104060002423FD0B2313021A4D041A30041ACF74B3
:104070001A110413140A1420540B3320052970E973
:104080007401181BD006AB193572141A5354031659
:10409000A6BE031EE2A6A3E803144C7D01C5F0EC06
:1040A000FFFF23CC04032AA9131AA2EC1AA7341A7F
:1040B00029E01A905C69A4415AA304690C011122F9
:1040C000401A66DC0114091230239E128B62EDB097
:1040D000091F60418AF83023A44E8B5CB110AA08F6
:1040E000F8223C726423993923D00702170A13EC93
:1040F0000914203C0A2A2020290C5A640C29A05AB1
:104100003FD83904711B482954091EA8B1092E3023
:10411000A9C8118A30C8114A200C0916C8012519EE
:10412000C823ED3C231203230C021A049C01140A39
:104130001D2810012D2A8004C3FFFF1A338001516E
:1041400019DC1122B023D70113EC091420A40B337E
:10415000200A290C9A7C0C9ACC0C13140A4C200CC3
:104160000D100A7905CC232A0D230E904B7A09985D
:104170009AF4A48B1C0C0C9A440C29BC0A2AD4BCBB
:10418000011723B81572644B2B140CF2018BC10775
:1041900024812924B2080B10175D24CBE803244B9B
:1041A000745114C12934A92423D145E3102729E4EB
:1041B000E95869484BB0040CE9B41AD0B469245AE0
:1041C000080CE92411FB900190E924195F091324DC
:1041D000A9B4ED30DB89022429B4E9D8091E2423CF
:1041E000A20B5AF4812930095A242918692429E498
:1041F0000912247CF0C14B240A15C62423D318F2DB
:1042000005E9240B145D74244172031A33092366F3
:10421000061BCC0C0C2213339A191A20141A2610E0
:1042200032334A401C2918091E142948694C091ABE
:1042300050297409227809DB04011409DEF4E90429
:1042400022011B02020511140201012A02072A029F
:1042500014139B271B080D0413F1261B0801041AD5
:104260007F0C13F5281B081D0C3264323223D80E44
:1042700042C82948012F0B1CD0071063E803000037
:040000050800018965
:00000001FF
