:020000040800F2
:10000000B0240020B9020008D7480008E9400008E1
:10001000D5480008AD0500085B710008000000002D
:100020000000000000000000000000003D4F00083C
:10003000AD060008000000006F4C0008494F0008A2
:10004000D3020008D3020008D3020008D30200083C
:10005000D3020008D3020008D3020008D30200082C
:10006000D3020008D3020008D302000825060008C6
:10007000310600083D060008D3020008D30200083C
:10008000D3020008D3020008CD040008D302000800
:10009000ED700008B5060008C1060008D30200088C
:1000A000D3020008D3020008D3020008D3020008DC
:1000B000D3020008D3020008D3020008D3020008CC
:1000C000D3020008D3020008D3020008D3020008BC
:1000D000D3020008D3020008D3020008D3020008AC
:1000E000D3020008D3020008D3020008D30200089C
:1000F000D3020008D3020008D3020008D30200088C
:10010000D3020008D3020008D3020008D30200087B
:10011000D3020008D3020008D3020008D30200086B
:10012000D3020008D3020008D3020008D30200085B
:10013000D3020008D3020008D3020008D30200084B
:10014000D3020008D3020008D3020008D30200083B
:10015000D3020008D3020008D3020008D30200082B
:10016000D3020008D3020008D3020008D30200081B
:10017000D3020008D3020008D3020008D30200080B
:10018000D3020008D3020008D3020008D3020008FB
:10019000D302000800000000D3020008D3020008C8
:1001A000D3020008D3020008D3020008D3020008DB
:1001B000D3020008D3020008D3020008D3020008CB
:1001C000D3020008D3020008D3020008D3020008BB
:1001D000D3020008D302000800F002F800F05CF837
:1001E0000AA090E8000C82448344AAF10107DA4592
:1001F00001D100F051F8AFF2090EBAE80F0013F088
:10020000010F18BFFB1A43F001031847F87D0000E7
:10021000187E00000A444FF0000C10F8013B13F068
:10022000070408BF10F8014B1D1108BF10F8015B4F
:10023000641E05D010F8016B641E01F8016BF9D142
:1002400013F0080F1EBF10F8014BAD1C0C1B09D199
:100250006D1E58BF01F801CBFAD505E014F8016B0B
:1002600001F8016B6D1EF9D59142D6D3704700009D
:100270000023002400250026103A28BF78C1FBD8AF
:10028000520728BF30C148BF0B6070471FB507F049
:1002900083FE1FBD10B510BD00F0E2F81146FFF758
:1002A000F5FF07F0B3FB00F000F903B4FFF7F2FF2E
:1002B00003BC00F003F900000948804709480047E3
:1002C000FEE7FEE7FEE7FEE7FEE7FEE7FEE7FEE706
:1002D000FEE7FEE704480549054A064B7047000063
:1002E000B94F0008D9010008B01E0020B02400203A
:1002F000B0200020B020002053EA020C00F06980FA
:100300002DE9F04B4FF00006002B1FBFB3FA83F529
:1003100003FA05F424FA05F65E4012BF1643B2FA5A
:1003200082F502FA05F4C5F120051EBF22FA05FC8C
:1003300044EA0C04203556EA044C4FEA144418BF32
:10034000641C4FF000084FF00009904271EB030C61
:1003500039D3002919BFB1FA81F701FA07F6B0FACB
:1003600080F700FA07F6C7F120071EBF20FA07FC46
:1003700046EA0C062037B6FBF4FCA7EB0507103F56
:1003800007F01F0BCBF120060CFA0BFB2CFA06F63C
:1003900044BFB3460026202FA4BF5E464FF0000B9B
:1003A0005BEA060C08BF4FF0010B19EB0B09ABFB26
:1003B000027C48EB0608C01B06FB02CC0BFB03CCFF
:1003C00071EB0C01C1E70B46024641464846BDE8C9
:1003D000F08B13B54FF000004FF00001AFF3008039
:1003E000BDE81C4070474FF0000200B5134694462C
:1003F0009646203922BFA0E80C50A0E80C50B1F17D
:100400002001BFF4F7AF090728BFA0E80C5048BF90
:100410000CC05DF804EB890028BF40F8042B08BF2E
:10042000704748BF20F8022B11F0804F18BF00F82A
:10043000012B704770477047704710B500F008F8FF
:10044000006810BD10B5044600F002F8046010BD4D
:10045000004870474C1E0020004870474C1E00208A
:100460007546FFF7F9FFAE4605006946534620F092
:100470000700854618B020B5FFF72CFFBDE82040E7
:100480004FF000064FF000074FF000084FF0000B50
:1004900021F00701AC46ACE8C009ACE8C009ACE803
:1004A000C009ACE8C0098D46704710B50446AFF3EB
:1004B00000802046BDE81040FFF7F7BE0149182034
:1004C000ABBEFEE7260002007047000010B50448EE
:1004D00000F074FDBDE81040024800F06FBD000060
:1004E000B801002024020020F8B504460020009046
:1004F0002068816811F0010F4AD18168254A1142B4
:1005000037D18168D5432940491C81602068B0F10A
:10051000A04F02D02049884201D1204800E0204865
:10052000806800F0E07000020DD51E481E4900688A
:10053000B0FBF1F0401C00EB4000800000E0401EEA
:1005400000900028FBD101F039FC06461BE08168D1
:1005500011F0010F03D181682940491C816001F02D
:100560002DFC801B02280ED920680068C043C007FC
:1005700009D0E06D40F01000E065206E40F0010011
:1005800020660120F8BD20680168C943C907DED193
:100590000020F8BD3F000080000100500003005023
:1005A0000007005078000020400D0300FEE7002007
:1005B000704700207047000010B50022044905482C
:1005C00005F0A5FB0449034805F098FB002010BD89
:1005D00064140020940B00206410002010B5014624
:1005E000034805F08BFB024805F050FB002010BDCE
:1005F000940B002000207047094A10B5D2F8BC22A5
:10060000D2F814220AB1012010BD0A46014604485E
:1006100005F07DFBBDE81040014805F0E2BB00009D
:10062000940B0020014800F0B5BF00003806002000
:10063000014800F0AFBF0000B8020020014800F000
:10064000A9BF0000180300200D4902688A4201D2A8
:100650000C4901E00B492031D2B21423083AB2FB15
:10066000F3F2436C02F01F0223F003031944816488
:1006700004498031C1640121914001657047000047
:1006800008040240000802400179074A02EB810297
:100690004265054A4432491E826501F01F0201216C
:1006A0009140C16570470000FC080240704772B677
:1006B000FEE70000014801F040B80000940300206C
:1006C000014801F03AB80000940300207047000090
:1006D0002DE9F84F4FF000090446CDF800900D4683
:1006E00094F85820DFF8EC8361694F464846012AA8
:1006F0000AD00126F84A84F8586041B1296A0129D4
:1007000005D0A36EEBB129E00220BDE8F88F686840
:10071000092838D1A96A4FF4785041B12B6801F00B
:100720007C0100EA53400843E96A084302E0296873
:1007300000EA51402368D96C11400143D9646066D6
:1007400021E0C4E91971A96A286A31B101F07C017C
:10075000401E0843E96A084300E0401E29682B79DF
:10076000C1F3846103F01F0399400143A06E401E52
:10077000A066636E43EA0103636604D12168C86C16
:1007800010401843C864206803F0D6FC58B995F8A7
:10079000250098B12068C16895F8262021F4401101
:1007A00041EA4251C160206803F0CEFC82462068D5
:1007B00003F0C2FC5AEA00000DD0FCE095F82600D8
:1007C00095F82410400540EA01512068C26822F4DF
:1007D00040121143E6E7A86A30B1E86A20B195F803
:1007E000250001285ED003E095F82500012804D0FB
:1007F0002068C16821F0007103E02068C16841F001
:100800000071C16095F83000012852D0206801695C
:1008100021F002010161AA6829682068B2F1004F45
:1008200038D003F09DFC2068416921F0004141610E
:1008300020686969C268C2F3C102520091402A6906
:10084000042A45D000EB82002B68026EDFF88CC2D0
:1008500003F0F84302EA0C020B431A4342F0004152
:10086000016620682A69A96900EB8200026E22F005
:1008700080720A430266297F22682869012924D0F0
:100880005FF0000102EB8000026E22F000720A436A
:10089000026690E0002203F063FC2068416941F0A9
:1008A0000041C4E7E06D40F02000E0654FF0010931
:1008B000A8E7D5E90D01084321680A6922F4FF720F
:1008C00042F0020210430861A5E74FF00071D9E73A
:1008D000002103F027FC400320684FF0000172D094
:1008E00003F020FC90FAA0F0B0FA80F128684203EF
:1008F0006ED090FAA0F0B0FA80F0814204D10022CC
:100900001146206803F03BFC0121206803F00AFC3B
:10091000400320684FF001015DD003F003FC90FA22
:10092000A0F0B0FA80F12868420359D090FAA0F004
:10093000B0FA80F0814204D100220121206803F046
:100940001EFC0221206803F0EDFB400320684FF0FD
:10095000020148D003F0E6FB90FAA0F0B0FA80F173
:100960002868420344D090FAA0F0B0FA80F08142A7
:1009700004D100220221206803F001FC0321206839
:1009800003F0D0FB400320684FF0030133D003F0A5
:10099000C9FB90FAA0F0B0FA80F1286842032FD08A
:1009A00090FAA0F0B0FA80F0814204D10022032135
:1009B000206803F0E4FB2068816811F0010F22D069
:1009C000B5E000E004E003F0ADFBC0F384618DE727
:1009D000C0F3846091E703F0A5FBC0F38461A2E754
:1009E000C0F38460A6E703F09DFBC0F38461B7E722
:1009F000C0F38460BBE703F095FBC0F38461CCE7F0
:100A0000C0F38460D0E72A7B296850F8B03FC1F377
:100A1000120C23EA0C0302F0180C314A22FA0CF2F1
:100A20000A4013430360E96841457DD128684103CA
:100A30001BD090FAA0F1B1FA81F1491C01F01F011D
:100A400009294FEA403131D8002911D090FAA0F19C
:100A5000B1FA81F101F1010101F01F0106FA01F67D
:100A600009D100BFC0F3846109E0C0F38461E4E709
:100A7000C0F38461EEE790FAA0F1B1FA81F101F1DF
:100A8000010101F01F0146EA816102D1C0F38460D7
:100A900003E090FAA0F0B0FA80F000F1010000F05D
:100AA0001F0000EB400041EA00513AE000290ED05F
:100AB00090FAA0F1B1FA81F101F1010101F01F01F9
:100AC00006FA01F60ED100BFC0F384610EE0C0F358
:100AD0008461F1E700007F400040100400F0FF0354
:100AE000FFFF070090FAA0F1B1FA81F101F10101D5
:100AF00001F01F0146EA816102D1C0F3846003E086
:100B000090FAA0F0B0FA80F000F1010000F01F00B0
:100B10003A4A00EB400002EB005041EA000141F08C
:100B20000071AA68206800E001E003F019FB344876
:100B30002B6803425ED022684FF0A04C3148324E01
:100B4000324D624501D0AA4201D1014600E0314652
:100B50008968DFF8BC8001F0E071434503D0DFF81D
:100B6000B480434520D15FEA01281DD4624505D0F9
:100B7000294B9A423ED1AA4200D0304641F40001AE
:100B8000826822F0E0720A438260244824490068A7
:100B9000B0FBF1F0801C00EB4000800000E0401E44
:100BA00000900028FBD125E0DFF8788043450FD185
:100BB0005FEAC1180CD4AA4202D11B4B9A4219D049
:100BC000624502D0AA4200D0304641F080710CE06C
:100BD000DFF8588043450DD14B020BD4AA4209D00F
:100BE000624500D0304641F48001826822F0E07214
:100BF0000A43826084F85870484686E5000020FE6B
:100C00000000088000030050000700500001005061
:100C1000000021C31000C0900006005078000020A2
:100C2000400D0300000052C700050050000084CBB7
:100C300070B52B4D0020286028682A4C4FF0A04149
:100C40002060D1F8880083B227480380D1F884203F
:100C500092B2428051F8806FB6B28680D1F800110E
:100C6000DFED220A89B200EE101AC1802049B8EEE9
:100C7000400A20EE200A81ED000A00EE103AD0ED85
:100C8000030AB8EE400A70EE600A9FED1A0A60EEA1
:100C9000800AC1ED050A00EE902A90ED041AF8EEE4
:100CA000600A70EEC10A60EE800AC1ED060A00EE2D
:100CB000906A90ED051AF8EE600A70EEC10A20EE17
:100CC000800A81ED070A06F0DDFE28686060216871
:100CD000401AA060E168884200DDE06070BD00005D
:100CE00024040040900100201C1A00206740533C5F
:100CF000981900204108043C704700002DE9F0419C
:100D0000044600684FF0A0454C4FA84201D0B842BD
:100D100001D14B4900E04B49896801F01F0603F0FF
:100D20000BFA08BB2168C868C96C00F0004011F4D8
:100D3000C07F00D190B194F85800012814D0012050
:100D400084F858002046FFF7CFFB01004FF0000267
:100D50000CD084F858200846BDE8F081E06D40F0E2
:100D60002000E0650120F7E70220F5E7E06DC0050F
:100D700004D5206E20F00800206600E02266E06DB9
:100D800042F20103984340F48050E06520682E4B06
:100D9000DFF8B8C0B84201D1AE4604E0984201D1B4
:100DA000E64600E08646864500D02EB9D4F85CE0E1
:100DB0002EF4801EC4F85CE04FF0600EC0F800E036
:100DC00084F858202068C268920203D5426842F431
:100DD00080624260A06908282068426807D022F03B
:100DE000400242602068426842F0200206E022F0A1
:100DF000200242602068426842F04002426020685F
:100E0000B84204D0984201D1654600E005468542CB
:100E100009D046B1062E06D0072E04D0E06D40F46E
:100E20008010E06597E7C26812F0007F93D1826876
:100E3000074B1A4042F0080282608CE70001005024
:100E4000000300500007005000050050000400504F
:100E5000C0FFFF7F704770472DE9F04F044690F8C0
:100E600058009BB00F464FF0000B012812D0012014
:100E700084F8580000261796189620684FF0A0486E
:100E8000DFF81C91DFF81CA1474D404506D12846EC
:100E9000009508E002201BB0BDE8F08F48450AD15C
:100EA0005046CDF800A003F04FF90090206803F001
:100EB0004BF940B109E0E06D40F02000E06584F8B6
:100EC00058600120E7E7009850B1E06D40F0200045
:100ED000E0654FF0010B00BF84F858605846DAE730
:100EE00020684146884201D0A84201D12F4800E045
:100EF0002F48D7F800C02F4B40F61F72BCF1000FEF
:100F00002DD0D0F808C094F838802CF4604C4CEA0E
:100F1000483CD7F804804CEA080CC0F808C0D4F864
:100F200000C08C4501D0AC4504D18968AB6801F0A4
:100F3000010109E0D9F80810DAF8085001F00101C0
:100F400005F001059B68294303F001031943C3D150
:100F5000BB68396819438368934319431DE0876868
:100F600027F46047876027688F4201D0AF4204D1E1
:100F70008968AB6801F0010109E0D9F80810DAF8D6
:100F8000085001F0010105F001059B68294303F0B9
:100F900001031943A0D18168914381609CE700005F
:100FA00000040050000500500001005000030050F4
:100FB0000007005000060050704770472DE9F84FB9
:100FC00004460068066845684FF0A048DFF8909234
:100FD000404501D0484501D1A24800E0A2488068C0
:100FE00000F01F07B0070ED5A8070CD5E06DC006AE
:100FF00003D4E06D40F40060E0652046FFF766FB37
:10100000216802200860DFF864B2DFF864A270078C
:1010100001D5680703D430073FD528073DD5E06DDB
:10102000C00603D4E06D40F40070E065206803F072
:101030008FF860B32068484501D1424604E0584526
:1010400001D1524600E00246824208D03FB1052F4E
:1010500005D0092F03D0484503D1414606E0C168B9
:1010600005E0584501D1514600E00146C9688904B0
:101070000DD4016809070AD503F062F858B3E06D92
:1010800040F01000E065206E40F001002066204630
:10109000FFF792FF21680C200860B00601D5A80672
:1010A00003D470065FD568065DD5E06DC00603D435
:1010B000E06D40F40050E0652068C16C11F4C07F21
:1010C0001AD00021009103F043F8024620684845F9
:1010D00014D1434617E02068416821F00C014160BB
:1010E000E06D20F48070E065E06DC004CFD4E06D69
:1010F00040F00100E065CAE70121E3E7584501D16E
:10110000534600E00346834208D03FB1062F05D086
:10111000072F03D0484503D1414606E0C16805E0EA
:10112000584501D1514600E00146C968009BA3B172
:101130008B0102D58AB18A040FD4026852060CD5FD
:1011400089020AD402F0F4FFF0B3E06D40F0100021
:10115000E065206E40F0010020662046FFF768FD44
:1011600021686020086030060BD5280609D5E06D9F
:1011700040F48030E065204600F094F9216880203A
:101180000860F0050CD5E8050AD5E06D40F40030A4
:10119000E0652046FFF75EFE21684FF4807008602E
:1011A000B0050CD5A8050AD5E06D40F48020E065B7
:1011B0002046FFF750FE21684FF400700860F006EB
:1011C00031D5E8062FD500E009E0E06BE8B12068F2
:1011D000EFB3404501D0484512D1224811E02068C4
:1011E000416821F060014160E06D20F48050E065CD
:1011F000E06DC005B1D4E06D40F00100E065ACE702
:101200001948806800F4604050B1E06D40F480609F
:10121000E065206E40F0020020662046FFF7CDFE1C
:10122000216810200860700517D5680515D5E06D98
:1012300040F48040E065206E40F0080020662168A0
:101240004FF4806008602046BDE8F84F00E001E000
:10125000FFF752BDC068C007D6E7BDE8F88F0000B1
:10126000000100500003005000070050000500502E
:1012700000040050F8B54FF0000504002E4600951C
:1012800002D0E06D10B107E00120F8BD204600F06B
:101290000BF9266684F8586020688168C1F34071B4
:1012A00019B18168734A1140816020688168C1F377
:1012B000007189B98168704A114041F080518160A4
:1012C0006E486F490068B0FBF1F04000801C00E000
:1012D000401E00900028FBD120688168C1F3007196
:1012E00041B9E16D41F01001E165216E41F001016C
:1012F0002166012502F024FFE16DC90600D430B15A
:10130000E06D40F01000E06501252846F8BDE06D75
:1013100020F4807040F00200E0652068816811F0E0
:10132000010F27D14FF0A043564A984201D0904276
:1013300004D19968966801F001010AE05249896870
:10134000524E01F00101B66806F001063143504EDD
:10135000B66806F0010631430CD1984201D09042A4
:1013600001D14C4800E04C486168826822F47C124C
:101370000A438260E168E06B627F0843A16841EA4A
:101380004231084394F8241040EA0140012904D175
:10139000218D424A02EB41410843E16A29B101F43F
:1013A0007871226B014342EA01002268D1683C4B0C
:1013B00019400143D16020680169626B21F04061EE
:1013C00011430161206802F0B3FE70BB207F94F8E6
:1013D00038102268800340EA4100D16844F20203D9
:1013E00099430143D16020690028206801690AD02F
:1013F00041F480310161206850F8C01F22696FF309
:101400000D01114307E021F480310161206850F89B
:10141000C01F6FF30D01016094F8400001280CD04B
:101420002068016921F001010161606901282068DB
:10143000016B21F00F0111D013E0D4E91101084331
:10144000D4E913121143084321680A6940F2FC737E
:101450009A43104340F001000861E6E7226A521EF9
:1014600011430163E06D20F0020040F00100E065EF
:101470004BE70000C0FFFF5FC0FFFF7F7800002048
:10148000400D030000010050000400500005005012
:101490000006005000030050000700500000FEFF4F
:1014A0000740F0FF70470000F0B59BB004461421E0
:1014B00015A8FEF798FF54216846FEF794FF4FF4F5
:1014C0000041206800268A032E4D03272E4CB0F1E0
:1014D000A04F10D02D4B984252D1684611920091E6
:1014E00001F04EFA08B1FFF7E2F82868401C2860C6
:1014F000012825D02CE068461192009101F040FAB5
:1015000008B1FFF7D4F82868401C2860012807D1EB
:10151000E06C40F40050E064E06C00F400501A907D
:10152000E06C40F00100E064E06C179600F0010010
:101530001A900720CDE9150715A94FF0904015E046
:10154000E06C40F40050E064E06C00F400501A904D
:10155000E06C40F00400E064E06C179600F00400DA
:101560001A902020CDE9150715A9094800F0FCFACA
:1015700000221146122000F087FC122000F076FCB9
:101580001BB0F0BD00000020001002400001005020
:1015900000080048F0B4016C0C6801680D6890F810
:1015A000442002F01F06042202FA06F3234211D05F
:1015B0006B070FD50B689B0603D40B6823F004035D
:1015C0000B6090F8441001F01F018A40016C4A60E2
:1015D000016B1DE0022303FA06F727424FF0000CCF
:1015E0004FF0010218D0AF0716D50C68A40605D439
:1015F0000C6824F00A040C6080F8252090F8441050
:1016000001F01F018B40016C4B6080F824C0C16A5F
:1016100000291AD0F0BC08470823B340234214D055
:101620002B0712D50B6823F00E030B6090F84410C3
:10163000036C01F01F0102FA01F15960C26380F8E6
:10164000252080F824C0416BE2E7F0BC7047000021
:1016500070B504000CD02B4A21681420914209D2A5
:10166000294A0A44B2FBF0F08000606427480AE08F
:10167000012070BD234A52420A44B2FBF0F08000C0
:101680006064204808382064022084F825000A6835
:1016900047F6F0708243D4E902031843D4E90435D5
:1016A0002B431843A3691843E3691843236A18437B
:1016B000104308602046FEF7C7FFA0680025B0F57C
:1016C000804F00D16560A16C20790860D4E91301D6
:1016D00041606068401E032808D82046FEF7D4FF0A
:1016E000606D0560D4E91601416002E06565A5659D
:1016F000E565E563012084F8250084F82450002086
:1017000070BD000008040240F8FFFDBF0000024069
:1017100070B5044600F052FB0546601C02D0044838
:101720004068044400F04AFB401BA042FAD370BD5D
:101730006C0000207047704770472DE9F05F044649
:101740000068016D426D01F4E05102EA0108016D8B
:10175000426D01F0070102EA0109016D426D01F0DD
:10176000380102EA010A016D476D01F471010F4071
:10177000016D426D01F46021456D02EA010B016DBE
:10178000CE43710607D4E943490604D440210165DC
:101790002046FFF7D1FFF0050ED4E843C0050BD477
:1017A0002068D0F8D820D0F8E01011404FF48072B3
:1017B0000265204600F0D4F9B8F1000005D0216898
:1017C00008654146204600F0CDF9B9F1000005D08A
:1017D000216808654946204600F0BEF9BAF10000CC
:1017E00005D0216808655146204600F0B6F9B005DD
:1017F00009D4E843800506D421684FF400700865D9
:10180000204600F0B0F930060DD4E84300060AD4B3
:101810002068D0F8D420D0F8DC1011408022026576
:10182000204600F09EF9B00409D4E843800406D4B1
:1018300021684FF400500865204600F090F930040C
:1018400009D4E843000406D421684FF40040086539
:10185000204600F083F970040AD4E843400407D41A
:1018600021684FF480400865206E40F080002066BB
:10187000BBF1000005D02168086559462046FFF7F6
:101880005AFF27B120680765206E38432066206E16
:10189000002802D02046FFF74DFFBDE8F09F000072
:1018A0002DE9F041040006D0DFF8F48194F85C00E3
:1018B000002518B107E00120BDE8F08184F85D50F3
:1018C000204600F0F9F82068816921F0100181615B
:1018D00000F074FA0646032705E000BF00F06EFA38
:1018E000801B0A2811D8206880690007F6D4206878
:1018F000816941F00101816100F060FA06460BE068
:1019000000F05CFA801B0A2806D9206E40F0010026
:10191000206684F85C70CEE720688069C007EFD04D
:101920002068816941F0020181612168414502D14D
:101930005C4960680860207C01282068816937D094
:1019400041F040018161607C01282068816932D0CA
:1019500021F480418161A07C0128206881692DD01B
:1019600041F48051816120688169A26821F440714D
:10197000114381612068816921F0A401816120689F
:10198000016921F010010161E068012819D010B34C
:1019900002281BD02068816941F0800181612068A4
:1019A000016941F010010161E06803280ED012E0E6
:1019B00021F04001C6E741F48041CBE721F480519A
:1019C000D0E72068816941F0040103E02068816963
:1019D00041F020018161207EE26940066FF0FF0145
:1019E00001EB0222A0F100701043226AA38A521E6A
:1019F00010430A0202EB034318432368D861A0682E
:101A0000B0F5407F10D1D4E90A0301EB0321401E59
:101A10000843216B131303EB01110843A18C02EB64
:101A2000014108432168C860206850F8C01FE26B7C
:101A3000114301601D4A21681B48914200D11C4896
:101A40001C4A914201D100F5D460206451F8802FE6
:101A5000A38E22F4F81242EA03420A6000F17001F8
:101A60006164216851F8802F94F8383022F0706258
:101A700042EA03620A6000F1B001A164D831E16476
:101A8000D831216518316165D83100E020C0884225
:101A9000FCD3A5652566012084F85C0000200BE7D7
:101AA000006400400065004000A400400068004061
:101AB00050A70040006C004010B59CB004461421B3
:101AC00015A8FEF790FC54216846FEF78CFC1F49D0
:101AD0002068884238D18014009040030E906846F8
:101AE00000F04EFF08B1FEF7E2FD1948816D41F0AC
:101AF00000718165816D01F000711A91C16C41F036
:101B00000201C164C06C15A900F002001A904FF4E4
:101B10004070159002201690002017901890092010
:101B200019900C4800F020F800221146152000F012
:101B3000ABF9152000F09AF900221146162000F0AA
:101B4000A3F9162000F092F91CB010BD006400400B
:101B5000001002400004004870477047704770470B
:101B600070477047704770472DE9F04FDFF82092BB
:101B7000002301260324A9F1040B85B00F2709F1E6
:101B8000040AABF1040EFAE006FA03F52A407CD011
:101B900091F804C00CF0030CBCF1010F02D0BCF1B1
:101BA000020F26D1D0F808C0CDF800C04FEA430C90
:101BB00004FA0CF8CDF810C0DDF800C02CEA080CCF
:101BC000CDF800C0D1F80C80DDF810C008FA0CF890
:101BD000DDF800C048EA0C08C0F80880D0F804C05E
:101BE0002CEA050C0D79C5F300159D4045EA0C055E
:101BF00045600D79ED43AD070ED0C5684FEA430847
:101C000004FA08FC25EA0C05D1F808C00CFA08FC17
:101C10004CEA050CC0F80CC00D7905F00305022D47
:101C200016D1DD0800EB850CCDF808C0DCF820806B
:101C30005D074FEAD56C07FA0CF528EA05080D692F
:101C400005FA0CF5DDF808C045EA0805CCF8205087
:101C500005684FEA430CCDF808C004FA0CFC25EAED
:101C60000C0591F804C00CF00308DDF808C008FA70
:101C70000CF848EA0508C0F800804D6815F4403FAC
:101C80007CD0444DD5F860C000E077E04CF0010C0A
:101C9000C5F860C02D6E23F0030C05F0010500951A
:101CA0003D4D65440295AD684FEA837C4FEA1C7850
:101CB00007FA08FC25EA0C05B0F1904F06D0DFF8D2
:101CC000DCC0604505D14FF0010C20E04FF0000C66
:101CD0001DE0DFF8CCC0604502D14FF0020C16E0E9
:101CE000DFF8C0C0604502D14FF0030C0FE0DFF811
:101CF000B8C0604502D14FF0040C08E0DFF8ACC07A
:101D0000604502D14FF0050C01E04FF0060C0CFAD3
:101D100008FC4CEA050C029DC5F808C0D9F8005033
:101D2000CC46D1F8048095435FEAC82800D5154316
:101D3000CCF80050DAF80050D446D1F8048095432E
:101D40005FEA882800D51543CCF80050DBF8005036
:101D5000DC46D1F8048095435FEA883800D5154306
:101D6000CCF80050DEF80050F446D1F804809543DA
:101D70005FEAC83800D51543CCF800505B1C0A68F0
:101D800032FA03F57FF400AF05B0BDE8F08F000034
:101D90000804014000100240000001400004004817
:101DA00000080048000C00480010004800140048DB
:101DB0000AB1816170478162704700000148806804
:101DC000704700006C00002002488168426811449E
:101DD000816070476C00002010B50024032000F0E3
:101DE00073F80F2000F008F808B1012401E000F0BA
:101DF00025F8204610BD000070B50E4E05460024A3
:101E0000706898B14FF47A71B1FBF0F00A49096833
:101E1000B1FBF0F001F07EFC40B9102D06D200229B
:101E20002946501E00F030F8356000E001242046BD
:101E300070BD00006C000020780000200A4882B0CD
:101E4000016E41F001010166016E01F00101009196
:101E5000816D41F080518165806D00F0805000906F
:101E600002B000F085BD000000100240002809DB30
:101E700000F01F02012191404009800000F1E020A4
:101E8000C0F8001170470000F0B40E4B1B680C4600
:101E9000C3F30223C3F10705042D00D90425191D3E
:101EA000072901D2002300E0DB1E012606FA05F116
:101EB000491E214099409E40761E16403143F0BC99
:101EC00005F05FB90CED00E0064900F00702086874
:101ED0004FF6FF03184040EA0220034A104308600F
:101EE000704700000CED00E00000FA0501220168D7
:101EF000C0F8D022002280F8C82231F8540F40F0F8
:101F000001000880088840F00200088010467047F1
:101F100070B50F4D044669B101290AD1D4F8D80231
:101F200004F02BFA607A002803D0286840F00600FD
:101F3000286070BD607A28B103F008F8286820F0A6
:101F400006002860D4F8D802BDE8704004F0ADB9AE
:101F500010ED00E010B50C0607D501F0070101EB0C
:101F6000810100EBC100103005E001EB810100EBC5
:101F7000C10000F5A87099B232B10122027301814B
:101F8000190C4181002010BD00220273C180F9E7C5
:101F900001EB810200EBC202D0F8D802526A04F0D1
:101FA00062B801EB810200EBC202D0F8D802D2F88D
:101FB000642104F0ACB870B504460B0601F00700CC
:101FC00000EB800104EBC1014FF001024FF000056E
:101FD00002D54A74103103E081F8515101F5A8711E
:101FE000087094F89002012808D084F890222068A4
:101FF00004F00EFD84F89052002070BD022070BDE8
:1020000070B5044601F00F002279904201D90120F9
:1020100070BD0B0601F0070000EB800104EBC1016D
:102020004FF001024FF0000502D54A74103103E071
:1020300081F8515101F5A8718D70087094F89002E3
:10204000012808D084F89022206804F080FD84F8EC
:102050009052002070BD022070BD2DE9F047046849
:102060005FEA42480B788D69B4F850804FF0000C5D
:102070004BF68F7748F2800648F68F7948F2C00A0F
:10208000444428D540F2024808EBC30834F808401D
:10209000C4F30904A54203D32D1B8D6102D00BE0CC
:1020A000C1F818C0D0F800C03CF823503D4085F47A
:1020B000005535432CF82350520609D50B78056896
:1020C00035F8232002EA090242EA0A0225F8232011
:1020D00074B30A8927E040F2064808EBC30834F8D5
:1020E0000840C4F30904A54203D32D1B8D6102D01F
:1020F0000BE0C1F818C0D0F800C03CF823503D40B8
:1021000085F4005535432CF82350520609D40D7838
:10211000036833F8252002EA090242EA0A0223F89A
:1021200025202CB14A8949690068234604F0E7FF5D
:102130002046BDE8F0872DE9F047054600680C46CB
:102140005FEA42681646D1F818C02278B0F850808D
:1021500048F68F774CF280094FF400434FF6FF7A30
:102160004FF00001404472D540F2024808EBC2082B
:1021700030F80800C0F30900844514D9BCEB000C0A
:10218000C4F818C010D0760408D5D5F800C03CF8C3
:1021900022603E4046EA09062CF8226094F824208A
:1021A000012A47D056E1A161607810B1012813D00F
:1021B0001AE02868B0F85030184400EBC200B0F8BC
:1021C0000224C2F30902A0F80224B0F8022442F467
:1021D0000042A0F8022407E02868B0F85030184404
:1021E00000EBC200A0F802146278286812B1012A3C
:1021F00011D018E0B0F850100844217800EBC1006D
:10220000B0F80614C1F30901A0F80614B0F80614DA
:1022100041F4004105E0B0F850201044227800EB72
:10222000C200A0F8061421782846FFF7B1FE70041A
:102230006ED40FE1626902446261E2690244E261C4
:102240002669226AB24203D33046111A04E040E004
:1022500084F824100AB110462162617811B1012975
:102260002BD033E02968B1F850201144227801EBDB
:10227000C201B1F80224C2F30902A1F8022401F25A
:1022800002413E2809D94209C60600D1521E0E88D5
:1022900043EA822216430E8018E048B14208C30781
:1022A00000D0521C0B880AEA822213430B800DE0F7
:1022B0000A8842F400420A8008E02968B1F85020F8
:1022C0001144227801EBC201A1F8020483B22289F1
:1022D000BCE040F2064808EBC20830F80800C0F342
:1022E0000900844515D3BCEB000CC4F818C011D00C
:1022F000760408D4D5F800C03CF822603E4046EA97
:1023000009062CF8226094F82420012A51D0A1E07B
:1023100045E0A161607810B1012813D01AE0286867
:10232000B0F85030184400EBC200B0F80224C2F3F9
:102330000902A0F80224B0F8022442F40042A0F8F6
:10234000022407E02868B0F85030184400EBC200BF
:10235000A0F802146278286812B1012A11D018E09E
:10236000B0F850100844217800EBC100B0F8061412
:10237000C1F30901A0F80614B0F8061441F40041B5
:1023800005E0B0F850201044227800EBC200A0F81D
:10239000061421782846FFF7FBFD70045AD42178F3
:1023A0002A6832F82100384040EA090022F821006A
:1023B00050E0626902446261E2690244E2612669B6
:1023C000226AB24203D33046111A216204E00AB1F4
:1023D0001046216284F824106278296812B1012A1B
:1023E0002AD031E0B1F850201144227801EBC2012B
:1023F000B1F80624C2F30902A1F8062401F206414D
:102400003E2809D94209C60600D1521E0E8843EA69
:10241000822216430E8017E048B14208C30700D05D
:10242000521C0B880AEA822213430B800CE00A88B4
:1024300042F400420A8007E0B1F8502011442278AB
:1024400001EBC201A1F80604628983B261692868C0
:1024500004F070FE21782A6832F8210048F6BF7334
:10246000184080F0300048F28003184322F8210021
:102470000020BDE8F08701F0070101EB810100EBCE
:10248000C100D0F86C0170472DE9F04104460F06F9
:1024900001F0070000EB800104EBC1014FF00106E1
:1024A0004FF0000502D54E74103103E081F8515110
:1024B00001F5A871022B08700A61CB7000D10D7173
:1024C00094F89002012809D084F89062206804F002
:1024D00051F9284684F89052BDE8F0810220FBE7CC
:1024E00010B501F0070404EB840100EBC101C1E960
:1024F00059230022C1F86C2181F8512181F8504103
:10250000006801F5A87104F077FB002010BD70B5DC
:10251000044601F007002279904201D9012070BDE4
:102520000B064FF000054FF0010206D500EB8001CD
:1025300004EBC1014A74103107E001EB810104EBA7
:10254000C10181F8515101F5A8718A70087094F8A1
:102550009002012808D084F89022206804F033FB10
:1025600084F89052002070BD022070BD10B501F0BB
:10257000070404EB840100EBC101C1E90923012236
:1025800081F834200B630023CB624A7401F8104FAA
:10259000006804F031FB002010BD10B5044600684F
:1025A00004F0AAFD010404D52046BDE8104002F065
:1025B00093B941050ED5206830F8441F21F480619D
:1025C0000180204600F008F92046BDE810400021B7
:1025D00000F02EB9410405D5206830F8441F21F4DD
:1025E00080417DE0810405D5206830F8441F21F446
:1025F000005175E0C1041FD5206830F8401F21F05C
:1026000004010180206830F8401F21F0080101809A
:1026100094F8C802012806D1002084F8C8020146B7
:102620002046FFF775FC204600F0EAF8206830F8F5
:10263000441F21F4805153E0010512D5206830F881
:10264000401F41F008010180206830F8441F21F448
:1026500000610180206830F8401F41F004010180D2
:102660000AE0010629D5206830F8441F21F08001D6
:10267000018094F8C80218B1204600F009F910BD95
:10268000206830F8401F41F004010180206830F8D4
:10269000401F41F008010180012084F8C802206831
:1026A000B0F854003C2101EA9000C4F8CC02204666
:1026B000BDE810400121FFF72BBC810509D520683A
:1026C00030F8441F21F400710180204600F0ACF87E
:1026D00010BDC005FCD5206830F8441F21F480717E
:1026E000018010BD70B5040004D094F8910200255B
:1026F00010B106E0012070BD84F89052204600F031
:102700003FF8032084F89102206804F018FA0020B2
:1027100001260BE000EB800104EBC1014E7408744C
:10272000CD740D624D62401CC0B28D622179814230
:10273000F0D8002012E000BF00EB800104EBC101E3
:1027400081F8515181F8500181F85351C1F860511D
:10275000C1F86451401CC0B2C1F86851217981426E
:10276000EAD894E8070004F0E1F9257384F891624F
:10277000A07A012802D12046FFF7B8FB002070BDE7
:1027800010B596B0044654216846FDF72CFE10495A
:10279000206888421AD14014009000200F906846AB
:1027A00000F0EEF808B1FDF782FF0A48816D41F4B0
:1027B00000018165806D002200F400001590114633
:1027C0001420FFF761FB1420FFF750FB16B010BD7B
:1027D000005C00400010024070B5044640790125BD
:1027E000022801D0FDF763FF2946D4F8D80203F090
:1027F00076FDD4F8D802BDE8704003F029BD000092
:1028000010B50446407A30B10648016821F006014F
:10281000016002F09BFBD4F8D802BDE8104003F041
:1028200044BD000010ED00E0D0F8D80203F047BD31
:1028300010B5044690F8900201280AD0012084F8CF
:1028400090022173206804F06EFC002084F890024E
:1028500010BD022010BDD0F8D82200F52671104618
:1028600003F049BD10B5044690F8900201280CD041
:10287000012084F89002206804F02FFC206804F006
:102880004EF9002084F8900210BD022010BD000017
:1028900010B50446D0F8D80203F06FFD607A002826
:1028A00004D00348016841F00601016010BD00003A
:1028B00010ED00E02B492C4B0A6832214A432B498A
:1028C00040B1B0F5007F086829D020F4C06040F422
:1028D00080602CE00868C0F34120022804D051F841
:1028E000800F20F4807022E0D1F8800020F4807006
:1028F000C1F88000086820F4C06040F400700860EF
:10290000B2FBF3F0401C00E0401E4A69520501D5BD
:102910000028F9D1486940050AD503207047C0F363
:102920004120022806D051F8800F40F480700860E2
:1029300000207047D1F8800040F48070C1F880001A
:10294000086820F4C06040F400700860B2FBF3F047
:10295000401C00E0401E4A695205DBD50028F9D131
:10296000D8E700007800002040420F0000700040CF
:102970000248816841F480418160704700700040E6
:102980002DE9F843044600680026BB4D00035ED5E0
:10299000A86D0027C00008D4A86D40F08050A8653D
:1029A000A86D012700F080500090DFF8D092D9F890
:1029B000001041F48071C9F80010FFF7FFF980465C
:1029C00006E000BFFFF7FAF9A0EB080002282BD8B9
:1029D000D9F80000C005F5D5D5F8900010F4407086
:1029E00014D0216D814211D0D5F89000D5F8901007
:1029F00020F4407041F48031C5F89010D5F8901063
:102A000021F48031C5F89010C5F89000C00711D0AE
:102A1000FFF7D4F9804641F2883907E0FFF7CEF995
:102A2000A0EB0801494501D903260BE0D5F8900039
:102A30008007F3D5D5F89000216D20F4407008434D
:102A4000C5F890001FB1A86D20F08050A8652078CF
:102A5000C00707D0D5F88800616820F0030008435C
:102A6000C5F888002078800707D5D5F88800A168C8
:102A700020F00C000843C5F888002078400707D5EF
:102A8000D5F88800E16820F030000843C5F88800D8
:102A90002078000707D5D5F88800216920F0C0000C
:102AA0000843C5F888002078C00607D5D5F8880007
:102AB000616920F440700843C5F8880020788006DA
:102AC00007D5D5F88800A16920F440600843C5F80F
:102AD00088002078400607D5D5F88800E16920F401
:102AE00040500843C5F888002078000607D5D5F87F
:102AF0008800216A20F440400843C5F888002088F7
:102B0000C00507D5D5F88800616A20F44030084335
:102B1000C5F888002068800307D5D5F89C00A16A15
:102B200020F003000843C5F89C002088800507D5E5
:102B3000D5F88800E16A20F440200843C5F88800F1
:102B4000208840050FD5D5F88800216B20F440106F
:102B50000843C5F88800206BB0F5801F03D1E868F2
:102B600040F48010E860208800050FD5D5F8880073
:102B7000616B20F440000843C5F88800606BB0F535
:102B8000800F03D1E86840F48010E8602088C0041A
:102B90000FD5D5F88800A16B20F040700843C5F828
:102BA0008800A06BB0F1807F03D1E86840F480100A
:102BB000E86020884FF0006180040ED5D5F88800C9
:102BC000E26B20F040601043C5F88800E06B88425B
:102BD00003D1E86840F48010E860208840040ED5F6
:102BE000D5F88800226C20F040601043C5F88800BA
:102BF000206C884203D1E86840F48010E8602088A7
:102C000000040FD5D5F88800616C20F040500843CF
:102C1000C5F88800606CB0F1805F03D1E86840F4CB
:102C20008030E8602068C0030FD5D5F88800A16C1B
:102C300020F040400843C5F88800A06CB0F1804FF8
:102C400003D1E86840F48030E860206840030FD585
:102C5000D5F89C00E16C20F440100843C5F89C00B6
:102C6000E06CB0F5001F03D1E86840F48010E86024
:102C70003046BDE8F88300000010024000700040BC
:102C80002DE9F0470E4605004FF0000725D0DFF88C
:102C9000AC81D8F8000000F00F00B0420CD2D8F898
:102CA000001021F00F013143C8F80010D8F80000DF
:102CB00000F00F00B04210D12968614CC80741F202
:102CC000883A5AD06868DFF87C91032808D0022837
:102CD00020682DD0400500282CDB0120BDE8F087BE
:102CE00020688001F9D5E06800F00302E068C0F3D5
:102CF0000310401C032A19D0534A00BFB2FBF0F066
:102D0000E268C2F306225043E268C2F34162521CF9
:102D10005200B0FBF2F0484517D9A06810F0F00F50
:102D20000CD0880711D5A86840B10EE0474AE5E706
:102D30008003D0E700F0B6F8484506D9A06820F037
:102D4000F00040F08000A0608027A068696820F053
:102D500003000843A060FFF731F8814606E000BF9A
:102D6000FFF72CF8A0EB090151453AD8A068696833
:102D700000F00C00B0EB810FF2D12868810714D568
:102D8000400703D5A06840F4E060A0602878000701
:102D900005D5A06820F4605040F4E060A060A06811
:102DA000A96820F0F000084304E0802F03D1A06858
:102DB00020F0F000A060D8F80010404601F00F01AC
:102DC000B14216D9016821F00F0131430160FEF7CD
:102DD000F5FF074607E000BFFEF7F0FFC11B5145B6
:102DE00001D903207AE7D8F8000000F00F00B042C4
:102DF000F2D12878400705D5A068E96820F4E060A2
:102E00000843A0602878000706D5A068296920F447
:102E1000605040EAC100A06000F044F8A1680C4A8C
:102E2000C1F30311515C01F01F01C840094908605A
:102E300009480068BDE8F047FEF7DEBF0020024009
:102E40000010024000B4C4040024F40000127A0010
:102E5000CA7F0008780000206C0000200548064961
:102E600000688968054AC1F30221515C01F01F0125
:102E7000C84070477800002000100240DA7F000848
:102E80000548064900688968054AC1F3C221515CBA
:102E900001F01F01C8407047780000200010024078
:102EA000DA7F0008184910B58868C0F38102174816
:102EB000012A0BD08A684310C2F38102022A06D08D
:102EC0008A68C2F38102032A03D0002010BD18468D
:102ED00010BDCA6802F00304CA68C2F30312521C90
:102EE000032C02D0B0FBF2F001E0B3FBF2F0CA68B1
:102EF000C968C2F306225043C1F34161491C49002D
:102F0000B0FBF1F010BD0000001002400024F400FE
:102F10002DE9F84304007AD02078F84DC00747D057
:102F2000A868E96800F00C0001F003010C2802D049
:102F3000082817D001E0032914D06068B0F5803F5D
:102F400017D0B0F5A02F286817D020F48030286063
:102F5000286820F4802028606068E0B1FEF72EFF2A
:102F6000064614E02868800322D560680028D2D085
:102F70001EE0286840F48030EDE740F480202860AF
:102F8000F7E700BFFEF71AFF801B642870D8286897
:102F90008003F7D50CE0FEF711FF064605E000BF01
:102FA000FEF70CFF801B6428F0D828688003F7D454
:102FB000207880074CD5A868E96800F00C0001F083
:102FC00003010C2802D004280DD001E002290AD008
:102FD000E068002828682BD040F480702860FEF755
:102FE000EDFE064619E02868400502D5E068002895
:102FF00091D06868217C20F0FE4040EA0160686062
:10300000BF480068FEF7F8FE002800D120E072E11A
:10301000FEF7D4FE801B0228B8D828684005F7D5F3
:103020006868217C20F0FE4040EA016068600FE0A3
:1030300020F480702860FEF7C1FE064605E000BF60
:10304000FEF7BCFE801B0228A0D828684005F7D4F4
:103050002078000729D560690028D5F8940013D09E
:1030600040F00100C5F89400FEF7A8FE064606E011
:1030700090E000BFFEF7A2FE801B022886D8D5F89C
:1030800094008007F6D510E020F00100C5F8940008
:10309000FEF794FE064604E0FEF790FE801B022831
:1030A00078D8D5F894008007F6D42078400761D509
:1030B000A86D0026C00008D4A86D40F08050A86517
:1030C000A86D012600F0805000908E480168C90567
:1030D00011D40168804641F480710160FEF76EFEF4
:1030E000074604E0FEF76AFEC01B022852D8D8F853
:1030F0000000C005F6D5A068012815D00528D5F830
:10310000900016D020F00100C5F89000D5F890008E
:1031100020F00400C5F89000A06841F28838B8B1EA
:10312000FEF74CFE07460EE0D5F8900040F0010097
:10313000F0E740F00400C5F89000F5E7FEF73EFE2A
:10314000C11B414526D8D5F890008007F6D50CE084
:10315000FEF734FE074604E0FEF730FEC11B414592
:1031600018D8D5F890008007F6D41EB1A86D20F0CD
:103170008050A8652078800629D5A0690028D5F858
:10318000980013D040F00100C5F89800FEF716FE35
:10319000064606E075E000BFFEF710FE801B022821
:1031A0006FD8D5F898008007F6D510E020F0010020
:1031B000C5F89800FEF702FE064604E0FEF7FEFDA5
:1031C000801B02285DD8D5F898008007F6D4E06906
:1031D000F0B3A968C1F3810103295DD002282868F2
:1031E00020F08070286003D0FEF7E8FD04464BE035
:1031F000FEF7E4FD064604E0FEF7E0FD801B022832
:103200003FD828688001F7D4F4E908016FF00F0275
:1032100002EB01110843218A5204490802EB415193
:10322000A26841EA02210843217D4FF07E4249080D
:1032300002EB41610843217B40EAC160E968324A00
:1032400011400843E860286840F08070286000E082
:103250005EE0E86840F08070E860FEF7AFFD04468D
:1032600005E000BFFEF7AAFD001B022809D8286868
:103270008001F7D54CE000BFFEF7A0FD001B02283F
:1032800002D90320BDE8F88328688001F4D4E868F7
:103290001E490840E8603BE00128F3D0E868226A54
:1032A00000F00301914226D1616A00F0F0020901A9
:1032B000103991421FD1A26A00F4FE41B1EB022FF6
:1032C00019D194F82C2000F07841B1EBC26F12D1E3
:1032D000218E00F4C00249084905A1F50011914270
:1032E00009D194F8341000F0C06049084906A1F1F2
:1032F000007181420CD00120C4E7000000100240A0
:103300006C000020007000400C809F01FCFFEEFE6E
:103310000020B7E770B5040009D0606A002540B10D
:1033200025616561A56294F85D0040B10CE0012063
:1033300070BD6068B0F5827FF4D0E561F2E784F893
:103340005C50204600F05CF8022084F85D002068A4
:10335000016821F040010160E1684FF4E0629142B0
:1033600001D9002001E04FF48050B1F5706F02D018
:10337000914200D0A562A188228901F4827102F4F1
:1033800004421143227C02F002021143227D02F02A
:1033900001021143228B02F400721143227F02F0DA
:1033A0003802114394F8202002F080021143228D4C
:1033B00002F40052114322681160A169042202EA5A
:1033C000114194F8242000F4805002F010021143BF
:1033D00094F8342002F008021143A28902F47062CA
:1033E00011430143206841602068C16921F40061F4
:1033F000C1612566012084F85D00002070BD0000D9
:1034000010B586B0044614216846FCF7ECFF23682B
:10341000204C002120480222A34219D1036E43F41C
:1034200080530366036E03F480530593C36C43F02B
:103430000203C364C06C00F00200059038200090C5
:10344000CDE901210520CDE90310694613481CE0B0
:10345000134CA3421BD1836D43F400438365836DFA
:1034600003F400430593C36C43F00403C364C06CCE
:1034700000F0040005904FF4A0500090CDE9012128
:103480000620CDE9031069460648FEF76DFB06B03D
:1034900010BD000000300140001002400004004850
:1034A000003C0040000800482DE9FF5F044690F80A
:1034B0005C0000260E9F1D4693464FF0010901282F
:1034C0000FD04FF0010A84F85CA0FEF777FC80462D
:1034D00094F85D00616801280DD0B1F5827F08D1B4
:1034E00003E0022004B0BDE8F09FA16809B90428F8
:1034F00001D0022609E10198002876D0BBF1000F27
:10350000FBD0002DF9D094F85D00042802D00520EE
:1035100084F85D0000202066C4F840B0A4F846504E
:10352000A4F844500199A163E587A587E06420656C
:10353000E0684FF4E061884201D8012D04D9206889
:10354000426822F4805203E02068426842F48052CC
:10355000426020680268520603D4026842F04002CA
:103560000260E0688842606848D908B1012D3DD109
:10357000A06B21680088C860A06B801CA063E08FEE
:10358000401EE08732E02068816889070FD5E18F0F
:1035900069B1B9F1010F0AD1A16B0988C160A06BB3
:1035A000801CA063E08F401EE0874FF00009206878
:1035B0008168C9070FD0B4F8461061B1C068216CAA
:1035C0000880206C801C2064B4F84600401EA4F8DB
:1035D00046004FF00109FEF7F1FBA0EB0800B842EE
:1035E00004D3781C02D003268DE08AE0E08F002807
:1035F000C9D1B4F846000028C5D177E008B1012D43
:103600006DD1E08F0128A06B08D921680088C860BF
:10361000A06B801CA063E08F801E07E0216800780B
:103620000873A06B401CA063E08F401EE08756E04B
:103630002068816889071AD5E18FC1B1B9F1010FFE
:1036400015D1E18F0129A16B07D90988C160A06B51
:10365000801CA063E08F801E06E009780173A06BD8
:10366000401CA063E08F401EE0874FF000092068F7
:103670008168C90728D0B4F8461029B3B4F84610B9
:10368000012914D9C068216C0880206C801C20643A
:10369000B4F84600801EA4F84600B4F8460001289D
:1036A00010D82068416841F4805141600AE0007BF5
:1036B000216C0870206C401C2064B4F84600401E49
:1036C000A4F846004FF00109FEF778FBA0EB0800D4
:1036D000B84202D3781C02D085E7002F83D0E08F58
:1036E0000028A5D1B4F846000028A1D142463946A9
:1036F000204601F033FB10B1012620202066206E09
:1037000008B1012601E084F85DA0002084F85C0087
:103710003046E7E610B5401EB0F1807F01D30120AE
:1037200010BD4FF0E02460610F21601703F029FD08
:103730000020A06107202061002010BD30B590F866
:103740003C20012A45D0012280F83C20CA688B68C1
:1037500022F440721A434B6822F480621A430B68C9
:1037600022F400621A430B6922F480521A434B6917
:1037700022F400521A430B6B22F480421A430B8B43
:1037800022F4702242EA0342CB6922F080521A43AB
:10379000114D03680024AB4205D0104DAB4202D05E
:1037A0000F4DAB4210D10D8D22F4700242EA05524A
:1037B0000D6A22F080722A434D6A22F000722A4379
:1037C000C96A22F000520A435A6480F83C40002043
:1037D00030BD022030BD0000002C0140003401400B
:1037E00000500140F0B590F83C20012A43D001255B
:1037F00080F83C50022280F83D2003685A689C689B
:103800001E4E1F4FDFF87CC0B34203D0BB4201D035
:10381000634504D122F4700E4A6842EA0E02DFF8D2
:1038200068E002EA0E02D1F800E04EEA020EC3F8A8
:1038300004E00268B24212D0B2F1804F0FD0134BB5
:103840009A420CD0124B9A4209D0124B9A4206D09F
:10385000BA4204D0104B9A4201D0624504D1896823
:1038600024F080031943916080F83D50002180F8D6
:103870003C100846F0BD0220F0BD0000002C0140C5
:1038800000340140005001408FFFFFFD0004004064
:1038900000080040000C00400040014010B5044604
:1038A000022249B104290ED0082913D094F8470008
:1038B000012816D0012010BD94F844000128F9D148
:1038C00084F844200FE094F845000128F2D184F8F0
:1038D000452008E094F846000128EBD184F8462002
:1038E00001E084F847200422206801F0ECFB206806
:1038F000416C41F40041416413492068884214D06E
:10390000B0F1804F11D0114988420ED01049884241
:103910000BD01049884208D00F49884205D00F4982
:10392000884202D00E49884207D181680D4A114071
:10393000062906D0B1F5803F03D0016841F00101AE
:103940000160002010BD0000002C01400004004078
:1039500000080040000C00400034014000400140DD
:10396000005001400700010010B5040003D094F896
:103970003D0010B107E0012010BD002084F83C009C
:10398000204600F023F8022084F83D00211D206825
:1039900001F01AFB012084F8480084F83E0084F806
:1039A0003F0084F8400084F8410084F8420084F825
:1039B000430084F8440084F8450084F8460084F805
:1039C000470084F83D00002010BD000008B5124AF1
:1039D00001681248914207D1016E41F4006101660D
:1039E000006E00F4006014E0B1F1804F0AD00C4A80
:1039F00091420FD1816D41F002018165806D00F02F
:103A0000020006E0816D41F001018165806D00F0EA
:103A10000100009008BD0000002C01400010024091
:103A20000004004090F83D10012901D001207047AA
:103A3000022180F83D1000681249884214D0B0F18C
:103A4000804F11D0104988420ED0104988420BD0C7
:103A50000F49884208D00F49884205D00E49884254
:103A600002D00E49884207D181680D4A11400629CB
:103A700006D0B1F5803F03D0016841F0010101603B
:103A800000207047002C0140000400400008004066
:103A9000000C004000340140004001400050014053
:103AA0000700010070B5044690F83C00002501288D
:103AB0001CD0012684F83C60022084F83D00226876
:103AC0009068334B184020F47F4090600868B0F550
:103AD000005F2ED016DC402849D009DCD0B1102878
:103AE00018D0202816D0302849D113E0022070BD0C
:103AF00050282AD0602830D070280FD0B0F5805FD1
:103B00003DD13DE010F00F0F39D10111A1F5803109
:103B1000072934D822680146104625E0CB68D1E950
:103B20000121206801F0DCFA2068816841F077010A
:103B300009E0CB68D1E90121206801F0D1FA2068C1
:103B4000816841F4804181601AE0CA684968206850
:103B500001F09AFC5021206806E0CA684968206894
:103B600001F0A3FC6021206801F0C4FA08E0CA68F3
:103B70004968206801F088FC40212068F4E70125AD
:103B800084F83D60002084F83C00284670BD0000A9
:103B900088FFCEFF2DE9F04186B004461421684627
:103BA000FCF721FC294A21680024294802254FF00E
:103BB0009048914231D1C16C41F00201C164C16CA5
:103BC00001F002010591C16C41F00101C164C06CBA
:103BD000062600F0010005904FF4C0400090CDE9AA
:103BE00001541C4FCDE9034669463846FDF7BCFF3A
:103BF000A8030090CDE901540420CDE903406946B3
:103C00003846FDF7B1FF4FF4E0600090CDE9015474
:103C1000CDE903466946404613E0B1F1804F12D129
:103C2000C16C41F00101C164C06C694600F0010043
:103C3000059020200090CDE901540120CDE90340FA
:103C40004046FDF791FF06B0BDE8F081002C014031
:103C5000001002400004004870B5044690F83C0093
:103C600000260D4601280BD0012084F83C000C2AC8
:103C70004AD007DC82B1042A20D0082A06D131E0DC
:103C8000022070BD102A53D0142A63D001260020D0
:103C900084F83C00304670BD206801F035FA206899
:103CA000816941F0080181612068816921F0040186
:103CB0008161206881692A69114311E0206801F05F
:103CC00079FA2068816941F4006181612068816925
:103CD00021F480618161206881692A6941EA0221B9
:103CE0008161D4E7206801F0B5FA2068C16941F02C
:103CF0000801C1612068C16921F00401C161206827
:103D0000C1692A69114311E0206801F0F3FA2068C3
:103D1000C16941F40061C1612068C16921F4806119
:103D2000C1612068C1692A6941EA0221C161AEE727
:103D3000206801F02FFB2068016D41F0080101654A
:103D40002068016D21F0040101652068016D2A6978
:103D5000114311E0206801F059FB2068016D41F426
:103D6000006101652068016D21F4806101652068B2
:103D7000016D2A6941EA0221016588E710B5040056
:103D800003D094F83D0010B107E0012010BD0020E1
:103D900084F83C00204600F022F8022084F83D0020
:103DA000211D206801F010F9012084F8480084F8F2
:103DB0003E0084F83F0084F8400084F8410084F815
:103DC000420084F8430084F8440084F8450084F8F5
:103DD000460084F8470084F83D00002010BD70477D
:103DE00070B50446022269B1042912D0082917D0FF
:103DF0000C291CD0102921D094F84300012824D08C
:103E0000012070BD94F83E000128F9D184F83E20CD
:103E10001DE094F83F000128F2D184F83F2016E01D
:103E200094F840000128EBD184F840200FE094F88A
:103E300041000128E4D184F8412008E094F84200D0
:103E40000128DDD184F8422001E084F843200122DA
:103E5000206801F02BF91D4920681D4A1D4B1E4D9D
:103E600088420BD0904209D0984207D01B4EB042F6
:103E700004D01B4EB04201D0A84203D1466C46F498
:103E8000004646642068884211D0B0F1804F0ED0C1
:103E9000144988420BD01449884208D013498842FB
:103EA00005D0904203D0984201D0A84207D1816842
:103EB0000F4A1140062906D0B1F5803F03D00168B2
:103EC00041F001010160002070BD0000002C0140A4
:103ED00000340140004001400050014000440140D6
:103EE000004801400004004000080040000C004071
:103EF0000700010090F88410012918D0012180F8F2
:103F000084102421C0F8881001680A680B6823F027
:103F100001030B6022F00051002242660368196021
:103F20002021C0F8881080F88420104670470220B5
:103F3000704770B5044690F8840001281DD0012018
:103F400084F884002420C4F888002068056802688A
:103F500022F0010202602068826822F060620A4357
:103F60008260204601F0B4FA206805602020C4F881
:103F70008800002084F8840070BD022070BD70B5F8
:103F8000044690F8840001281DD0012084F88400A4
:103F90002420C4F8880020680568026822F0010225
:103FA00002602068826822F060420A4382602046F4
:103FB00001F08EFA206805602020C4F888000020F7
:103FC00084F8840070BD022070BD10B5040003D0D9
:103FD000D4F8880010B107E0012010BD002084F85B
:103FE0008400204600F026F82420C4F888002068C9
:103FF000016821F001010160A06A10B1204601F0C2
:1040000089FA204601F06AFB0128E6D02068416861
:1040100021F4904141602068816821F02A0181608B
:104020002068016841F0010101602046BDE81040B0
:1040300001F0D4BA70B59CB00646142115A8FCF75F
:10404000D2F954216846FCF7CEF9224930688842FB
:104050003ED104200025009003956846FEF790FCB1
:1040600008B1FCF724FB1C49886D40F4802088656A
:10407000886D00F480201A90C86C40F00200C8647B
:10408000C86C15A900F002001A904FF4406015901A
:104090000220CDE916050720CDE918500F48FDF79D
:1040A00063FD104C0E4820601C20C4E901058020EF
:1040B000C4E9035020206561C4E90650204625620A
:1040C000FDF7C6FA08B1FCF7F2FAC6F88040A6621E
:1040D0001CB070BD004800400010024000040048C1
:1040E0000800024038060020FEE70000F0B500237B
:1040F0000A24302537261F4611E000BFB4EB107F9D
:1041000002D905EB107C01E006EB107C01F813C02E
:1041100001EB430C00015B1C8CF80170DBB2934295
:10412000ECD3F0BD00EB8100006E00F0F84070476A
:104130008068C0F3C00070478068C0F3C00070475B
:104140008068C0F3800070478068C0F380007047CB
:10415000C06810F4406F01D0002070470120704704
:10416000042303EAD15310B518444369C1F3045141
:1041700007248C40A3438A401343436110BD00EBE6
:104180008100016E21F0004111430166704700007B
:1041900010B5044600F078FD20489FED221ADFEDAF
:1041A000220A40881E4900EE100A204A0880B8EE14
:1041B000400A20EE010A60EE200AC1ED030A91EDEB
:1041C000050A30EEC00A10EE100A904202DD30EE11
:1041D000410A06E010EE100A154A904201D930EE6D
:1041E000010ADFED141A144A20EE210A81ED040AB7
:1041F00000EE104AC1ED050AB8EE400A20EE800A32
:1042000081ED020A04E000BF30EE410A81ED020AAE
:1042100010EE100A9042F7DC10BD0000A80100204B
:10422000341A0020DB0FC94000008038DB0F494002
:10423000DB0F49C000409C46DB0FC94030B593B04E
:1042400000240F9410943C2168461194FCF7CBF89D
:104250002F484FF0A041042501604FF44031C0E9E0
:10426000011485610121C460C0E9044104774477E9
:10427000016280F8244080F83840C46380F84040F0
:10428000FCF7F8FF08B1FCF712FA0FA920480F94C9
:10429000FCF7E2FD08B1FCF70AFA1E48009009207D
:1042A000CDE901047F200594CDE9030503200890A2
:1042B00084200A908DF824404FF480708DF82540BA
:1042C0000B908DF826408DF8304069461048FCF779
:1042D000FFF908B1FCF7EBF90F48009040F20F101E
:1042E000019069460A48FCF7F3F908B1FCF7DFF9D9
:1042F0000A48009040F21520019069460448FCF7F6
:10430000E7F9002801D0FCF7D2F913B030BD000066
:10431000B801002002003004040060080800900C7E
:1043200070B590B03C216846FCF75DF81F481E4907
:10433000002401604FF44031C0E90114C460042539
:104340000461C0E90545047744770126066280F8D8
:10435000244080F83840C46380F84040FCF78AFF6E
:1043600008B1FCF7A4F9124800900920CDE9010436
:104370007F2008960594CDE9030584200A908DF8E6
:1043800024404FF480708DF825400B908DF8264026
:104390008DF8304069460548FCF79AF9002801D0AD
:1043A000FCF785F910B070BD000100502402002018
:1043B0000008302E154808B5816C41F00401816475
:1043C000816C01F004010091816C41F00101816474
:1043D000806C002200F00100009011460B20FDF7D8
:1043E00053FD0B20FDF742FD002211460C20FDF786
:1043F0004BFD0C20FDF73AFD002211460D20FDF784
:1044000043FDBDE808400D20FDF730BD001002401F
:10441000124810B510490160002141608160C160FF
:104420000174417481741122426101221023C0E998
:1044300006230323C0E908328262C262C0E90C216C
:104440008163C163FDF72CFA002803D0BDE810405A
:10445000FCF72DB910BD000000640040940300205B
:104460002DE9F04786B014216846FBF7BCFF3B48B6
:10447000C16C41F02001C164C16C01F020010591C3
:10448000C16C41F00101C164C16C01F001010591F1
:10449000C16C41F00401C164C16C01F004010591DB
:1044A000C16C41F00201C164C16C01F002010591CF
:1044B000C16C41F00801C164C06C4FF4004400F0CD
:1044C00008004FF090470590002221463846FDF73E
:1044D0006FFCDFF88C802611002231464046FDF744
:1044E00067FCDFF88090002204214846FDF760FC5D
:1044F000DFF874A00022C0215046FDF759FC00945B
:1045000001240025694638460194CDE90245FDF7AE
:104510002BFBCDE900640226CDE9026569464046E1
:10452000FDF722FB042003958DE8510069464846BB
:10453000FDF71AFB40208DE85100032003906946E7
:104540005046FDF711FB80208DE83100694650464A
:104550000395FDF709FB06B0BDE8F08700100240A7
:1045600000080048000C004800040048124810B53C
:10457000104901604FF48271416000214FF4706274
:10458000C0E90212022202610122426152028261EA
:104590001822C0E9072107224162C0E90A1201631B
:1045A0004163FEF7B7FE002803D0BDE81040FCF7DA
:1045B0007EB810BD00300140F8030020124810B54D
:1045C000104901604FF48271416000214FF4E062B4
:1045D000C0E902120222C0E9042112028261102203
:1045E000C0E9072107224162C0E90A1201630821DC
:1045F0004163FEF78FFE002803D0BDE81040FCF7B2
:1046000056B810BD003C00405C04002010B59CB0C2
:10461000002419941A9417941894149415941C2136
:1046200068461694FBF7DFFE342107A8FBF7DBFE94
:1046300038483749C0E900144021816041F29A01AD
:10464000C0E9031444618461FFF78EF908B1FCF7F7
:104650002EF84FF48050179017A92E48FFF722FA32
:1046600008B1FCF724F82B48FFF788FB08B1FCF7EA
:104670001EF81494159414A926481694FFF7B2F85E
:1046800008B1FCF714F86020CDE90004029403940B
:1046900004940594002269461E480694FFF7DCFA4C
:1046A00008B1FCF704F8042269461A48FFF7D4FA67
:1046B00008B1FBF7FCFF082269461648FFF7CCFA61
:1046C00008B1FBF7F4FF0C2269461248FFF7C4FA61
:1046D00008B1FBF7ECFF0794089409944FF40050DD
:1046E0000A94CDE90B400D9400030E94CDE90F40E0
:1046F0001194129407A907481394FFF71FF808B103
:10470000FBF7D5FF0348FFF745FA1CB010BD0000CA
:10471000002C0140C004002010B58EB00024079486
:10472000089409940A940B940C941C2168460D94E7
:10473000FBF759FE1C484FF08041C0E90014A92145
:10474000C0E9024104618461FFF70EF908B1FBF78B
:10475000AEFF4FF48050079007A91348FFF7A2F966
:1047600008B1FBF7A4FF1048FFF708FB08B1FBF7FF
:104770009EFF0B940BA90C480D94FFF733F808B17A
:10478000FBF795FF6020CDE9000402940022694602
:1047900005480494FFF760FA08B1FBF788FF024868
:1047A000FFF7F8F90EB010BD0C05002010B588B069
:1047B00000241848009401940294039404940594EE
:1047C00013490694016044F26721C0E901144FF6D1
:1047D000FF71C0E903148461FFF7C6F808B1FBF765
:1047E00066FF4FF48050009069460A48FFF75AF977
:1047F00008B1FBF75CFF049404A906480694FEF791
:10480000F1FF002801D0FBF752FF08B010BD0000F7
:104810000004004058050020174810B515490160F4
:1048200016494160002181600C22C160C0E9041278
:104830008161C161016241628162FFF7C6FB08B11B
:10484000FBF735FF00210C48FFF799FB08B1FBF798
:104850002EFF00210848FFF76CFB08B1FBF727FF8C
:104860000548FFF747FB002803D0BDE81040FBF7E1
:104870001EBF10BD00480040A405002080841E001B
:1048800010B500220F49104801F0C8FB08B1FBF732
:104890000EFF0E490C4801F098FD08B1FBF707FF29
:1048A0000B49094801F006FA08B1FBF700FF06487A
:1048B00001F006FE002803D0BDE81040FBF7F7BE6C
:1048C00010BD000004000020940B002058010020BF
:1048D00058000020FEE7FEE72DE9F84F044640F6B9
:1048E0008F7A40F2064B48F60F784FF00009B5E199
:1048F000B0F8441011F00F053AD030F825603104BB
:104900007DD530F8251001EA0A0141F0800120F838
:10491000251005EB850004EBC00797F85C0107F54F
:10492000A87700286CD0F87802286AD039782268F5
:1049300032F8210048F68F73184048F2C00318433C
:1049400022F821003878D4F800C03CF8201049043F
:10495000BCF8501001EB0C027ED540F2024101EB95
:10496000C000105A8005800D009076D03A89D0E0C2
:10497000C9062AD4018801EA080141F400410180F6
:10498000206804F11005B0F85010227C014440F278
:10499000024000EBC200085AC0F30900E062616AFD
:1049A0000844606200212046FDF7F2FA207B0028CF
:1049B0009DD0A86900289AD1207B40F08001206812
:1049C000A0F84C1084F80C9048E1018804F5A87513
:1049D0000A051ED5B0F850102A7801440BEBC2002E
:1049E000085A04F52671C0F30903EB61EA882068D0
:1049F00002F085FB2168088800EA0A0002E0A4E0D2
:104A000068E077E040F0800008802046FDF723FF53
:104A100024E10904D8D5018801EA0A0141F08001A6
:104A200001802068B0F850100A1828780BEBC000FD
:104A3000105A83059B0DEB610DD0696959B1EA8865
:104A4000206802F05CFBE96968690844686100213C
:104A50002046FDF7A6FA01E053E051E02068018806
:104A60000A05B1D4C1F301310329ADD0B0F850101B
:104A70000844B0F80614C1F30901A0F80614296926
:104A800000F206403E2909D94A09C90600D1521E42
:104A900001884FF4004343EA822209E0B1B14A0899
:104AA000C90700D0521C01884FF6FF7303EA822227
:104AB00011430180216808884BF68F72104080F402
:104AC000405048F2800210430880C7E0018841F45A
:104AD0000041EEE72068B0F850103B780A180BEB65
:104AE000C301515A8905890D009117D0FA88796957
:104AF000009B11E0324639462046FDF7AEFA0090A1
:104B00000CE00BEBC000105A8005800D009005D022
:104B10007A8903466046796902F0F1FAF9690098EA
:104B20000844F8617969009808447861B86918B157
:104B300039690098814204D939782046FDF731FA65
:104B400003E03946206802F057F830062DD505EB12
:104B5000850004EBC001206830F8252002EA080235
:104B600042F4004220F82520C87C103101281DD0D5
:104B7000F0056FD42268B2F8500083180A7840F22A
:104B8000024000EBC200185A8A69C0F30900824251
:104B900058D9121A8A6157D04A6902444A61CA69CF
:104BA0001044C861206802F027F857E0C1F8189057
:104BB0000A7B48461AB3720622D54A7812B1012AF6
:104BC00014D041E02068B0F8502010440A7800EB7F
:104BD000C200B0F80224C2F30902A0F80224B0F81F
:104BE000022442F40042A0F802242DE02268B2F828
:104BF00050301A440B7802EBC302A2F8020423E0FF
:104C00004B78226813B1012B13D01DE0B2F850008D
:104C100010440A7800EBC200B0F80624C2F309027F
:104C2000A0F80624B0F8062442F40042A0F80624B6
:104C30000AE0B2F850301A440B7802EBC302A2F833
:104C4000060401E0C1F8189009782046FDF7A0F9A4
:104C500004E0FFE732462046FDF76DFA2068B0F821
:104C6000441009043FF544AE0020BDE8F88F7047BA
:104C700010B500F009F8024802494088088010BDCC
:104C8000A8010020341A00202DE9FE4F4FF4034004
:104C9000ADF804004FF404400025DFF8B4B02D4C0B
:104CA000ADF806000DF104090DF1080A6E1E4FF073
:104CB0000108002204215F465846FDF779F80123D8
:104CC00002AA01A924480096FEF7EEFB0122042166
:104CD0003846FDF76DF8002204213846FDF768F8E4
:104CE00001230AF1020209F102011B480096FEF7B6
:104CF000DBFB012204213846FDF75AF8BDF8080015
:104D0000BDF80A10C0B260F31F21002221801046B6
:104D10004FEA080303FA00F7394201D0521CD2B21D
:104D2000401CC0B21028F5D3D00707D000206D1C5E
:104D3000EDB26071032DBCD3BDE8FE8F84F8058011
:104D4000C1F38D006080C1F340002071F4E70000E2
:104D5000000C0048A8010020F8030020F8B5154613
:104D60000E460B460092044600224FF4C05100F05C
:104D700019F888B93346002280212046009500F0BA
:104D800081F848B9334600224FF4C06120460095AF
:104D900000F008F8002804D0206E40F020002066C3
:104DA0000320F8BD2DE9FE4F4FF0000A9846174644
:104DB0000E4604460C9D8DF804A0FCF7FFFF411B36
:104DC000A8EB0105FCF7FAFF814620684FF4C06BA1
:104DD0000C3002902A480068C0EBC00000EB800055
:104DE000000D6843009043E05E4506D12FB902985C
:104DF00000788DF804009DF80400B8F1FF3F37D02B
:104E0000FCF7DCFFA0EB0900A84203D215B1009823
:104E100058B32BE02068416821F0E00141606068F0
:104E2000B0F5827F0BD1A068B0F5004F02D0B0F58D
:104E3000806F04D12068016821F040010160A06A00
:104E4000B0F5005F09D12068016821F400510160CC
:104E50002068016841F400510160012084F85D0080
:104E600084F85CA00320BDE8FE8F0025401E009062
:104E7000206880683040B842B6D10020F3E70000D7
:104E8000780000202DE9F8431E46914688460446E6
:104E9000089DFCF793FF401B351AFCF78FFF074670
:104EA00025480068C0F3CB30684338E0701C37D029
:104EB000FCF784FFC01BA84203D215B1009860B371
:104EC0002CE02068416821F0E00141606068B0F5A5
:104ED000827F0BD1A068B0F5004F02D0B0F5806F93
:104EE00004D12068016821F040010160A06AB0F59A
:104EF000005F09D12068016821F400510160206839
:104F0000016841F400510160012084F85D00002037
:104F100084F85C000320BDE8F8830025401E009063
:104F20002068816838EA010004D000214945BDD1DC
:104F30000020F0E70121F9E77800002070470178B0
:104F4000407841EA00207047FCF73EBF10B594B0AE
:104F500038216846FBF747FA14210EA8FBF743FAFD
:104F60000020FDF7A7FC212000904FF48030019035
:104F70000120069002200324CDE907045521CDE944
:104F800009010421CDE90B010D906846FDF7C0FF32
:104F900008B172B6FEE70F20CDE90E040020109094
:104FA0001190129004210EA8FDF76AFE002801D08E
:104FB00072B6FEE714B010BD0248016841F47001FA
:104FC0000160704788ED00E02DE9F04F02682E4B3C
:104FD0002E4E2F4FDFF8BCC02F4C304D4FF0804B82
:104FE00098420BD0584509D0B04207D0B84205D0FE
:104FF000604503D0A04201D0A84204D122F070083D
:105000004A6842EA0802DFF89880DFF89890DFF8F3
:1050100098A0984211D058450FD0B0420DD0B84258
:105020000BD0604509D0A04207D0404505D0484587
:1050300003D0504501D0A84203D122F44076CA687B
:1050400032434E6922F08002324302608A68C262B3
:105050000A688262984209D0A04207D0404505D034
:10506000484503D0504501D0A84201D109690163E8
:10507000012141610169C90703D0016921F00101E2
:105080000161BDE8F08F0000002C014000040040E9
:1050900000080040000C0040003401400050014076
:1050A00000400140004401400048014010B501F0BB
:1050B0001F030121046A99408C430462016A9A40EB
:1050C0001143016210BD10B501F00F030421046A01
:1050D00099408C430462016A9A401143016210BDF9
:1050E00010B5846842EA032224F47F440A43224331
:1050F000826010BD8268034B1A400A4342F00701E8
:10510000816070478FFFCFFF2DE9F047056A026A83
:1051100022F001020262436882691F4C25F00205F9
:1051200022400C6822F0030214438A681C4E2A4372
:105130001A4D1C4FDFF870C0DFF87090DFF870A0D8
:10514000A84209D0B04207D0B84205D0604503D08C
:10515000484501D0504506D122F00808CA6842EA05
:10516000080222F00402A84209D0B04207D0B84297
:1051700005D0604503D0484501D0504505D14D6963
:1051800023F440731D438B692B434360846149685A
:1051900041630262BDE8F0878FFFFEFF002C0140F3
:1051A00000340140004001400044014000480140FB
:1051B00000500140F0B5056A026A22F01002026256
:1051C000426883691C4C1E4E23400C6823F44073D4
:1051D00043EA042425F020038D681A4F43EA05139F
:1051E000164DA84203D0B04201D0B84207D1D1F841
:1051F0000CC023F0800343EA0C1323F04003A842C1
:105200000CD0B0420AD0104DA84207D00F4DA84292
:1052100004D00F4DA84201D0B84207D14D6922F405
:10522000406242EA85028D6942EA850242608461F9
:10523000496881630362F0BDFF8FFFFE002C0140CF
:105240000034014000500140004001400044014052
:1052500000480140F0B5056A026A22F480720262D9
:105260004368C2691C4C1E4E22400C6822F00302A7
:10527000144325F400728D681A4F42EA0522174D37
:10528000A84203D0B04201D0B84207D1D1F80CC037
:1052900022F4006242EA0C2222F48062A8420CD07E
:1052A000B0420AD0104DA84207D0104DA84204D0F9
:1052B0000F4DA84201D0B84207D14D6923F44053A5
:1052C00043EA05138D6943EA05134360C4614968E5
:1052D000C1630262F0BD00008FFFFEFF002C0140A1
:1052E00000340140005001400040014000440140B2
:1052F00000480140F0B5056A026A22F48052026259
:105300004268C3691C4C1E4E23400C6823F4407352
:1053100043EA042425F400538D681A4F43EA053309
:10532000164DA84203D0B04201D0B84207D1D1F8FF
:105330000CC023F4004343EA0C3323F48043A84217
:105340000CD0B0420AD0104DA84207D00F4DA84251
:1053500004D00F4DA84201D0B84207D14D6922F4C4
:10536000404242EA85128D6942EA85124260C46178
:10537000496801640362F0BDFF8FFFFE002C01400D
:105380000034014000500140004001400044014011
:105390000048014030B5056A026A22F48032026298
:1053A0004268036D124C23400C681C4325F4003303
:1053B0000D8943EA05430F4DA8420ED00E4DA84279
:1053C0000BD00E4DA84208D00D4DA84205D00D4D72
:1053D000A84202D00C4DA84204D14D6922F480327B
:1053E00042EA05224260046549688164036230BD77
:1053F0008FFFFEFF002C01400034014000400140BF
:1054000000440140004801400050014030B5046AAA
:10541000026A22F4801202624268036D134D24F482
:1054200000142B400D6843EA05230D8944EA055416
:105430000F4DA8420ED00F4DA8420BD00E4DA842E2
:1054400008D00E4DA84205D00D4DA84202D00D4DFA
:10545000A84204D14D6922F4802242EA85224260AA
:1054600003654968C164046230BD0000FF8FFFFE20
:10547000002C014000340140004001400044014044
:10548000004801400050014010B5036A046A24F04E
:1054900001040462846924F0F00444EA021423F055
:1054A0000A020A438461026210BD10B5036A046AED
:1054B00024F010040462846923F0A00324F47044EF
:1054C00044EA023243EA01118261016210BD000028
:1054D00030B5416EB9B1026891689268C1F342611A
:1054E0000B4B520F9C5CE50003F10804A25CB5FB7A
:1054F000F2F2A0F86A205A5C615CD200B2FBF1F1D2
:10550000A0F8681030BD0121A0F86A10F8E700008B
:10551000BA7F000890F82810090706D501684A6884
:10552000836B22F400421A434A6090F82810C9079E
:1055300006D001684A68C36A22F400321A434A60FE
:1055400090F82810890706D501684A68036B22F491
:1055500080321A434A6090F82810490706D501683E
:105560004A68436B22F480221A434A6090F828105C
:10557000C90606D501688A68C36B22F480521A43B3
:105580008A6090F82810890606D501688A68036C3D
:1055900022F400521A438A6090F82810490611D567
:1055A00001684A68436C22F480121A434A60416CD5
:1055B000B1F5801F06D101684A68836C22F4C002ED
:1055C0001A434A6090F82810090606D501684A680F
:1055D000C06C22F4002202434A6070472DE9F84370
:1055E00000260446C0F89060FCF7E8FB804620687F
:1055F00000684FF0200500076FF07E4713D5434643
:10560000002229042046009700F0B4F958B121681F
:1056100051E8000F20F0800041E80002002AF6D196
:10562000C4F8885021E020680068400722D543462E
:1056300000224FF480012046009700F09BF9C8B18A
:10564000216851E8000F20F4907041E80002002A20
:10565000F6D12068083050E8001F21F0010140E831
:105660000012002AF5D1C4F88C5084F8846003201D
:10567000BDE8F883C4F88850C4F88C5044F86C6FC7
:10568000666026760020F3E710B5026852E8001F36
:1056900021F4907142E80013002BF6D10E4B026802
:1056A000083252E8001F194042E80014002CF6D1DD
:1056B000C16E012908D1016851E8002F22F01002C3
:1056C00041E80023002BF6D12021C0F88C100021E6
:1056D000C166416710BD0000FEFFFFEF2DE9F041FC
:1056E0000446016880682269E36910436269002505
:1056F0001A431043DFF84CC20A68934B1A40024326
:105700000A6020684168E26821F440511143416019
:105710002168A069614501D0226A10438A688B4BD9
:105720001A4002438A602068C16A626A21F00F0150
:105730001143C1628649236886488B420DD1D0F857
:10574000880010F0030006D0012867D0022854D04A
:10575000032851D164E001204FE07F498B420BD1F7
:10576000D0F8880010F00C0047D0042845D0082855
:1057700052D00C2840D153E078498B420BD1D0F85D
:10578000880010F0300038D0102847D0202843D0AF
:10579000302831D144E072498B420BD1D0F88800D7
:1057A00010F0C00029D0402838D0802834D0C0283C
:1057B00022D135E06B498B420ED1D0F8880010F42D
:1057C00040701AD0B0F5807F28D0B0F5007F23D08C
:1057D000B0F5407F10D123E063450DD1D0F88800AB
:1057E00010F4406009D0B0F5806F17D0B0F5006FAD
:1057F00012D0B0F5406F13D010205B4A5B4F0026EB
:105800004FF40041634539D160B102280DD004281E
:105810000DD0082831D10EE00220EEE70420ECE79D
:105820000820EAE7FDF71AFB03E0114603E0FDF765
:1058300039FB01007BD0606A37F810206768B1FB44
:10584000F2F007EB4703834269D8B0EB073F66D815
:10585000002308461946FAF74FFD090241EA106194
:1058600002027808101871413A460023FAF744FD05
:105870003F4AA0F54071914257D950E0E3694FF695
:10588000EF788B422BD1092849D2DFE800F00508D8
:105890000D48254848480E00FDF7E0FA01E0FDF705
:1058A000EFFA010001D142E01146606A37F81000BA
:1058B000B1FBF0F04100606801EB5001B1FBF0F189
:1058C000A1F1100040452AD84FF6F07201EA02001B
:1058D000C1F34201084328E0FDF7E4FAE1E70928B3
:1058E0001DD2DFE800F005080D1C1E1C1C1C0E005C
:1058F000FDF7B4FA01E0FDF7C3FA010001D116E0AB
:105900001146606A37F81000B1FBF0F1606801EBF6
:105910005001B1FBF0F0A0F11001414504D901257F
:1059200005E0FDF7BFFAE8E780B22168C860012012
:10593000A4F86A0024F8680F2846E6602661BDE8EE
:10594000F081000000800040F369FFCFFFF4FF11F9
:105950000038014000100240004400400048004070
:10596000004C0040005000400024F400A27F0008DA
:10597000FFFC0F002DE9F047994617460D460446F7
:105980004FF00008089E33E0701C31D0FCF716FA87
:10599000A0EB0900B04218D8BEB1206801684907E1
:1059A00026D5802D24D0402D22D0C169C9430907B6
:1059B0000DD4082505622046FFF766FEC4F8905016
:1059C00084F884800120BDE8F0870320FBE7C069EC
:1059D000C04300050CD421684FF4006008622046E3
:1059E000FFF752FE2020C4F8900084F88480ECE792
:1059F0002068C06935EA000004D00020B842C3D056
:105A00000020E0E70120F9E710B50A46024903A0AB
:105A100000F0D4FA004810BD640E00204344432037
:105A2000436F6E66696700002DE9F0410C46D0F8BF
:105A3000C422D0F8BC12E9B104EB840600EB860561
:105A40000027AB693BB102EBC602126AB3FBF2F668
:105A500002FB163282B1C1F81472D0F8C002036999
:105A60002BB1D1F80802224601F5047198470020B5
:105A7000BDE8F0810320FBE700231A462146AF6111
:105A800000F084FCF3E770B5D0F8BC4205466CB179
:105A900000F073FBC4F80C02D5F8C012D4F804026D
:105AA000CA6804F503719047002070BD032070BDE3
:105AB00070B50446812100F0CDFA0025258701212B
:105AC000204600F0C7FAA4F878518221204600F061
:105AD000C1FAA4F84C50A4F84E50D4F8BC0248B116
