:020000040800F2
:10000000401C0020A1010008694A0008493E000880
:10001000C1480008750D00080D66000800000000CA
:10002000000000000000000000000000C5550008AE
:10003000E10E0008000000001D4F0008E55B00080D
:10004000BB010008BB010008BB010008BB010008A0
:10005000BB010008BB010008BB010008BB01000890
:10006000BB010008BB010008BB010008BB01000880
:10007000BB010008BB010008BB010008BB01000870
:10008000BB010008BB010008BB010008BB01000860
:10009000BB010008BB010008BB010008BB01000850
:1000A000BB0100088D5C0008BB010008BB01000813
:1000B000BB010008BB010008BB010008BB01000830
:1000C000BB010008BB010008BB010008BB01000820
:1000D000BB01000835620008BB010008BB01000835
:1000E000BB010008BB010008BB010008BB01000800
:1000F000BB010008BB010008BB010008BB010008F0
:10010000BB010008BB010008995C0008BB010008A6
:10011000BB010008BB010008A55C0008BB0100088A
:10012000BB010008BB010008BB010008BB010008BF
:10013000BB0100080000000000000000BB01000837
:10014000BB010008BB010008BB010008BB0100089F
:10015000BB010008BB010008BB010008BB0100088F
:10016000BB010008BB010008BB010008BB0100087F
:10017000BB010008BB0100080000000000000000F7
:10018000BB010008BB010008DFF810D000F0E0FB65
:1001900000480047D17E0008AFF30080401C0020DB
:1001A0000648804706480047FEE7FEE7FEE7FEE711
:1001B000FEE7FEE7FEE7FEE7FEE7FEE77D5C000800
:1001C000890100089FED1A1AF5EE000A40EE010AB7
:1001D000BDEEE00AF5EEC00A10EE100AF1EE10FADC
:1001E00038BF401E00EE100A1349F7EE001AB8EEB1
:1001F000C00A30EEC00ADFED0F0A20EE200AFCEE46
:10020000C00A10EE900AC0F3080000EE900A01EB5D
:100210008000F8EE600A90ED011A70EE600A90ED31
:10022000000A71EEE01A21EE800A00EE810A7047A2
:1002300083F9223E0000004408960008DFED190A09
:10024000B5EEC00A60EE200ABDEEE01A11EE100A0B
:10025000F1EE10FA38BF401E00EE100A1349F7EE17
:10026000001AB8EEC00A30EEC00ADFED0F0A60EEE9
:10027000200ABCEEE00A10EE100AC0F3080000EEFF
:10028000100A01EB8000B8EE400A90ED011A70EE02
:10029000C00A90ED000A71EEE01A21EE800A00EE2D
:1002A000810A704783F9223E000000440896000846
:1002B0002DE9F05F0546002092469B46884606469B
:1002C000814640241BE0284641464746224600F02E
:1002D00041FA53465A46C01A914110D31146184666
:1002E000224600F028FA2D1A67EB01084F462246F5
:1002F0000120002100F01FFA17EB00094E41201EDB
:10030000A4F10104DFDC484631462A464346BDE8F5
:10031000F09F40EA01039B0703D009E008C9121FC0
:1003200008C0042AFAD203E011F8013B00F8013BAF
:10033000521EF9D27047D2B201E000F8012B491EDB
:10034000FBD270470022F6E710B513460A46044672
:100350001946FFF7F0FF204610BD2DE9FE4F8046FD
:1003600081EA0300C00F0C46009021F0004123F009
:100370000045B8EB0200A94105D24046214690460F
:100380001C460B46024623F00040104347D0270D81
:10039000C7F30A00C3F30A510290401A01904028A3
:1003A0006BDAC3F3130040F4801B0098924620B12F
:1003B0000023D2EB030A63EB0B0B01985946C0F103
:1003C0004002504600F0B7F906460D4650465946E1
:1003D000019A00F0CFF910EB08006141002487EA90
:1003E000115284EAE7731A4340D0009A62B3019A2B
:1003F000012A4FEA075215DC001B61EB02014FF0A6
:10040000004202EA0752CDE90042001C41F580118A
:1004100032462B4600F006FA03B0BDE8F08F4046A6
:100420002146F9E7001B61EB0201001C41F5801336
:1004300000185B412018A2F5001747EB030140EAC2
:10044000D570B6196D4111E06D084FEA360645EAE0
:10045000C0754FEA0752001B61EB0201001C41F519
:10046000801149084FEA30000019514132462B46AD
:1004700003B0BDE8F04F00F0C6B90098012240007B
:100480000023D0EB020263EBE073009821464FEAB1
:10049000E074B8EB000061EB0401E9E783F000438E
:1004A0005BE781F0004158E72DE9FE4F81EA030444
:1004B00004F0004421F0004100944FF0000B23F0C1
:1004C000004350EA01045ED052EA03045BD0C3F358
:1004D0000A54C1F30A552C44A4F2F3340194A0FB4E
:1004E0000254C1F3130141F48011C3F3130343F425
:1004F000801301FB024400FB034E840A970A44EA7E
:10050000815447EA8357A4FB076802958D0A05FBCF
:1005100007854FEA932C04FB0C542705029D4FEAF4
:10052000065847EA1637B5EB08056EEB070C870E41
:10053000920E47EA811742EA8312A7FB0201B6EB4B
:100540000B0164EB00042B0D43EA0C335E1844EB03
:100550001C50DA465146E7FB0201C5F313044FEA8B
:100560000B3343EA14534FEA0432019C43EA060377
:10057000A4F10C040294009CCDE900B400F052F9FF
:1005800003B0BDE8F08F00200146F9E72DE9F04DFA
:1005900081EA030404F0004B21F0004514464FF0BB
:1005A000000A23F0004150EA050220D054EA01027B
:1005B0001DD0C5F30A570246C5F31303C1F3130058
:1005C000C1F30A5640F4801543F48013A7EB0608E4
:1005D000101BD64608F2FD3873EB050002D308F174
:1005E000010801E092185B41B8F1000F03DA002026
:1005F0000146BDE8F08D00204FF480110646844688
:100600000EE0171B73EB050705D3121B63EB050305
:1006100006434CEA010C49084FEA300092185B414E
:1006200050EA0107EDD152EA030012D082EA040039
:1006300083EA0501084305D0101BAB4106D2012215
:10064000002306E000224FF0004302E06FF00102B9
:1006500053101AEB06004CEB085110EB0A0041EB6B
:100660000B01BDE8F04D00F0CEB80EB5C10F80EA29
:10067000E0700844CA07002140F233438DE80E00C1
:100680000A460B4600F0CEF803B000BD0EB540F2AE
:10069000334102910021CDE900110A460B4600F0DA
:1006A000C1F803B000BDC1F30A5210B5C1F3130184
:1006B00040F2FF3341F480119A4201DA002010BD6C
:1006C00040F233439A42A2F2334203DC524200F03A
:1006D00041F810BD904010BD00F0004230F00040E5
:1006E0000AD0C10D01F56071C0F3160042EA015154
:1006F000C20840071143704700200146704701F0CF
:10070000004330B421F0004150EA010206D00A0D46
:10071000A2F56072C1F31301002A02DC30BC002094
:100720007047440F44EAC104C100E01830BC00EB3C
:10073000C25000F031B8202A04DB203A00FA02F15E
:10074000002070479140C2F1200320FA03F31943BF
:1007500090407047202A04DB203A21FA02F0002161
:10076000704721FA02F3D040C2F1200291400843C1
:1007700019467047202A06DBCB17203A41FA02F0CF
:1007800043EAE07306E041FA02F3D040C2F12002EE
:1007900091400843194670470029A8BF7047401C84
:1007A000490008BF20F00100704710B4B0FA80FC87
:1007B00000FA0CF050EA010404BF10BC704749B1C4
:1007C000CCF1200421FA04F411FA0CF118BF012134
:1007D00021430843A3EB0C01CB1D4FEA00614FEA14
:1007E000102042BF002010BC704700EBC3501044E3
:1007F0000029A4BF10BC7047401C490008BF20F06E
:10080000010010BC704710B5141E73F1000408DA23
:10081000401C41F1000192185B411A4301D120F0C4
:10082000010010BD2DE9F04D92469B4611B1B1FA81
:1008300081F202E0B0FA80F220329046FFF77BFFAF
:1008400004460F4640EA0A0041EA0B0153465A4665
:10085000084313D0114653EA010019D0C8F14002F1
:100860005046FFF777FF05460E465046594642462A
:10087000FFF761FF084305D0012004E02046394618
:10088000BDE8F08D0020054346EAE0762C4337436F
:100890000A986305E40AA0EB08000022FD0A44EA76
:1008A00047540A3002D500200146E9E70105101936
:1008B0006941DDE9084500196941BDE8F04DA2E74D
:1008C00070B521F0004303430CD0C1F30A55002456
:1008D000D5EB040564EB0403D617AD1AB34102DB74
:1008E0000020014670BD201841EB025170BD000090
:1008F00030B5041E71F1000404DB4FF000444042A7
:1009000064EB0101141E73F1000405DB1C464FF07B
:100910000043524263EB04038B4208BF824230BD66
:1009200030B5041E71F1000404DB4FF00044404276
:1009300064EB0101141E73F1000405DB1C464FF04B
:100940000043524263EB0403994208BF904230BD1A
:10095000064C074D06E0E06840F0010394E807000C
:1009600098471034AC42F6D3FFF712FCD89E00082B
:10097000F89E00082DE9F04D00231A461B1A8A4103
:1009800003DB00200146BDE8F08DC1F30A52C1F33C
:10099000130141F480154FF0000BD10702D100186C
:1009A0006D41521E0027044640F2FF11384601EB0C
:1009B000620A3E468046024600204FF48011FFF74F
:1009C000C9FEC2197141BB1846EB0100B4EB030C20
:1009D00075EB000C04D3E41A65EB000517460E46D0
:1009E000241908F101006D4180463428E3DDF9192E
:1009F00046EB0600091BA84103D24FF0FF32134615
:100A000001E0002213461BEB070046EB0A51BDE84C
:100A1000F04DFFF7F8BE70B58C1810F8015B15F0BB
:100A2000070301D110F8013B2A1106D110F8012B60
:100A300003E010F8016B01F8016B5B1EF9D12B0785
:100A400005D40023521E0DD401F8013BFAE710F83B
:100A5000013BCB1A921C03E013F8015B01F8015B28
:100A6000521EF9D5A142D8D3002070BD10B5014661
:100A7000806B026C12F0500F05D0026CD20626D5A6
:100A800000F0BCFF10BD016C41F40071016401680D
:100A90008A6812F0405F17D1027EAAB9CA6A12F4BE
:100AA000700F02D08A6852050ED44A6822F02002E4
:100AB0004A60016C21F480710164016CC90403D4A3
:100AC000016C41F00101016400F096FF10BD806BE4
:100AD000C26CBDE810400846104710B5806B40213D
:100AE0000164416C41F00401416400F087FF10BDD6
:100AF00010B5806B00F081FF10BD0000464910B5B5
:100B00004A6822F440324A604A6843681A434A609D
:100B100001684A6822F480724A6001684A68036981
:100B200042EA03224A6001684A6822F040724A6041
:100B300001684A6883681A434A6001688A6822F437
:100B400000628A6001688A68C3681A438A60816AA1
:100B50006FF07062D14201688A6822F070628A6028
:100B600001688A680CD0836A1A438A6001688A68BF
:100B700022F040528A6001688A68C36A1A4301E021
:100B800022F040528A6001688A6822F002028A607C
:100B900001688A68037E42EA43028A6090F8201066
:100BA000002901684A680FD042F400624A60016877
:100BB0004A6822F460424A6001684A68174C436AF6
:100BC00004EB43331A4301E022F400624A600168F7
:100BD000CA6A22F47002CA620168CA6A838B104C26
:100BE00004EB03531A43CA6201688A6822F4007254
:100BF0008A6001688A6890F8303042EA43228A604D
:100C000001688A6822F480628A6001688A684069A3
:100C100042EA8020886010BD0023014000E0FFFF11
:100C20000000F0FF2248DFED251AA0F114024188F0
:100C3000B2F91030B0EE612AC91A00EE101AA0F114
:100C40002801F8EEC00A9FED1B0A20EE801ADFEDA6
:100C50001A0A01EE602A9FED1A1A22EE012A81ED8E
:100C6000022A0388B2F912209A1A02EE102AB8EE6C
:100C7000C22A22EE002A42EE601A21EE811A81ED8C
:100C8000031A428901EE102AB8EE411A21EE000A39
:100C900020EE200AF3EE000A20EE200A81ED000A81
:100CA000808900EE100AB8EE400A81ED010A704713
:100CB000EC04002000008039333353403333D33FFA
:100CC000555585410D489FED0E0AA0F11401D0ED58
:100CD000000AD1ED001A20EE801ADFED0A0A01EEBB
:100CE000A01A80ED001A90ED011A21EE000A91ED94
:100CF000011A01EE200A80ED010A7047D804002095
:100D00001D327F3F2EE34D3B2DE9F0470025DFF8F4
:100D100060902F462E46A9F128080024B9F8022039
:100D2000A8F81020B9F80000A8F81200012007F078
:100D30006DF8641CE4B2642CF0D3B8F81010B8F865
:100D400012006D1C39443044EDB28FB286B20A2DC8
:100D5000E3D30A20B7FBF0F2B6FBF0F00449A2F2AD
:100D6000FF721439A0F2FF700A824882BDE8F08752
:100D7000EC040020FEE7000090ED010AD0ED020A2D
:100D800030EE201A30EE600ADFED050AB1EE411AAE
:100D900020EE200A80ED031A80ED040A704700005F
:100DA0003ACD133F1F4810B5407C012808D00228D7
:100DB00009D0032829D0052833D104F099FD2CE06F
:100DC00004F056FE29E01848007810B104F0FCFC4D
:100DD00001E003F03BF815480078F0B111491448E0
:100DE0003C3991ED030A80ED020A91ED040A1149A4
:100DF00080ED030A91ED000A80ED000A91ED010AF1
:100E000080ED010A04F092F907E00B48007810B178
:100E100002F022FF01E002F093FDBDE8104000F077
:100E20007DB810BD0C0D00200B040020090000202F
:100E300030120020341300200A0400200168182317
:100E4000CAB2103AB2FBF3F2054B6FF30901032A61
:100E50009B5CC36500D9091D816508467047000089
:100E6000E595000810B5014600208B698A6A4FF0AD
:100E7000C07453B1B3F5005F15D072B1012A0CD024
:100E8000022A0AD0032A09D104E01AB1012A06D0A5
:100E9000022A03D1C96AC90100D5012010BDC96A5F
:100EA000A142FAD010BD002AF7D0012AF2D0022ABE
:100EB000F3D0032AF3D010BD30B50468256825F4BB
:100EC00080252560046863608368402B036803D035
:100ED00099600068C26030BD9A600068C16030BD32
:100EE000704772B6FEE700000B48017C07290FD25D
:100EF000DFE801F00E0406100E080A00012104E0EC
:100F0000022102E0032100E005214174FFF74ABFFE
:100F100003F0C8BC704700000C0D002006480749CC
:100F200090ED000A81ED000A90ED010A084681ED7E
:100F3000010A04F049BB0000F80C00203413002023
:100F40002DE9F0474C482DED028B007800264B4DE3
:100F50004B4C002871D04B484B49042700684FF098
:100F60000109884208DD0220207003F09BFC2F74E9
:100F7000FF22002110460AE04449884209DA84F839
:100F8000009003F08FFC2F74FF221146002003F025
:100F90004DF9DFF8FC8098ED010A06F0FDFFB0EE98
:100FA000408A98ED000AF6EE000A20EE200A06F0CC
:100FB000F3FFB4EEC08AF1EE10FA18D22F482838A9
:100FC00090ED040A06F0E8FFD8ED060A9FED311A0D
:100FD00070EEC10AB4EEE00AF1EE10FA02DB208AEC
:100FE000401C2082208AB0F5FA7F02D016E02682CB
:100FF00014E003F057FC0320207026822F74002297
:101000001146FF2003F012F92349C1F8B492C1F848
:10101000B892C1F8BC922149C1F8BC92204821493C
:101020000068884209DB03F03DFC062020700522A1
:101030000A21FF2003F0FAF82F74287C042817D027
:1010400060894FF00002401C80B260812670B0F5CC
:101050007A7F01D2502100E00021002003F0E6F861
:1010600060894FF4FA61B0FBF1F201FB120060817C
:10107000BDEC028BBDE8F087050000200C0D0020C0
:1010800034040020D804002000007041000010410A
:10109000A01100209A99993E000041420000404270
:1010A0001C0400200000B4422DE9FF4F81B002F182
:1010B000070A4FEADA000026009031E000252AE016
:1010C0000F980028009810FB06F10E982844085C41
:1010D00001D1C043C0B281460298002400EB06084B
:1010E00001984FF0800B00EBC50700BF2BFA04F00E
:1010F00010EA090F07EB040008F0FF01C0B201D0AD
:10110000012200E0002203F06FFD641CE4B2082C11
:10111000ECD36D1CEDB2B5EBDA0FD1D3761CF6B281
:1011200004988642CAD305B0BDE8F04F03F0B0BCC6
:101130002DE9FE4F161ACDE900104FF000085D1A98
:1011400047464FF0FF30002E02DD4FF0010102E074
:1011500003D14FF000018B4602E08346C6F1000642
:10116000002D02DD4FF0010002E003D14FF000003E
:10117000824602E08246C5F10005AE4201DD3446FA
:1011800000E02C46601C4FF00009029019E0009826
:101190000C9AC1B20198C0B203F026FDB0442F44AE
:1011A000A04504DD0198A8EB040858440190A7422B
:1011B00003DD00983F1B5044009009F101001FFA25
:1011C00080F902998945E2DDBDE8FE4F03F060BC7D
:1011D0002DE9F0471D46144688460646C2F18007B1
:1011E000DDF8209013E0102C16D00C2C12D14B46B9
:1011F0002A464146304600F085F83019C6B2B7425B
:1012000004DA08EB0400002600F0FF08AD1C287883
:101210000028E8D1BDE8F0874B462A4641463046D3
:1012200000F0BEF8E9E700002DE9F84F203A00246D
:10123000DDF828B00F46064602F0FF0A7F2802D9E3
:1012400000268F1CFFB28020102B0DD0082B52D10E
:101250002A4A02EBCA018246CDF800100098BBF181
:10126000000F005D27D124E0254804EB0A11BBF1F3
:10127000000F405C01D1C043C0B28146002507EB9E
:1012800004088020E84010EA090F06EB050008F08A
:10129000FF01C0B201D0012200E0002203F0A4FC53
:1012A0006D1CEDB2082DECD3641CE4B2102CDBD322
:1012B0001DE0C043C0B28146002507EB040800BF13
:1012C0002AFA05F010EA090F06EB050008F0FF0105
:1012D000C0B201D0012200E0002203F085FC6D1CA9
:1012E000EDB2082DECD3641CE4B2082CB6D3BDE8F3
:1012F000F84F03F0CDBBBDE8F88F00009C840008D8
:10130000948700082DE9FF5F9B4601231578234948
:10131000002000BF00EB800404EBC00411F814604F
:10132000AE4232D101EB440A56789AF80140B442F9
:101330002BD100244FF080090AEB0400BBF1000F11
:10134000807801D1C043C0B280460198009900EB7B
:10135000540704F00100002501EBC00629FA05F04E
:1013600010EA080F06EB0500F9B2C0B201D0012265
:1013700000E0002203F038FC6D1CEDB2082DEDD327
:10138000641CE4B2182CD7D303E0401CC0B29842CE
:10139000C0D3BDE8FF5F03F07BBB0000A68D000853
:1013A0002DE9FF5F0125147822499B46002000BFEC
:1013B00000EB001311F81360A64232D101EB430A8F
:1013C00056789AF80130B3422BD100244FF08009AF
:1013D0000AEB0400BBF1000F807801D1C043C0B21A
:1013E00080460198009900EB540704F001000025A5
:1013F00001EBC00629FA05F010EA080F06EB05001C
:10140000F9B2C0B201D0012200E0002203F0ECFBEF
:101410006D1CEDB2082DEDD3641CE4B2202CD7D3A3
:1014200003E0401CC0B2A842C2D3BDE8FF5F03F096
:101430002FBB0000848D00082DE9FF4F81B01D46B1
:10144000DDE90E7A934681464FF00008102F04D054
:10145000082F35D10626002430E00826FBE7281B9C
:10146000401E0A22C1B2012000E05043491EC9B209
:10147000FBD2BBFBF0F00A21B0FBF1F201FB120042
:10148000B8F1000F05D1691E8C4202DA50B14FF05D
:1014900001083030C2B216FB0490C0B23B46CDF812
:1014A00000A006E016FB0490C0B23B462022CDF817
:1014B00000A00299FFF7B8FE641CE4B2AC42CED3A0
:1014C00005B0BDE8F08F00002DE9FF4F99462DEDE6
:1014D000020B904604462DED068B8FB0B0EE408A8D
:1014E000DDE92465B5EEC08A3346F1EE10FA0095C9
:1014F00006D22D221899FFF797FEB1EE488A03E035
:1015000020221899FFF790FEBCEEC80ACDE90065CD
:1015100010EE107AA019C0B243463A461899FFF768
:101520008BFF3046FFF7B2F8CDE9060141EC190B0D
:101530004046FFF7ABF883469FED551B059153ECF2
:10154000112BFEF70AFF53EC192BFEF7ADFF41EC10
:10155000190B2046FFF79AF8824653EC192B03919A
:10156000FEF7FBFEFFF79FF8C0B233462E22009530
:101570001899FFF759FE002481E0601CFFF786F8F8
:1015800041EC110B9FED449BB0EE490AF0EE690A65
:1015900005F05EFCB0EE401A00EE107AF0EE601A34
:1015A000B0EE41AAB8EE400AF0EE61AA38EE400A69
:1015B00010EE100AFFF790F853EC1A2BFEF774FFA9
:1015C000FFF771F800F0FF08E043FFF74EF841EC39
:1015D000110BB0EE490AF0EE690A05F039FCB0EEE5
:1015E000401AF0EE601AB0EE419AF0EE619A404671
:1015F000FFF74CF853EC192BFEF756FF41EC190B93
:1016000018EE100AFFF768F853EC192BFEF746FFA7
:10161000FFF775F808EE100ADDE9060141EC190B39
:101620002046FFF733F841EC1A0B05999FED1C1B80
:1016300041EC10BB53EC112B51EC100BFEF78DFE5F
:1016400053EC1A2BFEF789FE53EC192BFEF72CFFF7
:1016500041EC110B039953EC112B41EC10AB51EC05
:10166000100BFEF77AFEFFF71EF8CDE90065C0B259
:10167000012342461899FFF7DFFE641CE4B24C4593
:10168000FFF47BAF0FB0BDEC068B06B0BDE8F08F6A
:10169000000000000000E03F0000000000002440C7
:1016A000000000000000F83F2DE9FF4F9B462DEDA4
:1016B000020B904681462DED068BB0EE408A83B03A
:1016C000B5EEC08ADDE91857F1EE10FA01D2B1EE9D
:1016D000488ACDE90057BCEEC80A13460C9910EEB3
:1016E000106A3246FFF7A8FEA9F10400A8F1010133
:1016F00001FB0500C0B22B462E2200970C99FFF784
:1017000093FD00245BE0601CFEF7C0FF9FED30AB53
:1017100041EC110BB0EE4A0AF0EE6A0A05F098FBB4
:10172000B0EE409A00EE106AF0EE609AB8EE400A11
:1017300038EE400A10EE100AFEF7CEFF53EC192BDC
:10174000FEF7B2FEFEF7AFFF00F0FF0AE043FEF740
:101750008CFF41EC110BB0EE4A0AF0EE6A0A05F07C
:1017600077FBB0EE401AF0EE601AB0EE419AF0EE60
:10177000619A5046FEF78AFF53EC192BFEF794FE50
:1017800041EC190B18EE100AFEF7A6FF53EC192BCB
:10179000FEF784FEFEF7B3FF08EE100A08EB040123
:1017A00009F10400491E01FB0500CDE90057C0B254
:1017B000012352460C99FFF73FFE641CE4B25C45DE
:1017C000A1D303B0BDEC068B06B0BDE8F08F0000DE
:1017D00000000000000024402DE9FC479846DDE9A8
:1017E0000A64151E894607463346009405DA2D2201
:1017F000FFF71AFD684205B202E02022FFF714FD50
:10180000CDE90064B819C0B243462A464946FFF7FD
:1018100013FEBDE8FC872DE9F84F0024DDF828A071
:101820009846174689460546102B04D0B8F1080F94
:1018300019D1062614E0082612E0CDF800A03A5D82
:10184000434649462846FFF7EFFCA819C5B2782D54
:1018500004D909EB0800002500F0FF09641CE4B27C
:10186000385D0028E9D1BDE8F88F00B5FFF7DAF957
:101870005DF804EBFFF726BAD0ED011A90ED021ADD
:1018800090ED000A71EEC10AF4EEC00AF1EE10FA12
:1018900006DC71EE810AF4EEC00AF1EE10FA02D213
:1018A000C0ED010A704780ED010A704778B5002449
:1018B000009490F83C20012A19D0012280F83C20A5
:1018C0000A6807230568092A13D9EE680A3A02EB69
:1018D000420293409E43EE600B788A680A3B03EB1A
:1018E00043039A400368DD682A43DA6010E002206F
:1018F00078BD2E6902EB420293409E432E610B7825
:101900008A6803EB43039A4003681D692A431A61FE
:101910004A681F23072A13D205686E6B521E02EB1A
:10192000820293409E436E630B790A885B1E92B2DB
:1019300003EB83039A4003685D6B2A435A6327E0F5
:1019400005680D2A12D22E6BD21F02EB8202934041
:101950009E432E630B790A88DB1F92B203EB83034D
:101960009A4003681D6B2A431A6311E0EE6A0D3A30
:1019700002EB820293409E43EE620B790A880D3B94
:1019800092B203EB83039A400368DD6A2A43DA626A
:10199000164B0568144A9D4206D10D68122D03D1DD
:1019A000556845F48005556005689D4218D10B685F
:1019B000102B01D0112B13D1536843F40003536053
:1019C000096810290CD10A490A4A0968B1FBF2F1E9
:1019D00001EB8101490000E0491E00910029FBD183
:1019E00080F83C40002078BD0023014000200140E9
:1019F000BC04002040420F0070477047704770B52C
:101A000004004FF0000503D0206C002610B107E061
:101A1000012070BD204600F01DF8666484F83C602B
:101A2000206CC00610D4206C20F4885040F00200D6
:101A300020642046FFF762F86664206C20F0020004
:101A400040F00100206400E0012584F83C60284655
:101A500070BD000070B586B0064614216846FEF7DA
:101A600071FC25493068884243D12448002501682B
:101A700041F4807101600068204900F480701439DD
:101A80000590086840F004000860086800F0040051
:101A90000590086840F0020008600868032400F020
:101AA0000200059037208DE831006946144800F0A7
:101AB000D9F9009469461348CDE9014500F0D2F9FF
:101AC000124C1148C4E900050015A560C4E9035093
:101AD000400060618000A0614011E0614002C4E903
:101AE0000805204600F01CF908B1FFF7FAF9B463C5
:101AF000A66306B070BD00000020014044380240DB
:101B00000008024000040240106402404405002026
:101B1000F8B5044600200E46009094F83C100129C8
:101B200007D0012184F83C1021688B68DB0702D0C4
:101B300011E00220F8BD8B6843F001038B6040493F
:101B4000404B0968B1FBF3F101EB410100E0491E94
:101B500000910029FBD121688B68DB0503D58B68D8
:101B600023F480738B6021688B68DB075DD0236C66
:101B700040F20165AB4343F480732364496849052F
:101B800005D5216C21F4005141F480512164216C70
:101B9000C90404D5616C21F00601616400E0606451
:101BA00084F83C00A16B2948274DC863A16B2848E5
:101BB0000864A16B2748C86421686FF022000860A0
:101BC0002068416841F0806141602068816841F48B
:101BD000807181602168134632464C31A06B00F061
:101BE00009F968681C49C006206806D0884224D1DB
:101BF000816811F0405F13D01FE08842F8D0174A87
:101C0000904203D1D1F80423D206F1D0144A904275
:101C100013D1D1F8041301F01F011029E8D30CE00F
:101C2000816841F08041816007E0206C40F0100045
:101C30002064606C40F0010060640020F8BD00008A
:101C4000BC04002040420F00002301406D0A000840
:101C5000F10A0008DB0A00080020014000210140D1
:101C6000002201402DE9F0410446876D00F0F8F9AB
:101C7000064694F835000025022806D080206065CD
:101C800084F834500120BDE8F0812068016821F01B
:101C9000160101602068416921F080014161206CDA
:101CA00008B9A06C20B12068016821F0080101602A
:101CB0002068016821F0010101600CE000F0D0F91A
:101CC000801B052807D920206065032084F8350093
:101CD00084F83450D7E720680068C007EED194F844
:101CE0005C103F208840B860012084F8350084F8FB
:101CF00034500020C7E790F83510022903D0802126
:101D0000416501207047052180F8351000680168A1
:101D100021F0010101600020704790F83500704704
:101D20002DE9F041044600F09BF906465CB1022023
:101D300084F83500002584F834502068016821F0CB
:101D4000010101600DE00120BDE8F08100F088F99B
:101D5000801B052805D920206065032084F8350004
:101D6000F2E720680068C007F0D1226811682048B7
:101D70000140D4E901031843D4E90336334318433F
:101D800063691843A3691843E3691843236A184336
:101D90000843616A042903D1D4E90B1319430843AA
:101DA000106020684069666A20F0070130460E43E3
:101DB000012704280CD1A06A0643E06A40B12046FE
:101DC000FFF750F820B14020606584F83570BAE71D
:101DD000206846612046FFF731F894F85C203F21E7
:101DE00091408160656584F835700020ACE70000A3
:101DF0003F8010F02DE9F0410446866D90F83400E4
:101E0000002501280DD0012084F8340094F83570A5
:101E10000020012F07D084F8340002252846BDE8B1
:101E2000F0810220FBE7022784F8357060652046C8
:101E3000FFF742F894F85C103F208840B0602068BB
:101E4000016841F016010160206C20B12068016832
:101E500041F0080101602068016841F00101016062
:101E6000DCE700002DE9F84FDFF8BCA100220125D6
:101E700003264FF00F090AF1040BAAF1040E00BF6C
:101E80000B6805FA02F42340A34270D10F7907F0E2
:101E90000307012F01D0022F16D187684FEA4208AD
:101EA00006FA08FC27EA0C07D1F80CC00CFA08FC6B
:101EB0004CEA070CC0F808C04768A7430C79C4F384
:101EC000001494403C4344600C79E443A4070AD0D6
:101ED000C4684FEA420C06FA0CF7BC438F6807FA55
:101EE0000CF72743C7600C7904F00304022C12D1CD
:101EF000D40800EB840CDCF820405707FF0E09FAE9
:101F000007F824EA0804D1F8108008FA07F848EA2C
:101F10000408CCF8208004684FEA420C06FA0CF75B
:101F2000BC430F7907F0030707FA0CF72743076054
:101F30004C6814F4403F70D03C4C276847F480470D
:101F40002760246822F0030704F480440094384C8E
:101F500007EB040CDCF8084897074FEA177809FAF2
:101F600008F7BC43334FB84202D1002724E054E0C5
:101F7000314FB84201D101271EE0304FB84201D1A4
:101F8000022719E02E4FB84201D1032714E02D4F4C
:101F9000B84201D104270FE02B4FB84201D10527E9
:101FA0000AE02A4FB84201D1062705E0284FB8427F
:101FB00001D1072700E0082707FA08F72743CCF8E4
:101FC0000878DAF800405746D1F804C09C435FEA2D
:101FD000CC2C00D51C433C60DBF800405F46D1F8B8
:101FE00004C09C435FEA8C2C00D51C433C60DEF8A7
:101FF00000407746D1F804C09C435FEA8C3C00D592
:102000001C433C60084F083F3C68D1F804C09C4327
:102010005FEACC3C00D51C433C60521C102AFFF404
:102020002FAFBDE8F88F0000083C01404438024063
:10203000003001400000024000040240000802405D
:10204000000C024000100240001402400018024040
:10205000001C02400AB1816170470904FBE70000DF
:102060000148806870470000B00400200248816881
:102070000278114481607047B00400200B4810B50D
:10208000016841F400710160016841F48061016000
:10209000016841F480710160032000F071F80320B1
:1020A00000F006F800F024F8002010BD003C0240CB
:1020B00070B50D4D04464FF47A712878B1FBF0F0FD
:1020C0000A490968B1FBF0F000F0C8FC48B9102CCF
:1020D00007D200222146501E00F032F800206C602A
:1020E00070BD012070BD0000B0040020BC040020C1
:1020F0000B4882B0016841F480410160006800F43F
:10210000804000900648001F016841F08051016046
:10211000006800F080500090052002B000F030B858
:1021200044380240002809DB00F01F0201219140E1
:102130004009800000F1E020C0F800117047000065
:10214000F0B40E4B1B680C46C3F30223C3F1070522
:10215000042D00D90425191D072901D2002300E010
:10216000DB1E012606FA05F1491E214099409E40DA
:10217000761E16403143F0BC04F075BC0CED00E057
:10218000064900F0070208684FF6FF03184040EACE
:102190000220034A10430860704700000CED00E085
:1021A0000000FA052DE9F0470E46050065D0DFF87E
:1021B0001481D8F80000F7B200F00700B04207D24F
:1021C00088F80070D8F8000000F00700B04254D141
:1021D00028683D4C810712D5400703D5206840F49C
:1021E000E05020602878000703D5206840F4604064
:1021F00020602068A96820F0F0000843206028785B
:10220000C0072DD0304968680839012812D002284B
:1022100013D0032811D00968890700292DDA216815
:1022200021F0030101432160FFF71AFF814641F2CB
:10223000883A0EE009688903EFE709688901ECE74D
:10224000FFF70EFFA0EB0901514502D90320BDE8BD
:10225000F0872068696800F00C00B0EB810FEFD1C7
:10226000D8F80010404601F00701B14207D90770C5
:10227000006800F00700B04201D00120E7E72878AD
:10228000400705D52068E96820F4E0500843206045
:102290002878000706D52068296920F4604040EAC4
:1022A000C100206000F038F82168084AC1F303112A
:1022B000515CC8400649086006480068FFF7F8FE10
:1022C0000020C4E7003C024008380240ED950008B9
:1022D000BC040020B40400200448054900680968D3
:1022E000044AC1F38221515CC8407047BC040020FD
:1022F00008380240FD95000804480549006809684F
:10230000044AC1F34231515CC8407047BC0400200C
:1023100008380240FD950008154810B5006810F017
:102320000C02144813D04110042A0FD0082A0ED1F1
:102330000F4C241F2268236802F03F025B0207D57E
:102340002068C0F38810A0FB010106E0084610BD1C
:102350002168C1F38811A1FB00010023FDF7A8FF4C
:102360002168C1F30141491C4900B0FBF1F010BDE7
:10237000083802400024F4002DE9F84F04006ED024
:102380002078DFF84C93C007A9F104054AD009F181
:1023900004000168C1F38101012908D00068C0F37D
:1023A000810002280AD1D9F80000400206D5286829
:1023B000800337D560680028E1D033E06068B0F56D
:1023C000803F10D0B0F5A02F286810D020F48030C6
:1023D0002860286820F4802028606068A8B1FFF792
:1023E0003FFE06460DE0286840F48030F4E740F4F4
:1023F00080202860F7E700BFFFF732FE801B6428CB
:1024000073D828688003F7D50CE0FFF729FE06464D
:1024100005E000BFFFF724FE801B6428F0D8286881
:102420008003F7D42078DFF8AC8280074FF0000AF1
:102430003ED5A748001D016811F00C0F08D00068B8
:10244000C0F3810002280BD1D9F80000400207D464
:102450002868800716D5E068012800D112E033E132
:10246000E068B8B10120C8F80000FFF7F9FD0646A2
:1024700005E000BFFFF7F4FD801B0228C0D82868E4
:102480008007F7D52868216920F0F80040EAC100EC
:1024900028600DE0C8F800A0FFF7E2FD064604E062
:1024A000FFF7DEFD801B02281FD828688007F7D4BD
:1024B0002078000722D5864F87486169703771B14F
:1024C00001210160FFF7CCFD064604E0FFF7C8FDDF
:1024D000801B022809D838688007F7D50EE0C0F8BD
:1024E00000A0FFF7BDFD064605E082E0FFF7B8FD5E
:1024F000801B02287DD838688007F7D420784007F1
:1025000068D5DFF8CCB100270BF13C0BDBF80000FD
:10251000C0000BD4DBF8001041F08051CBF8001064
:10252000DBF80000012700F0805000906B4E30680F
:10253000C00510D4306840F480703060FFF790FD23
:10254000009005E0FFF78CFD0099401A022850D852
:102550003068C005F6D55E4EA0686C3601280FD0F5
:102560000528306810D020F001003060306820F07D
:1025700004003060A068B8B1FFF772FD00900FE072
:10258000306840F00100F4E740F004003060F7E705
:10259000FFF766FD0099411A41F28830814266D802
:1025A00030688007F4D50EE0FFF75AFD009007E091
:1025B000FFF756FD0099411A41F28830814256D802
:1025C00030688007F4D42FB1DBF8001021F080517F
:1025D000CBF80010A069C8B33D49091D0968C1F3D3
:1025E000810102294AD00228504607D0C8F860006D
:1025F00000E03CE0FFF734FD04463BE04746C8F806
:102600006000FFF72DFD064605E000BFFFF728FD3F
:10261000801B02282BD828688001F7D4D4E9070151
:102620000843A16A2E4A490802EB0141626A41EA65
:102630008211084394F82C1040EA0161C9F8001097
:1026400001203866FFF70CFD044606E03EE000BFBF
:10265000FFF706FD001B022809D828688001F7D57E
:1026600034E000BFFFF7FCFC001B022802D9032066
:10267000BDE8F88F28688001F4D427E00128F7D05E
:10268000D9F80000E26900F4800191421CD1226A6D
:1026900000F03F01914217D147F6C071626A0140D4
:1026A000B1EB821F10D1A26A4FF0FF3300F440312A
:1026B00003EB5202B1EB024F06D194F82C1000F05C
:1026C0007060B0EB016F01D00120D1E70020CFE7AF
:1026D0000438024000004742800E4742007000402C
:1026E0000000FFFF2DE9FC410446444845F6C05177
:1026F00000260068B0FBF1F064214843019000908F
:102700002068416821F02001416020684168090685
:102710000CD53B496164009900295DD0491E0091A8
:1027200094F851100729F6D10199009141684906A2
:102730000BD5344921640099F1B3491E009194F8F6
:1027400051100729F7D10199009140684FF04007D7
:1027500080074FF0000514D5A06C90B10565A06C02
:10276000FFF780FA00B167652068416821F0020137
:1027700041602068009971B3491E00918168890702
:10278000F8D520684068C00711D0E06C78B10565C5
:10279000E06CFFF767FA00B167652068016821F017
:1027A000400101602068416821F001014160E58736
:1027B000E586606D402800E013E01CD06565206868
:1027C000C1688168009180680090012084F8510000
:1027D0003046BDE8FC8109E0616D41F04001616572
:1027E000A2E7616D41F040016165ACE7606D40F0CA
:1027F00040006065C5E70126E1E70000BC04002059
:1028000009540008B1530008704770B5040009D09E
:10281000606A002540B125616561A56294F85100A8
:1028200040B10CE0012070BD6068B0F5827FF4D04B
:10283000E561F2E784F85050204600F045F80220A8
:1028400084F851002068016821F040010160A088EF
:10285000218900F4827001F404410843A18901F444
:1028600000610843217C01F002010843217D01F051
:1028700001010843218B01F400710843217F01F01D
:102880003801084394F8201001F080010843218D9D
:1028900001F40051084321680860A069042101EA9D
:1028A000104094F8241001F010010843216848609A
:1028B0002068C16921F40061C1616565012084F867
:1028C0005100002070BD000070B586B0064614218E
:1028D0006846FDF737FD1F493068884237D11E48EA
:1028E0000025016841F400410160006800F40040E7
:1028F000059019481038016841F004010160006832
:10290000694600F0040005904FF4A05000900220AA
:10291000CDE9010503200390062004900F48FFF73E
:10292000A1FA104C0E48C4E900054020C4E9020594
:102930000001C4E90405A561E561256220466562E0
:10294000FFF7EEF908B1FEF7CCFAB464A66306B05F
:1029500070BD0000003C00404038024000080240CA
:10296000B8600240FC0500202DE9F041044690F8D3
:1029700050000026012809D0012784F8507094F8EF
:1029800051000025012804D002264EE00220BDE8B7
:10299000F08189B182B1032084F85100656521631B
:1029A000A286E286A56365642564A587E587A0689D
:1029B000B0F5004F02D00BE0012636E02068016838
:1029C00021F0400101602068016841F4804101600C
:1029D000A16C18480864A16C1748C863A16C17481B
:1029E000C864A06C0565E38E2268216B0C32A06C74
:1029F000FFF700FA38B1606D40F010006065012605
:102A000084F8517011E020680168490603D4016818
:102A100041F0400101602068416841F020014160BF
:102A20002068416841F00201416084F8505030460E
:102A3000ADE7000047540008515400082554000831
:102A4000704770474FF0E0210428086903D020F058
:102A500004000861704740F00400FAE710B5401E1A
:102A6000B0F1807F01D3012010BD4FF0E024606100
:102A70000F21601703F0F7FF0020A06107202061FD
:102A8000002010BD7047704710B590F83C20012A17
:102A900022D0012280F83C20CA688C6822F440725F
:102AA00022434C6822F4806222430C6822F40062C4
:102AB00022430C6922F4805222434C6922F40052D2
:102AC0002243C969002322F480420A4301684A6410
:102AD00080F83C30002010BD022010BD70B590F889
:102AE0003C20012A32D0012480F83C40022280F8A8
:102AF0003D2003685A689D6822F070060A683243D8
:102B00005A60134B02689A4214D0B2F1804F11D030
:102B1000104B9A420ED0104B9A420BD00F4B9A4258
:102B200008D00F4B9A4205D00E4B9A4202D00E4B62
:102B30009A4204D1496825F080031943916080F8D6
:102B40003D40002180F83C10084670BD022070BD59
:102B5000000001400004004000080040000C00405C
:102B600000040140004001400018004010B5044638
:102B7000022249B104290ED0082913D094F8450047
:102B8000012816D0012010BD94F842000128F9D187
:102B900084F842200FE094F843000128F2D184F831
:102BA000432008E094F844000128EBD184F8442045
:102BB00001E084F845200422206803F0EAF8206848
:102BC000416C41F40041416411492068884214D0AD
:102BD000B0F1804F11D00F4988420ED00E49884283
:102BE0000BD00E49884208D00D49884205D00D49C6
:102BF000884202D00C49884204D1816801F0070163
:102C0000062903D0016841F001010160002010BDD8
:102C1000000001400004004000080040000C00409B
:102C200000040140004001400018004010B50400BD
:102C300003D094F83D0010B107E0012010BD002042
:102C400084F83C00204600F01FF8022084F83D0084
:102C5000211D206803F02CF8012084F8460084F838
:102C60003E0084F83F0084F8400084F8410084F876
:102C7000420084F8430084F8440084F8450084F856
:102C80003D00002010BD000008B5016823488142C6
:102C90000FD12348016841F0010101600068002262
:102CA00000F00100009001211920FFF749FA1920D6
:102CB00030E01B48001FB1F1804F11D0194A9142FA
:102CC00017D1016841F0080101600068002200F09E
:102CD0000800009002213220FFF732FA322019E07A
:102CE000016841F001010160006800F001000090FE
:102CF00008BD0D4A9142FBD1016841F0100101600D
:102D00000068002200F01000009003213620FFF739
:102D100017FA3620BDE80840FFF704BA000001406A
:102D200044380240000C00400010004090F83D1074
:102D3000012901D001207047022180F83D1001686F
:102D4000CA6842F00102CA6000681149884214D082
:102D5000B0F1804F11D00F4988420ED00E49884201
:102D60000BD00E49884208D00D49884205D00D4944
:102D7000884202D00C49884204D1816801F00701E1
:102D8000062903D0016841F001010160002070476D
:102D9000000001400004004000080040000C00401A
:102DA00000040140004001400018004070B5044696
:102DB00090F83C000025012817D0012684F83C60DB
:102DC000022084F83D002068826822F0770222F415
:102DD0007F4282600868502838D00DDC20284FD010
:102DE00005DC90B3102811D14AE0022070BD3028D4
:102DF00046D040280AD13BE060282FD070280DD063
:102E0000B0F5805F03D0B0F5005F12D0012584F8E3
:102E10003D60002084F83C00284670BDCB68D1E9B5
:102E20000121206802F0C2FF2068816841F077012B
:102E300009E0CB68D1E90121206802F0B7FF2068E2
:102E4000816841F480418160E1E719E0CA6849681E
:102E5000206803F07FF85021206806E0CA684968BE
:102E6000206803F088F86021206802F0A9FFCEE70F
:102E7000CA684968206803F06DF840212068F4E7CB
:102E8000226801461046F0E72DE9F0410D460400A6
:102E900003D094F83D0018B108E00120BDE8F081AE
:102EA000002084F83C00204600F040F8022084F81E
:102EB0003D002068816844F2070291438160211D32
:102EC000206802F0F5FE226890689169166A2B6806
:102ED000AF69034340F20330814341EA0721A86808
:102EE000EF6908434FF6FC418843E96840EA072050
:102EF000014328692F6A000140EA073008436968E6
:102F00006D6926F0AA0646EA0515294393602268F2
:102F1000906154F8460B0162012004F81F09E07526
:102F20002076E0762077A0750020B7E710B586B050
:102F3000044614216846FDF705FA124920688842C4
:102F40001ED111480021026842F0020202600068AE
:102F500000F0020005900C481038026842F00402AC
:102F60000260006800F004000590C020009002207C
:102F7000CDE90101CDE9031069460448FEF772FF6F
:102F800006B010BD00040040403802400008024076
:102F900070B590F83E60044690F83F5090F842308B
:102FA00090F84320022021B104290ED0012E1BD11C
:102FB00014E0012E18D1012B16D184F83E0084F8BC
:102FC000420001220021206820E0012D0CD1012ABD
:102FD0000AD184F83F0084F8430014E0012D03D1A6
:102FE000012B01D1012A01D0012070BD84F83E00DF
:102FF00084F83F0084F8420084F843000122002155
:10300000206802F0B9FE01220421206802F0B4FE1B
:103010002068016841F001010160002070BD704727
:1030200070B50446006801694FF00005C94389077F
:1030300015D4C168C943890711D4E91E0161012073
:103040002077206880698007204602D0FFF7E7FFDD
:1030500004E000F0E7F8204600F079F925772068D1
:103060000169C943490717D4C168C943490713D443
:103070006FF004010161022020772068806910F45C
:10308000407F204602D0FFF7CAFF04E000F0CAF8F4
:10309000204600F05CF9257720680169C9430907DB
:1030A00016D4C168C943090712D46FF00801016141
:1030B000042020772068C0698007204602D0FFF7EF
:1030C000AEFF04E000F0AEF8204600F040F92577AE
:1030D00020680169C943C90617D4C168C943C90634
:1030E00013D46FF010010161082020772068C069B7
:1030F00010F4407F204602D0FFF791FF04E000F07B
:1031000091F8204600F023F9257720680169C9432A
:10311000C90708D1C168C943C90704D1891E016123
:10312000204600F079F920680169C943090609D4ED
:10313000C168C943090605D46FF0800101612046CA
:10314000FFF7A0FC20680169C943490609D4C1689A
:10315000C943490605D46FF040010161204600F0E3
:103160009BF920680169C94389060BD4C168C9432A
:10317000890607D46FF0200101612046BDE8704048
:10318000FFF781BC70BD0000F0B587B00446142184
:103190006846FDF7D7F81F4A216800241E4802251B
:1031A00001261E4F91421DD1016841F002010160CC
:1031B000016801F002010591016841F0010101601F
:1031C0000068694600F0010005904FF460400090EF
:1031D000CDE90154CDE903461148FEF743FE4FF413
:1031E000E0600BE0B1F1804F11D1016841F00101C5
:1031F0000160006800F0010005900E200090CDE90C
:103200000154CDE9034669463846FEF72BFE07B068
:10321000F0BD0000000001403038024000000240D4
:1032200000040240704770B5044690F83C00002648
:103230000D4601280FD0012084F83C006AB1042A11
:103240001DD0082A2FD00C2A3FD00126002084F858
:103250003C00304670BD022070BD206802F0B8FD11
:103260002068816941F0080181612068816921F04D
:1032700004018161206881692A69114311E0206895
:1032800002F0D6FD2068816941F400618161206807
:10329000816921F480618161206881692A6941EA3C
:1032A00002218161D2E7206802F0F8FD2068C1693F
:1032B00041F00801C1612068C16921F00401C161C8
:1032C0002068C1692A69114311E0206802F01AFEE2
:1032D0002068C16941F40061C1612068C16921F4BD
:1032E0008061C1612068C1692A6941EA0221C16126
:1032F000ACE710B5040003D094F83D0010B107E02E
:10330000012010BD002084F83C00204600F01EF88B
:10331000022084F83D00211D206802F0C9FC012034
:1033200084F8460084F83E0084F83F0084F84000AA
:1033300084F8410084F8420084F8430084F8440093
:1033400084F8450084F83D00002010BD70477047A8
:1033500010B50446022249B104290ED0082913D021
:1033600094F84100012816D0012010BD94F83E00C9
:103370000128F9D184F83E200FE094F83F0001289D
:10338000F2D184F83F2008E094F840000128EBD106
:1033900084F8402001E084F841200122206802F0F6
:1033A000EBFC16492068164A884201D0904203D1AE
:1033B000436C43F4004343642068884213D0B0F167
:1033C000804F10D00F4988420DD00F4988420AD053
:1033D0000E49884207D0904205D00D49884202D05C
:1033E0000C49884204D1816801F00701062903D005
:1033F000016841F001010160002010BD00000140A2
:10340000000401400004004000080040000C00409F
:1034100000400140001800401B4910B5884216D1F9
:10342000FEF723FA02F034FF18490888401C80B2E6
:103430000880642807D16422B0FBF2F302FB13007A
:10344000088001F0CDFABDE81040FDF74DBD0E49F2
:10345000D831884205D1FDF773FDBDE8104000F07A
:1034600021BE0B4988420DD10A48084990ED010A56
:10347000BDE81040BCEEC00A0C3110EE100A80B25C
:1034800004F094BF10BD00005C0600201004002072
:103490007C070020D804002070477047704710F860
:1034A0003D1F407808437047F8B501680446086836
:1034B000CA684B6910F00F0F4FF0000559D003F0A8
:1034C000010602F49077374365D0C10705D0D105D6
:1034D00003D5216C41F001012164410705D5D907CD
:1034E00003D0216C41F002012164810705D5D90781
:1034F00003D0216C41F004012164010707D502F0DB
:103500002001314303D0216C41F008012164216C7A
:1035100000293AD0800604D5900602D5204602F054
:1035200085FD20684069216CC0F38010090700D434
:1035300060B3204602F039FD20684069400621D57D
:103540002068143050E8001F21F0400140E80012CC
:10355000002AF5D1A06BA8B16C490165A06BFEF7FC
:10356000CAFB002811D0A06B016D01B0BDE8F0408E
:10357000084783060FD593060DD52046BDE8F840D1
:1035800002F054BD2046FFF789FFF8BD2046FFF743
:1035900085FF2564F8BD266B2023012E79D1C60650
:1035A00077D5D60675D50868486800904869400602
:1035B00040D5A16B086840680004000CEAD0A28DD9
:1035C0008242E7D9E085C869B0F5807F2DD02068B8
:1035D0000C3050E8001F21F4807140E80012002AEE
:1035E000F5D12068143050E8001F21F0010140E8B7
:1035F0000012002AF5D12068143050E8001F21F095
:10360000400140E80012002AF5D184F83E302563DD
:1036100020680C3050E8001F21F0100140E8001233
:10362000002AF5D1A06BFEF71DFBA08DE18D401A9D
:1036300081B229E0A08DE18D401A81B2E08D002891
:10364000A8D00029A6D020680C3050E8002F22F422
:10365000907240E80026002EF5D12068143050E822
:10366000002F22F0010240E80026002EF5D184F858
:103670003E30256320680C3050E8002F22F0100205
:1036800040E80023002BF5D12046FFF706FFF8BDE8
:10369000FFE705062BD5150629D594F83D0021280E
:1036A000F5D1A068B0F5805F01D12069B0B1206A82
:1036B000411C2162216800784860E08C401E0004B3
:1036C000000CE084E3D12068C16821F08001C16072
:1036D0002068C16841F04001C160D8E7206A0088D5
:1036E000C0F308004860206A801C2062E5E74006BD
:1036F000CDD55006CBD5CA68204622F04002CA601C
:1037000084F83D3000F0B2F8C1E700009B5F00088C
:1037100070B5040004D094F83D00002510B106E017
:10372000012070BD84F83C50204600F023F824208E
:1037300084F83D002068C16821F40051C160204632
:1037400002F0D4FC2068016921F4904101612068F5
:10375000416921F02A0141612068C16841F40051AA
:10376000C1602564202084F83D0084F83E000020DC
:1037700070BD0000F0B587B0044614216846FCF720
:10378000E1FD1D492068884234D11C4800210268AF
:1037900042F010020260006800F010000590174827
:1037A0001438026842F002020260006802AA00F0C7
:1037B000020005900325072682E8620040200224CB
:1037C000CDE900040E4F69463846FEF74BFB8020DA
:1037D000CDE9000402AA012082E86100694638466A
:1037E000FEF740FB002211462520FEF7A9FC25200C
:1037F000FEF798FC07B0F0BD0010014044380240CD
:103800000004024090F83E30202B0ED159B152B145
:1038100090F83C30012B08D0012380F83C30002385
:10382000036302F0E9BC01207047022070470000EA
:1038300010B500680A49884210D10A480A4C8188AC
:10384000491C8AB28280014622440B7802F8013C6E
:10385000FA2B01D1012242800020087010BD000027
:103860000010014020040020C40700207047000021
:1038700010B590ED040A044680ED060A90ED050AA5
:1038800080ED070A2C48D4ED021A90ED030A70EE81
:10389000610AB6EE000A60EE800AC4ED040A90EDFB
:1038A000041AD4ED030A31EE602A71EE200A22EEEA
:1038B000002A84ED052A90ED032A72EE211A61EEAA
:1038C000801A20EE800AC4ED081A84ED090A84EDFE
:1038D000022A90ED040A84ED030A94F94C00303476
:1038E00000EE100AB8EEC00A02F0B0F8404240B252
:1038F000607714ED080A54ED060A70EE600A00EED7
:10390000100AB8EEC00A60EE800A44ED020A14ED17
:10391000070A14ED051A30EE411A00EE100A0748A6
:10392000B8EEC00A21EE000A04ED010ABDE810401D
:10393000B1EE400A01F022BAD00C0020A8120020FB
:103940002DE9F0416C492DED028B08786B4C10B9D4
:103950006088401C608020786A4E80F001002070F2
:103960006748D6ED111AB6EE001AD0ED030A664F7D
:103970004FF4C87230EEA10A70EEE11A20EE010A8F
:1039800086ED0C0A90ED042AD6ED102A72EE222A5A
:1039900062EE812A21EE811AC6ED0D2A86ED121AF9
:1039A000C6ED110A86ED102A60889FED588A584DA1
:1039B000904202D285ED008A10E0534B9042D3ED45
:1039C000080A02D1C6ED140AF4E7A0F29112F0EE53
:1039D000008AC72A08D800BFC5ED008A85ED010A14
:1039E0004B4801F05AF966E0A0F25922092A13D88F
:1039F000C5ED008A85ED010A454801F04EF996EDC6
:103A0000120A20EE280A04F0C7FAD4ED010A30EEBB
:103A1000200A84ED010A4EE0A0F26322BD2AC9D932
:103A2000BE3AF8EE008AC72AD6D9C83A092A13D86E
:103A3000C5ED008A85ED010A354801F02EF996EDB5
:103A4000120A20EE280A04F0A7FAD4ED020A30EE9A
:103A5000200A84ED020A2EE040F2F23290422AD986
:103A60000120087094ED011AD4ED021AB4EEE11AA7
:103A7000F1EE10FA12D228499FED261A70EE810A53
:103A800010EE900AC6ED140A884205DD9FED231A58
:103A900070EEC10AC6ED140AC7ED080A84ED018A6A
:103AA00084ED028A85ED008A85ED010A184801F04F
:103AB000F4F800206080207808B1032000E0FD20A9
:103AC00086F84C00164897ED080A80ED020A80ED52
:103AD000048A96F94C10D5ED020A00EE101AB8EEE1
:103AE000C00A30EE800A80ED030ABDEC028BBDE80F
:103AF000F04100F099BA00000A040020840400207C
:103B0000E40C0020E0120020A812002000000000B9
:103B1000D0110020DB0F4940DB0FC940DB0FC9404B
:103B2000F80C00202DE9F0413F4E2DED028B82B0C4
:103B30003078B0EE608A80F0010030703B48F0EEE3
:103B4000408A0078DFF8E8803A4F14280AD198EDCF
:103B5000040A384687ED000A98ED030A87ED010A4A
:103B600001F09BF8354D9FED340A284685ED000A9B
:103B7000C5ED018A01F091F83148DFED320A90ED90
:103B8000000A684620EE200AD5ED020A20EE000A5F
:103B900000EEE00A8DED000A04F084F82A4C9DED59
:103BA000000A204684ED060AB1EE400A84ED070AB9
:103BB00097ED020A84ED000A84ED018A01F06DF8A8
:103BC0003078224E08B1032000E0FD2086F84C003A
:103BD0001F4898ED010A474680ED020A95ED020A5A
:103BE00080ED030A94ED020A80ED040A00F01CFA4D
:103BF000184897ED010A80ED020A94ED020A80ED63
:103C0000040A96F94C10D5ED020A00EE101AB8EE2F
:103C1000C00A30EE800A80ED030A00F005FA02B017
:103C2000BDEC028BBDE8F081840400203704002045
:103C300060040020A011002000000000D01100202E
:103C4000D8040020295C0F3F00120020E012002061
:103C5000640D0020F80C00202DE9F0432DED028BBF
:103C600081B09FED658A654CF7EE000A1E20C4ED19
:103C7000020A60736248B0EE480AB0F9000000EE34
:103C8000900A6048F8EEE00AC4ED000A007890B1AE
:103C9000207B401CC0B220731E2804D90020207352
:103CA0002046FDF7E9FD94ED010A9FED571ADFED7F
:103CB000570A00F0DDFADFF858915648564C99F84B
:103CC0000010F6EE001A81F0010189F8001090ED65
:103CD000031AD4ED110A71EE200A60EEA10AC4EDB8
:103CE0000C0AD0ED040A94ED102A4C4830EE822ADA
:103CF00062EE211AC4ED0D1A84ED111AC4ED100AFA
:103D00000178474FDFF81C81142920D10178142253
:103D1000B1FBF2F302FB13110170434890F8240049
:103D200000EE900AF8EE600A20EE800A87ED000AA5
:103D3000D8ED070A9FED3D1A384680EE810ADFED87
:103D40003C0A20EE200A87ED010A00F0A6FF394E5A
:103D5000304686ED008A94ED0C0A86ED010A00F0EB
:103D60009CFF3548DFED350A90ED000A684620EEED
:103D7000200AD6ED020A20EE000A00EEE00A8DEDE0
:103D8000000A03F08FFF2E4D9DED000A284685EDB9
:103D9000060AB1EE400A85ED070A97ED020A85EDA5
:103DA000000A94ED0D0A85ED010A00F076FF99F8FE
:103DB000000008B1032000E0FD2084F84C002148F9
:103DC00098ED080A80ED020A95ED020A80ED040ADA
:103DD00094F94C10D6ED020A00EE101AB8EEC00AA3
:103DE00030EE800A80ED030A00F01EF901B0BDEC50
:103DF000028BBDE8F083000000000000440D0020AD
:103E00007E0400200A0400200000AFC30000AF437E
:103E100084040020E40C0020E0120020370400207D
:103E2000A0110020A81200200C0D0020DB0FC940BB
:103E300000007042D0110020D8040020295C0F3F00
:103E400000120020F80C0020FEE70000F0B52DED78
:103E5000028B81B09FED3E8A9FED3E0A3E491420C1
:103E600081ED020A9FED3D0A487381ED000A087B4F
:103E7000401CC0B20873142804D9002008730846F7
:103E8000FDF7FAFC91ED010AB0EE001ADFED340AFD
:103E900000F0EEF9DFED330ADFED331A334C20EE9C
:103EA000201A334981EE210A94ED051A30EE010AF9
:103EB00010EE100A84ED050A884203DB30EE600A3A
:103EC00084ED050A2B4E244F3046503F86ED008A84
:103ED00097ED030A86ED010A00F0DFFE2648DFEDCC
:103EE000270A90ED000A684620EE200AD6ED020A65
:103EF00020EE000A00EEE00A8DED000A03F0BEFE9F
:103F00001F4D9DED000A284685ED060AB1EE400AD8
:103F100085ED070A94ED060A85ED000A97ED040A7F
:103F200085ED010A00F0B9FE94ED050A07F11400D1
:103F300080ED020A96ED020A80ED030A95ED020A71
:103F400080ED040A00F070F801B0BDEC028BF0BD0A
:103F500000000000CDCCCC3D340D00200000C84254
:103F60000000F042DB0FC94000409C4634040020B2
:103F7000DB0FC940D0110020D8040020295C0F3F7E
:103F800000120020D1ED080A91ED061AD1ED071AB2
:103F900020EE800AD1ED000A01EE600A91ED011ACF
:103FA00001EEC10AD1ED031A61EEA00AD1ED021AA9
:103FB00041EE800AD1ED041A41EE810A91ED091A11
:103FC00060EE810AC0ED000AD1ED000A81EC020A20
:103FD0007047000090ED000A81ED020A90ED010AA1
:103FE00081ED030A90ED020A81ED040A90ED030AC7
:103FF00081ED050A90ED040A81ED060A90ED050AAF
:1040000081ED070A90ED060A81ED080A90ED070A96
:1040100081ED090A9FED030A81ED000A81ED010A95
:10402000704700000000000010B504462DED028B23
:1040300090ED020AFCF7C6F8D4ED030A20EE208AC0
:1040400094ED020AFCF7FAF8D4ED040A00EE608A57
:1040500084ED008A94ED020AFCF7F0F8D4ED030A2F
:1040600020EE208A94ED020AFCF7ACF8D4ED040AA5
:1040700000EE208A84ED018ABDEC028B10BD0000A9
:1040800070B50D460646002408E000BF06EB44016B
:104090000222012001F000F8641CE4B2AC42F5D326
:1040A00070BD000015499FED160A1648D1ED000AB3
:1040B00060EE800AFDEEE00A10EE902A0280D1ED5B
:1040C000010A60EE800AFDEEE00A10EE901A4180CF
:1040D0000D49D1ED080A20EE800ABDEEC00A10EEAF
:1040E000101A818000F1080191ED030ABDEEC00AAB
:1040F00010EE101AC1800421FFF7C2BF0012002089
:104100000000C84258040020A81200202DE9F04108
:1041100015460E4680460024114F12E008EB84003D
:1041200090ED000A0E4803F0C7FE0020395C69607C
:1041300029684906FCD5401CC0B20428F6D3641C8B
:10414000A4B2B442EAD3074900200A5C6A602A6834
:104150005206FCD5401CC0B20428F6D3BDE8F0815D
:1041600030040020C08D00082DE9F04101212A4DC6
:104170002A4A2B4E2B4F2C4C012817D0287880B17F
:10418000D2F80802904698B1D6F82C0280B1D4F843
:10419000280268B1D4F8300250B1D7F800020128E3
:1041A00006D0D2F80802012823D032E02970E7E7D0
:1041B0000A2003F02BFE00202870D8F8080268B10E
:1041C000D6F82C0268B1D4F8280260B1D4F83002D5
:1041D00058B1D7F80002012809D01AE00120BDE843
:1041E000F0810220FBE70320F9E70420F7E7052030
:1041F000F5E7D6F82C0201280BD1D4F828020128C3
:1042000007D1D4F83002012803D1D7F8000200B951
:104210002970FF20E3E700000C04002000804142E9
:10422000000041420000404200804042D3084FF06D
:1042300080429363C908D163C008106470470000CE
:1042400010B54FF08040016A45F2555211430162AA
:1042500004210648FFF77CF808210448FFF778F8A6
:10426000BDE810400C210148FFF772B8A4060020F9
:10427000B4EEE00AF1EE10FA01DDB0EE600AB4EE41
:10428000C10AF1EE10FA01D2B0EE410A7047000007
:104290007FB500213648009101910291334A039184
:1042A000026001244FF480320461C0E901210476E8
:1042B00080F820102F4AC0E90A210725C561C16096
:1042C00080F830404461FDF79AFB08B1FCF709FE25
:1042D0000820CDE90004694625480294FDF7E6FA76
:1042E00008B1FCF7FEFD092000900220019069460C
:1042F0001F48FDF7DBFA08B1FCF7F3FD0A20009038
:104300000320019069461A48FDF7D0FA08B1FCF77E
:10431000E8FD0B2000900420019069461448FDF749
:10432000C5FA08B1FCF7DDFD0C20009005200190D6
:1043300069460F48FDF7BAFA08B1FCF7D2FD0E2026
:1043400000900620019069460948FDF7AFFA08B1D0
:10435000FCF7C7FD0F20CDE9000569460448FDF7CD
:10436000A5FA002801D0FCF7BCFD7FBD002001406C
:10437000FC0400200100000F094808B5016841F461
:1043800080010160016801F480010091016841F43D
:1043900000110160006800F40010009008BD0000EA
:1043A000303802402DE9F04F87B014216846FBF702
:1043B000C9FF46480025016841F004010160016819
:1043C00001F004010591016841F08001016001687C
:1043D00001F080010591016841F00101016001686F
:1043E00001F001010591016841F0020101600168DD
:1043F00001F002010591016841F0080101600068C7
:10440000DFF8CC9000F008004FF4604405900122E2
:1044100021464846FDF71EFE4FF40077002239463C
:104420004846FDF717FEDFF8ACA04FF40048012224
:1044300041465046FDF70EFEDFF89CB001223821C0
:104440005846FDF707FE009401246946484601944A
:10445000CDE90245FDF706FD02268DE870006946AC
:104460005046FDF7FFFC4FF4A050CDE9000569462A
:1044700002945846FDF7F6FC0097CDE901466946DF
:1044800048460394FDF7EEFCCDE9008469465046AA
:10449000CDE90245FDF7E6FCE002CDE900056946FD
:1044A00002944846FDF7DEFC0420CDE9000569468C
:1044B00002940A48FDF7D6FC38208DE87100694661
:1044C0005846FDF7CFFC07B0BDE8F08F303802400A
:1044D000000802400000024000040240000C0240BC
:1044E00010B5114C0F48022120604FF482706060BB
:1044F0000020A060C4E903010902C4E90501082104
:10450000C4E907106062A0620A20E0622046FEF75C
:104510007CF908B1FCF7E5FC2068016841F0400136
:10452000016010BD003C0040A405002030B595B0EE
:1045300000240F9410941194129413941C21684633
:104540001494FBF7FFFE202107A8FBF7FBFE364D76
:104550003448C5E900042020A86041F26700C5E99D
:104560000304012068618020A8612846FEF75EFBF5
:1045700008B1FCF7B6FC4FF480500F900FA92A4801
:10458000FEF714FC08B1FCF7ACFC2748FEF7B1FEBF
:1045900008B1FCF7A6FC139413A923481494FEF762
:1045A0009DFA08B1FCF79DFC7020CDE9000402944F
:1045B000039404940594002269461B480694FEF770
:1045C00032FE08B1FCF78DFC042269461648FEF75E
:1045D0002AFE08B1FCF785FC082269461248FEF75E
:1045E00022FE08B1FCF77DFC0794089409944FF46F
:1045F00000500A94CDE90B4040000E9007A90A48EC
:10460000FEF742FA08B1FCF76CFC29686FF0010074
:1046100008610548FEF78AFB0348FEF7B5FD15B0B3
:1046200030BD0000000001405C06002010B58EB0D7
:1046300000240794089409940A940B941C2168465A
:104640000C94FBF77FFE25484FF080410160A721C5
:10465000C0E90114FE21C0E903148461FEF7E6FA03
:1046600008B1FCF73EFC4FF48050079007A91B48A7
:10467000FEF79CFB08B1FCF734FC1848FEF739FE46
:1046800008B1FCF72EFC0B940BA914480C94FEF710
:1046900025FA08B1FCF725FC7020CDE9000402944E
:1046A000042269460D480494FEF7BDFD08B1FCF7ED
:1046B00018FC082269460948FEF7B5FD08B1FCF769
:1046C00010FC0C2269460548FEF7ADFD08B1FCF769
:1046D00008FC0248FEF758FD0EB010BDA4060020ED
:1046E00010B58CB024216846FBF72CFE0024164838
:1046F000099414490A94C0E9001443F6FF71C0E913
:104700000241046184610320CDE900040120CDE968
:10471000020407210491CDE90540CDE9074169462E
:104720000948FEF7B1FB08B1FCF7DBFB099409A9C6
:1047300005480A94FEF7D2F9002801D0FCF7D1FB16
:104740000CB010BD00040040EC06002030B587B06E
:1047500000251A4C0095019502950395049516487D
:10476000059520600920C4E9010542F2CF00C4E9A3
:1047700003052046A561FEF759FA08B1FCF7B1FB25
:104780004FF48050009069460C48FEF70FFB08B1CB
:10479000FCF7A7FB049504A908480595FEF79EF9C8
:1047A00008B1FCF79EFB21686FF001000861034827
:1047B000FEF7BCFA07B030BD000C00403407002003
:1047C0007CB50025124C009510480195206040F200
:1047D0004730C4E9010540F2E730A561E0602046BA
:1047E000FEF724FA08B1FCF77CFB009569460848FF
:1047F0000195FEF773F908B1FCF773FB21686FF0C0
:10480000010008610248FEF791FA7CBD00100040EB
:104810007C07002010B50E4C0C480C2120604FF492
:10482000E13060600020A060E060C4E90401A061A4
:10483000E0612046FEF76CFF08B1FCF752FB2068F0
:10484000C16841F02001C16010BD000000100140AE
:104850008C08002010B5FCF773FB1048016A45F284
:1048600055521143016200210D48FEF771FD0421EC
:104870000B48FEF76DFD08210948FEF769FD002190
:104880000748FEF773F904210548FEF76FF9BDE804
:10489000104008210248FEF769B9000000000140FD
:1048A0005C0600200548016A4AF6AA22114001620E
:1048B000002141638163C16301F068BF00000140D2
:1048C000FEE7000012480068DFED120A00EE100A51
:1048D0001248134AB8EE400A90F8241020EE200A3D
:1048E000DFED0D0A20EE201A00EE101AB8EE400A95
:1048F00021EE000A80ED010A04E000BF30EE600AFC
:1049000080ED010A10EE101A9142F7DC70470000AA
:104910002404004000008038DB0FC9400C0D00204B
:10492000DB0FC9401D4808B50A219FED1D0A80F81C
:10493000241080ED050A9FED1B0A9FED1D1B80EDE5
:10494000060A1A489FED180A4FF47A7180ED000AA2
:1049500080ED021B184880ED000A80ED021B17480D
:10496000818240F6C411C1824FF47A6101831448F8
:10497000491001804FF6D461418000F0B7F9114928
:104980001148FFF727FB002000904FF400730F4AF7
:104990000FA1012000F050FB08BD00000C0D00200D
:1049A0000AD7A33D931ADA3766160744701200201F
:1049B000000000A039D2F140A812002060040020BD
:1049C0007C0400205C13002090040020A00D002037
:1049D0004A53636F70655F693269326932693200C8
:1049E0001B4800681B4B1C499FED1C0A586091ED49
:1049F000001ADFED1B0A1946B5EEC01A8968F1EE00
:104A000010FA184A07DB884203DA411A01F580419F
:104A100006E0411A04E08842FBDD411AA1F580411D
:104A200001EE101AB8EEC11A21EE000A20EE200A9B
:104A300082ED020A92F82410F0EE400A00EE101AFD
:104A4000B8EE400A20EE800A82ED030A98607047B3
:104A50002404004010040020A011002000803B46E8
:104A6000000080380C0D0020FEE7000010B54FF468
:104A7000806120B1FF220548FBF75DFC02E003489E
:104A8000FBF760FCBDE8104000F002B8D008002041
:104A900070B5104E0024002104F1B00000F0B6F80B
:104AA0000021084600F0B2F80021102000F0AEF816
:104AB0005FF0000505EBC4100121305C00F0A6F8A2
:104AC0006D1CEDB2802DF5D3641CE4B2082CE2D34A
:104AD00070BD0000D008002010B5C82003F096F982
:104AE00000F066F80021AE2000F090F800210846A2
:104AF00000F08CF80021102000F088F80021402000
:104B000000F084F80021B02000F080F8002181201E
:104B100000F07CF80021FF2000F078F80021A120AF
:104B200000F074F80021A62000F070F80021A82001
:104B300000F06CF800213F2000F068F80021C82048
:104B400000F064F80021D32000F060F8002108464E
:104B500000F05CF80021D52000F058F800218020FA
:104B600000F054F80021D92000F050F80021F12085
:104B700000F04CF80021DA2000F048F80021122063
:104B800000F044F80021DB2000F040F80021302044
:104B900000F03CF800218D2000F038F800211420AE
:104BA00000F034F80021BDE81040AF2000F02EB82E
:104BB00010B50C4C012208212046FDF74BFA642069
:104BC00003F024F9002208212046FDF743FA64206F
:104BD00003F01CF920460122BDE810400821FDF732
:104BE00039BA00000004024030B501F00705012386
:104BF000AB40054CC90800EBC111605C0AB1184319
:104C000000E09843605430BDD008002070B50C4DD2
:104C1000044609B1012200E0002210212846FDF7D8
:104C200019FA002220212846FDF714FAE0B200F01C
:104C3000ABFB2846BDE8704001222021FDF70ABAEF
:104C40000004024010B504462DED028B90ED020ADF
:104C5000FBF7B8FAD4ED000A20EE208A94ED020AA0
:104C6000FBF7ECFAD4ED010A00EE208A84ED038A0A
:104C700094ED020AFBF7A6FAD4ED010A20EE208A91
:104C800094ED020AFBF7DAFAD4ED000A00EE608A2E
:104C900084ED048ABDEC028B10BD00B590EC020AD5
:104CA00030EE600A80ED080AD0ED040A60EE800A5A
:104CB000C0ED0A0A90ED0B0A90ED051A01EE200AEC
:104CC00090ED071AD0ED060AFFF7D2FA80ED0B0A35
:104CD000D0ED0A0A90ED071A30EE800AD0ED060AF0
:104CE000FFF7C6FA80ED020A00BD00001C489FEDE8
:104CF0001B0A1D4980ED040A9FED1A0ADFED1B0A0D
:104D000080ED050AB2EE040A80ED060ABAEE040A46
:104D100080ED070A91ED060A303060EE200AC0ED02
:104D2000040AD1ED051A81EE801A9FED110ADFED1C
:104D3000121A21EE000A9FED0F1A80ED050A80ED90
:104D4000061AC0ED071A3030C0ED040A80ED050ADE
:104D500080ED061AC0ED071A704700006F12033A83
:104D6000A01100200AD7233C0C0D0020000096441F
:104D700017B751383E0AD7403E0AD7C070B504462F
:104D80002DED048BB0EE408AF0EE608A90ED080ABB
:104D9000FBF718FA20EE488A94ED080AFBF74EFA62
:104DA00008EEC08A84ED048A18EE100AFBF794FC22
:104DB00041EC190B94ED020B9FED4B1B51EC100BCA
:104DC00053EC112BFBF770FB53EC192BFBF76CFB2F
:104DD00094ED050AD4ED000A41EC190B38EE400AB7
:104DE00020EE200A10EE100AFBF776FC53EC192B8C
:104DF000FBF7B3FA41EC180BA069FBF76DFC53EC21
:104E0000182BFBF7AAFAFBF77AFC00EE100A3848D9
:104E100084ED060A0078374D032827D095ED060A61
:104E2000354905F11C00FFF7ADF800BF95ED070A05
:104E3000DFED320A9FED321A324D20EE200A9FED4F
:104E4000328A84ED0A0A94ED040A84ED050A94ED91
:104E5000080AD4ED060A00EE810A10EE100A84ED6D
:104E6000080AA8420FDB30EE480A13E0D4ED070A27
:104E70009FED261A60EE810A9FED251A40EE010A89
:104E8000C4ED070AD2E7B5EEC00AF1EE10FA03D27C
:104E900030EE080A84ED080A94ED070A03F07CF866
:104EA0009FED1C1AF0EE400A80EE810A03F07CF8B8
:104EB000194880ED000AD4ED080A30EEC00A10EE61
:104EC000100A84ED090AA84202DB30EE480A06E027
:104ED000B5EEC00AF1EE10FA03D230EE080A84ED06
:104EE000090ABDEC048B70BD000000E0E2360A3F09
:104EF00060040020A81200205C13002083F9223EE9
:104F000017B75138DB0FC940DB0FC9403BDF673FA4
:104F10002506C13D959EEBC580040020704700002A
:104F20002DE9F0413C4C2DED028BD4F8B402002861
:104F30006AD00020C4F8B402D4F8B802002865D0C2
:104F40005FF00000C4F8B802344D286A45F25551AC
:104F50000843286200213248FEF7FAF9042130485C
:104F6000FEF7F6F908212E48FEF7F2F900212C4849
:104F7000FDF7FCFD04212A48FDF7F8FD082128482B
:104F8000FDF7F4FD642002F041FF274E9FED258AD6
:104F9000F6EE008A304686EC028A00F015FB4FF4EC
:104FA0007A77384602F032FFC6ED008A86ED018A34
:104FB000304600F009FB384602F028FF1B4900206C
:104FC00008601B4908701B4880ED018A384602F0D2
:104FD0001DFF286A4AF6AA2108402862384602F0D6
:104FE00015FFFFF75FFCD4F8B40288B15FF0000052
:104FF000C4F8B402D4F8B80260B10020C4F8B80212
:10500000BDEC028BBDE8F081012093E7012099E718
:105010000120EDE70120F1E70000414200000140DE
:105020005C0600200000000034130020240400402F
:105030000E0400200C0D00202DE9F0410446154817
:10504000DDF818801D46007816460F46532801D01B
:1050500001F066FC0F48032C18D2EFF311812022D7
:1050600082F3118804EB440200EBC20018302CB12B
:1050700007604660856000220261C260C0F814804B
:10508000C8B280F311880020BDE8F0814FF0FF30F6
:10509000FAE70000841300202DE9F04107460B4891
:1050A00015460E460078532801D001F039FCEFF385
:1050B0001184202080F311882A463146384600F0BA
:1050C00007F8E1B281F31188BDE8F0818413002074
:1050D00070B50E46144900EB400001EBC0051446C4
:1050E000E86A183520B101280FD0022805D113E055
:1050F000284601F047FCA04201D2002411E02246DC
:105100003146284601F076FC0BE0284601F03AFCD7
:10511000A042F4D20446F2E73146284601F03DFCB5
:105120000446204670BD00008413002010B50446DC
:105130004148F7EE001A2DED028B90ED050AD0EDF7
:10514000060AD4ED082AB1EE400A80EE201A94ED4A
:10515000040A21EE002A81EEA01AD4ED000A70EEB6
:10516000E20A01EE202A9FED351A02EE010A84EDD3
:10517000040A90ED062AD0ED050A81EE823AF1EE9E
:10518000600AD4ED011AC0EE822AD4ED050A94ED2E
:10519000092A71EEC21A62EEA02A43EE212A42EEDB
:1051A000810AC4ED050A94ED021A30EE410A84ED3D
:1051B000060A94ED031A70EEC10AC4ED070AF6EE72
:1051C000000A00F091FA9FED1E8AF6EE000A20EE2A
:1051D000080A84ED080A94ED070A00F085FA20EE2B
:1051E000081ADFED180ADFED181A84ED091A94ED9C
:1051F0000A0A94ED082A154820EE200A02EE210A38
:1052000084ED0A0A94ED0B2A62EE200A41EE210A8F
:10521000C4ED0B0A90ED041AB5EEC01AF1EE10FAC7
:1052200003DAF1EE600AB1EE400ABDEC028B0848E9
:10523000BDE81040FFF7A2BD0C0D002017B7513894
:10524000A01AEF3F25CD423F6BCB743E6004002097
:10525000701200202DE9F0413A482DED068BF0EE5A
:10526000609AB0EE40AA0078374F384DDFED388AAB
:105270009FED389A142814D197ED040A284685ED3D
:10528000000A97ED030A85ED010AFFF706FD95ED8B
:10529000030AD5ED020A20EE280A00EE890A85ED00
:1052A000030A2E4E9FED2C8A304686ED008A86ED4D
:1052B00001AAFFF7F2FC96ED030A2948DFED290A5F
:1052C00020EE281A96ED020A00EE091A86ED031A5E
:1052D00090ED000A20EE200A20EE000A01EE410ABD
:1052E000B5EEC00AF1EE10FA01DBB1EEC08A1E4C39
:1052F000204684ED068AB1EE480A84ED070A95ED52
:10530000030A84ED000AC4ED019AFFF7C6FC94ED90
:10531000030AD4ED020A154820EE280A00EE890A95
:1053200084ED030AD7ED010AC0ED020AD6ED030AA7
:10533000C0ED030A80ED040ABDEC068BBDE8F04128
:10534000FEF772BE3704002060040020A011002088
:10535000957D1F3FD504C13E00000000D011002004
:10536000D8040020295C0F3F00120020F80C002018
:10537000044880ED020AC0ED030A80EC021AFFF730
:10538000D5BE00003012002001B50848FCF7C5FC6E
:105390000128FAD10548012269465838FDF7E4FA98
:1053A00002485838FDF79EF908BD0000FC050020B2
:1053B00008B500210091134945F6C0520968B1FBB8
:1053C000F2F16422514300910168009AA2B1521E89
:1053D00000928A689207F8D50A6822F040020A60B3
:1053E00001684A6822F0E0024A600168C9680091D9
:1053F000072180F8511008BD426D42F0400242651D
:10540000EAE70000BC04002001684A6822F080023C
:105410004A6001680A6822F040020A60072180F8A9
:105420005110704710B5806B01684A6822F0030282
:105430004A60416D41F010014165012180F8511031
:10544000FDF7E2F910BD10B5806BFDF7FAFA10BD5B
:1054500038B50546846BFCF703FE024628680068F1
:10546000C00523D42068416821F0200141602068F4
:10547000416821F0020141606421204600F01AF8E1
:1054800018B1606D40F020006065A068002118B977
:105490002068C26880680090E186012084F851008D
:1054A000606D18B12046FDF7AFF938BD2046FDF715
:1054B000C7FA38BD38B504461248134B0068B0FB34
:1054C000F3F04FF47A73584300906068B0F5827F30
:1054D0000DD10B46009200228021204600F016F8E4
:1054E00070B1606D40F020006065032038BD009809
:1054F00030B1401E009020688068C0430006F6D599
:10550000002038BDBC04002000366E012DE9F843B0
:105510001E46914688460446089DFCF7A1FD401BA7
:10552000351AFCF79DFD074625480068C0F3CB30CF
:10553000684338E0701C37D0FCF792FDC01BA842CE
:1055400003D215B1009860B32CE02068416821F0C7
:10555000E00141606068B0F5827F0BD1A068B0F5D2
:10556000004F02D0B0F5806F04D12068016821F0AF
:1055700040010160A06AB0F5005F09D120680168B0
:1055800021F4005101602068016841F4005101607C
:10559000012084F85100002084F850000320BDE869
:1055A000F8830025401E00902068816838EA0100D9
:1055B00004D000214945BDD10020F0E70121F9E7E1
:1055C000BC0400207047000070B504464248B7EEA6
:1055D000001A2DED028BB6EE008A90ED000ADFED89
:1055E0003F1AC1EE000A94ED000A94ED011A20EE74
:1055F000200A21EE201A60EE080A21EE211A31EE6F
:10560000602AF1EE600A30EEC11AB4EEC20AF1EE81
:1056100010FA04DDF0EE401AF0EE420A03E0F0EE7C
:10562000421AF0EE400AB4EEE11AF1EE10FA02DD91
:10563000F0EE411A06E0B4EEE01AF1EE10FA01D2F3
:10564000F0EE410A71EEA00A60EE880A30EE600AC0
:1056500072EE601A71EE600A84ED020AC4ED031A5C
:10566000C4ED040ABEEE001AF6EE000AFEF700FED4
:1056700030EE080ADFED1A8A1A4D20EE280ABCEE39
:10568000C00A10EE100A80B2686394ED030ABEEE01
:10569000001AF6EE000AFEF7EBFD30EE080A20EEE7
:1056A000280ABCEEC00A10EE100A80B2A86394ED7E
:1056B000040ABEEE001AF6EE000AFEF7D9FD30EE3F
:1056C000080A20EE280ABCEEC00A10EE100A80B2CA
:1056D000E863BDEC028B70BDD8040020D7B35D3FFA
:1056E0000040834500000140B4EEE00AF1EE10FAFC
:1056F00002DDB7EE000A7047B1EE601AB4EEC10ADF
:10570000F1EE10FA02D2BFEE000A704780EE201AC6
:10571000B0EE410A70470000254A02F16C0092ED9C
:10572000020AA0F1940180ED000A91ED040A80EDD7
:10573000010A91ED030A1F4980ED020A92F8242024
:10574000D1ED030A00EE102A1B4AB8EE400A80EEA3
:10575000801A80ED031A91ED010A80ED040AD2ED62
:10576000070A9FED160A80EE801AF1EE080A21EE74
:10577000201A80ED051A92ED081A114A80ED061ADA
:1057800092ED091A80ED071A92ED061A0D4AC1EE44
:10579000001A21EEA00A80ED080AB1F9141000EEFB
:1057A000101A0A21B8EEC00A80ED090AFEF7AEBC55
:1057B0000C0D002060040020A8120020DB0FC9405F
:1057C00070120020001001402DE9F0413C482DED01
:1057D000028BC1783B4C3C4E9FED3C8ADFED3C8A0E
:1057E00014292CD1C1781422B1FBF2F302FB13115E
:1057F000C1703848384990F82400098810FB01F03E
:1058000000EE100ADFED350A2046B8EEC00A84ED3E
:10581000000A96ED060A80EE201A9FED310A21EE6D
:10582000000A84ED010AFFF738FA94ED030AD4ED7B
:10583000020A20EE080A00EEA80A84ED030A2A4DA7
:10584000244F9FED280A283F85ED000A97ED030AB3
:10585000284685ED010AFFF720FA95ED030AD5EDFC
:10586000020A20EE080A00EEA80A85ED030A94ED6C
:10587000030A1E4C204684ED000A97ED040A84EDCD
:10588000010AFFF70AFA94ED030AD4ED020A07F1C0
:10589000140020EE080A00EEA80A84ED030AD6EDF3
:1058A000090AC0ED020AD5ED030AC0ED030A80ED36
:1058B000040ABDEC028BBDE8F041FEF7B5BB000069
:1058C00034040020A011002070120020957D1F3F9D
:1058D000D504C13E0C0D00207C040020DB0FC94024
:1058E0000000704200000000D011002000120020D3
:1058F0002DE9F0412DED028B9FED4C8A4C4CB7EE1B
:10590000000A4C4F84ED020A1E206073B7F91400A0
:10591000494E00EE100AB8EEC00A84ED000A307855
:10592000A7F12C05A0B3A87810B9207B401C2073E8
:1059300097ED040AD7ED030A30EE600A02F02CFB63
:1059400010EE100A3D49884205DB3878012802D163
:10595000207B401E2073207B617B884204D900207D
:1059600020733348FBF788FF94ED010A9FED341A4A
:10597000DFED340AFEF77CFC2D48383890F824001F
:1059800000EE900AF8EE600A20EE800A87ED040A25
:105990003878274F2C4C603F012802D0032829D1AA
:1059A0001CE03078B8B1288901282ED184ED118A05
:1059B00084ED108A02F052FAD7ED040A97ED030A3B
:1059C000FEF7B0F884ED028A84ED038A84ED048A40
:1059D00084ED058A0EE0FDF7B3FF0BE0E8880128AF
:1059E00013D0E888022819D0D7ED040A97ED030AEE
:1059F000FFF730FCE8781421B0FBF1F201FB120054
:105A0000E870BDEC028BBDE8F08102F027FAD4ED1E
:105A10000D0A94ED0C0AFEF785F8EBE702F01EFA8A
:105A2000D4ED0D0A94ED0C0AE2E70000000000003E
:105A3000440D0020600400200A04002000007A4485
:105A400000C0DAC500C0DA45E0120020B5EEC00A99
:105A5000F1EE10FA01DD01207047B5EEC00AF1EE5B
:105A600010FA02D24FF0FF3070470020704700005C
:105A70002DE9F0412DED028B82B09FED4E8A4E4C08
:105A8000B7EE000A1E2084ED020A60734B484C4DAD
:105A9000B0F9000000EE100AB8EEC00A84ED000A6A
:105AA000207B401C207395EC020A30EE600A02F065
:105AB00073FA10EE100A4349884202DB207B401E35
:105AC0002073207B617B884204D9002020733A48F0
:105AD000FBF7D2FE94ED010A9FED3B1ADFED3B0A86
